:020000040800F2
:1000000000000120394200080D3E00080F3E0008A4
:10001000113E0008133E0008153E000800000000D5
:10002000000000000000000000000000173E000873
:10003000193E0008000000001B3E00081D3E00089D
:100040008142000881420008814200088142000884
:100050008142000881420008814200088142000874
:100060008142000881420008814200088142000864
:100070008142000881420008814200088142000854
:10008000814200088142000881420008253E0008A4
:10009000353E0008453E0008553E000881420008F4
:1000A0008142000881420008814200088142000824
:1000B0008142000881420008814200088142000814
:1000C0008142000881420008814200088142000804
:1000D00081420008814200088142000881420008F4
:1000E00081420008814200088142000881420008E4
:1000F00081420008814200088142000881420008D4
:1001000081420008814200088142000881420008C3
:1001100081420008814200088142000881420008B3
:1001200081420008814200088142000881420008A3
:1001300000000000000000000000000000000000BF
:1001400000000000000000000000000000000000AF
:10015000000000000000000000000000000000009F
:10016000000000000000000000000000000000008F
:10017000000000000000000000000000000000007F
:10018000000000000000000000000000000000006F
:10019000000000000000000000000000000000005F
:1001A000000000000000000000000000000000004F
:1001B000000000000000000000000000000000003F
:1001C000000000000000000000000000000000002F
:1001D000000000000000000000000000000000001F
:0401E0005FF8E0F1F3
:1001E80010B5054C237833B9044B13B10448AFF369
:1001F80000800123237010BDE801002000000000EA
:10020800D864000808B5034B1BB103490348AFF392
:10021800008008BD00000000EC010020D864000840
:10022800034613F8012B002AFBD1181A013870472E
:1002380081F0004102E000BF83F0004330B54FEA8F
:1002480041044FEA430594EA050F08BF90EA020FFC
:100258001FBF54EA000C55EA020C7FEA645C7FEA8F
:10026800655C00F0E2804FEA5454D4EB5555B8BFB2
:100278006D420CDD2C4480EA020281EA030382EA23
:10028800000083EA010180EA020281EA0303362DB5
:1002980088BF30BD11F0004F4FEA01314FF4801C88
:1002A8004CEA113102D0404261EB410113F0004F9A
:1002B8004FEA03334CEA133302D0524263EB430351
:1002C80094EA050F00F0A780A4F10104D5F1200EEF
:1002D8000DDB02FA0EFC22FA05F2801841F100014A
:1002E80003FA0EF2801843FA05F359410EE0A5F11E
:1002F80020050EF1200E012A03FA0EFC28BF4CF04F
:10030800020C43FA05F3C01851EBE37101F0004504
:1003180007D54FF0000EDCF1000C7EEB00006EEB11
:100328000101B1F5801F1BD3B1F5001F0CD349089B
:100338005FEA30004FEA3C0C04F101044FEA4452F2
:1003480012F5800F80F09A80BCF1004F08BF5FEA79
:10035800500C50F1000041EB045141EA050130BD59
:100368005FEA4C0C404141EB010111F4801FA4F1FC
:100378000104E9D191F0000F04BF01460020B1FA51
:1003880081F308BF2033A3F10B03B3F120020CDA89
:100398000C3208DD02F1140CC2F10C0201FA0CF067
:1003A80021FA02F10CE002F11402D8BFC2F1200CCC
:1003B80001FA02F120FA0CFCDCBF41EA0C01904082
:1003C800E41AA2BF01EB0451294330BD6FEA0404CB
:1003D8001F3C1CDA0C340EDC04F11404C4F12002B6
:1003E80020FA04F001FA02F340EA030021FA04F3C8
:1003F80045EA030130BDC4F10C04C4F1200220FA1F
:1004080002F001FA04F340EA0300294630BD21FA5C
:1004180004F0294630BD94F0000F83F4801306BF22
:1004280081F480110134013D4EE77FEA645C18BF16
:100438007FEA655C29D094EA050F08BF90EA020FAD
:1004480005D054EA000C04BF1946104630BD91EAA5
:10045800030F1EBF0021002030BD5FEA545C05D1A8
:100468004000494128BF41F0004130BD14F58004E7
:100478003CBF01F5801130BD01F0004545F0FE415B
:1004880041F470014FF0000030BD7FEA645C1ABF90
:10049800194610467FEA655C1CBF0B46024650EAC7
:1004A800013406BF52EA033591EA030F41F40021F3
:1004B80030BD00BF90F0000F04BF0021704730B579
:1004C8004FF4806404F132044FF000054FF000014E
:1004D80050E700BF90F0000F04BF0021704730B50F
:1004E8004FF4806404F1320410F0004548BF4042E4
:1004F8004FF000013EE700BF42004FEAE2014FEA39
:1005080031014FEA02701FBF12F07F4393F07F4F13
:1005180081F06051704732F07F4208BF704793F016
:100528007F4F04BF41F40021704730B54FF4607429
:1005380001F0004521F000411CE700BF50EA01022C
:1005480008BF704730B54FF000050AE050EA0102D5
:1005580008BF704730B511F0004502D5404261EB45
:1005680041014FF4806404F132045FEA915C3FF486
:10057800D8AE4FF003025FEADC0C18BF03325FEA23
:10058800DC0C18BF033202EBDC02C2F1200300FAD4
:1005980003FC20FA02F001FA03FE40EA0E0021FAF9
:1005A80002F11444BDE600BF70B54FF0FF0C4CF4E7
:1005B800E06C1CEA11541DBF1CEA135594EA0C0F99
:1005C80095EA0C0F00F0DEF82C4481EA030621EAD4
:1005D8004C5123EA4C5350EA013518BF52EA03350F
:1005E80041F4801143F4801338D0A0FB02CE4FF0C1
:1005F8000005E1FB02E506F00042E0FB03E54FF0F1
:100608000006E1FB03569CF0000F18BF4EF0010EE8
:10061800A4F1FF04B6F5007F64F5407404D25FEAE4
:100628004E0E6D4146EB060642EAC62141EA555197
:100638004FEAC52040EA5E504FEACE2EB4F1FD0CD9
:1006480088BFBCF5E06F1ED8BEF1004F08BF5FEA57
:10065800500E50F1000041EB045170BD06F0004609
:1006680046EA010140EA020081EA0301B4EB5C04B6
:10067800C2BFD4EB0C0541EA045170BD41F48011AE
:100688004FF0000E013C00F3AB8014F1360FDEBFD3
:10069800002001F0004170BDC4F10004203C35DAAF
:1006A8000C341BDC04F11404C4F1200500FA05F332
:1006B80020FA04F001FA05F240EA020001F00042D3
:1006C80021F0004110EBD37021FA04F642EB060149
:1006D8005EEA430E08BF20EAD37070BDC4F10C0473
:1006E800C4F1200500FA04F320FA05F001FA04F237
:1006F80040EA020001F0004110EBD37041F1000123
:100708005EEA430E08BF20EAD37070BDC4F120052D
:1007180000FA05F24EEA020E20FA04F301FA05F295
:1007280043EA020321FA04F001F0004121FA04F23D
:1007380020EA020000EBD3705EEA430E08BF20EA0D
:10074800D37070BD94F0000F0FD101F00046400047
:1007580041EB010111F4801F08BF013CF7D041EAC9
:10076800060195F0000F18BF704703F000465200CD
:1007780043EB030313F4801F08BF013DF7D043EA9E
:100788000603704794EA0C0F0CEA135518BF95EA54
:100798000C0F0CD050EA410618BF52EA4306D1D1DB
:1007A80081EA030101F000414FF0000070BD50EAFA
:1007B800410606BF1046194652EA430619D094EA84
:1007C8000C0F02D150EA013613D195EA0C0F05D16E
:1007D80052EA03361CBF104619460AD181EA0301C2
:1007E80001F0004141F0FE4141F470014FF000007A
:1007F80070BD41F0FE4141F4780170BD70B54FF015
:10080800FF0C4CF4E06C1CEA11541DBF1CEA135594
:1008180094EA0C0F95EA0C0F00F0A7F8A4EB050476
:1008280081EA030E52EA03354FEA013100F088806D
:100838004FEA03334FF0805545EA131343EA126336
:100848004FEA022245EA111545EA10654FEA0026EB
:100858000EF000419D4208BF964244F1FD0404F5A4
:10086800407402D25B084FEA3202B61A65EB030500
:100878005B084FEA32024FF480104FF4002CB6EBBD
:10088800020E75EB030E22BFB61A754640EA0C003D
:100898005B084FEA3202B6EB020E75EB030E22BF7D
:1008A800B61A754640EA5C005B084FEA3202B6EBBE
:1008B800020E75EB030E22BFB61A754640EA9C007D
:1008C8005B084FEA3202B6EB020E75EB030E22BF4D
:1008D800B61A754640EADC0055EA060E18D04FEA0B
:1008E800051545EA16754FEA06164FEAC30343EAAB
:1008F80052734FEAC2025FEA1C1CC0D111F4801F78
:100908000BD141EA00014FF000004FF0004CB6E770
:1009180011F4801F04BF01430020B4F1FD0C88BF0F
:10092800BCF5E06F3FF6AFAEB5EB030C04BFB6EB1A
:10093800020C5FEA500C50F1000041EB045170BD0D
:100948000EF0004E4EEA113114EB5C04C2BFD4EB3A
:100958000C0541EA045170BD41F480114FF0000EBE
:10096800013C90E645EA060E8DE60CEA135594EA3A
:100978000C0F08BF95EA0C0F3FF43BAF94EA0C0F3D
:100988000AD150EA01347FF434AF95EA0C0F7FF4B2
:1009980025AF104619462CE795EA0C0F06D152EA06
:1009A80003353FF4FDAE1046194622E750EA4106EA
:1009B80018BF52EA43067FF4C5AE50EA41047FF4FB
:1009C8000DAF52EA43057FF4EBAE12E74FF0FF3C60
:1009D80006E000BF4FF0010C02E000BF4FF0010C31
:1009E8004DF804CD4FEA410C7FEA6C5C4FEA430CAA
:1009F80018BF7FEA6C5C1BD001B050EA410C0CBFF9
:100A080052EA430C91EA030F02BF90EA020F00205A
:100A1800704710F1000F91EA030F58BF994208BFC1
:100A280090422CBFD8176FEAE37040F0010070477E
:100A38004FEA410C7FEA6C5C02D150EA013C07D1D5
:100A48004FEA430C7FEA6C5CD6D152EA033CD3D020
:100A58005DF8040B704700BF8446104662468C461A
:100A68001946634600E000BF01B5FFF7B7FF00284D
:100A780048BF10F1000F01BD4DF808EDFFF7F4FF76
:100A88000CBF012000205DF808FB00BF4DF808ED01
:100A9800FFF7EAFF34BF012000205DF808FB00BF24
:100AA8004DF808EDFFF7E0FF94BF012000205DF846
:100AB80008FB00BF4DF808EDFFF7CEFF94BF0120FB
:100AC80000205DF808FB00BF4DF808EDFFF7C4FFF4
:100AD80034BF012000205DF808FB00BF4FEA410C3D
:100AE8007FEA6C5C02D150EA013C0AD14FEA430C20
:100AF8007FEA6C5C02D152EA033C02D14FF000005D
:100B080070474FF0010070474FEA410212F500129A
:100B180015D211D56FF47873B3EB625212D94FEA3C
:100B2800C12343F0004343EA505311F0004F23FA26
:100B380002F018BF404270474FF00000704750EA7B
:100B4800013005D111F0004008BF6FF00040704738
:100B58004FF00000704700BF4A0011D212F5001292
:100B680011D20DD56FF47873B3EB62520ED44FEAFD
:100B7800C12343F0004343EA505323FA02F070477D
:100B88004FF00000704750EA013002D14FF0FF30BB
:100B980070474FF00000704710B504460E4B1878A8
:100BA8004FF47A73B3FBF0F30C4A1068B0FBF3F020
:100BB80000F084FA68B90F2C01D901200AE000225C
:100BC80021464FF0FF3000F037FA054B1C6000203B
:100BD80000E0012010BD00BF00000020140000202C
:100BE8000400002008B5074A136843F01003136097
:100BF800032000F00FFA0020FFF7CEFF03F0E0F823
:100C0800002008BD00200240034A1168034B1B78EE
:100C18000B441360704700BF400200200000002012
:100C2800014B1868704700BF4002002038B50446E1
:100C3800FFF7F6FF0546B4F1FF3F02D0044B1B78DF
:100C48001C44FFF7EDFF401BA042FAD338BD00BF9C
:100C580000000020002800F0A18038B5044690F874
:100C68002030D3B12268136823F002031360FFF722
:100C7800D7FF054623685A6812F0020F10D0FFF715
:100C8800CFFF401B0A28F5D9636A43F40033636237
:100C9800052384F82030012038BD02F04DF9E1E742
:100CA8001A6842F001021A60FFF7BAFF0546236886
:100CB8005A6812F0010F0DD1FFF7B2FF401B0A2846
:100CC800F5D9636A43F400336362052384F820305E
:100CD8000120E1E7227E012A3DD01A6822F0800235
:100CE8001A60637E012B3BD02268136823F040030F
:100CF8001360A37E012B39D02268136823F02003E8
:100D08001360E37E012B37D02268136843F0100389
:100D18001360237F012B35D02268136823F0080362
:100D28001360637F012B33D02268136823F0040318
:100D38001360A368E268134322691343626913438B
:100D48006268013A21681343CB6100206062012385
:100D580084F82030A0E71A6842F080021A60C0E7E1
:100D68002268136843F040031360C2E722681368DF
:100D780043F020031360C4E72268136823F01003CC
:100D88001360C6E72268136843F008031360C8E7D6
:100D98002268136843F004031360CAE70120704710
:100DA8007047704770477047704770477047704783
:100DB800704770477047704770472DE9F84F0546F0
:100DC80003685C695F689E68D3F80C90D3F810805C
:100DD800D3F818A014F0010F5AD016F0010F17D04D
:100DE80001229A6016F0020F08D116F0040F30D1D4
:100DF80016F0080F07D04FF4805B0BE0FFF7D0FF29
:100E08004FF0000B06E0FFF7CEFF4FF0000B01E0BC
:100E18004FF0000B16F4807F0BD02B684FF48072D4
:100E28009A6016F4007F17D116F4806F18D04BF42F
:100E3800005B16F4803F2DD02B684FF480329A6007
:100E480016F4003F16D116F4802F17D04BF4004B40
:100E580020E04FF4006BDDE72846FFF7A2FFE8E744
:100E680016F4006F02D04BF4804BE2E72846FFF7F8
:100E78009BFFDEE72846FFF795FF0BE016F4002FEF
:100E880002D04BF4803B05E02846FFF78EFF01E0D7
:100E98004FF0000B14F0080F07D019F0100F04D012
:100EA8004BF4007B2B681022DA6014F0040F02D098
:100EB80019F0080F60D114F0020F04D02B68DB681A
:100EC80013F0030F5FD114F0400F07D018F0100F84
:100ED80004D04BF4806B2B6810221A6114F0200F99
:100EE80002D018F0080F52D114F0100F04D02B685C
:100EF8001B6913F0030F51D114F4003F02D017F00F
:100F0800100F4FD114F4803F02D017F0080F50D1C2
:100F180014F4004F67D017F0040F61D014F4807FE9
:100F280004D01AF0010F01D04BF0010B14F4007F2C
:100F380004D01AF0020F01D04BF0020B14F4806FAA
:100F480004D01AF0040F01D04BF0040B14F4006F16
:100F580046D01AF0700A43D0BAF1300F48D02FD9D2
:100F6800BAF1500F47D0BAF1600F47D0BAF1400F2D
:100F780031D14BF0400B2EE02B680822DA6028466E
:100F8800FFF715FF97E72846FFF710FF9BE72B6849
:100F980008221A612846FFF70CFFA5E72846FFF745
:100FA80007FFA9E72B6810225A602846FFF702FFBF
:100FB800A8E72B6808225A602846FFF7FCFEA7E737
:100FC800BAF1100F05D0BAF1200F04D14BF0100B75
:100FD80001E04BF0080B2A68936923F070039361D2
:100FE8002B6804225A60BBF1000F0AD1BDE8F88FC4
:100FF8004BF0200BEFE74BF0800BECE74BF4807BDA
:10100800E9E76B6A43EA0B036B622846FFF7D4FEF5
:10101800ECE70000074AD36823F4E0631B041B0CC9
:10102800000200F4E060184340F0BF6040F4003074
:10103800D060704700ED00E030B4174BDB68C3F3B5
:101048000223C3F10704042C28BF04241D1D062D08
:1010580018D9033B4FF0FF3505FA04F421EA0401DF
:10106800994005FA03F322EA0303194300280BDB2E
:101078000901C9B200F1604000F5614080F8001331
:1010880030BC70470023E5E700F00F000901C9B242
:10109800024B1954F4E700BF00ED00E014ED00E046
:1010A800002807DB00F01F02400901239340024A91
:1010B80042F82030704700BF00E100E00138B0F18D
:1010C800807F0AD2064B5860064AF02182F8231026
:1010D8000020986007221A6070470120704700BFFF
:1010E80010E000E000ED00E0F0B482B000263246E7
:1010F800ABE0002D63D0012D00D1CE68FF2B72D854
:101108008446FF2B72D89500DCF800400F27AF40CB
:1011180024EA070406FA05F52C43CCF800404C688D
:1011280014F0805F00F09080664CA56945F00105D9
:10113800A561A46904F001040194019C9508AF1C01
:10114800614C54F827C002F00304A7000F24BC40E8
:101158002CEA040C5D4CA0424ED004F58064A042F9
:1011680000F08C8004F58064A04200F0898004F5CA
:101178008064A04200F0868004F58064A04200F0FC
:10118800838004F58064A04234D0062435E0504FB3
:10119800BD4214D00BD94F4FBD4210D007F5803750
:1011A800BD420CD0A7F58017BD42A7D107E0A7F52F
:1011B8008017BD4203D007F58037BD429ED18D68A8
:1011C8007DB1012D08D04461082697E7CE6808361E
:1011D80094E7CE680C3691E7046108268EE700266E
:1011E8008CE704268AE700F1040C8AE7A2F10805D7
:1011F800AD0089E7052400E00024BC4044EA0C0463
:101208000235314F47F825404C6814F4803F3DD0F3
:10121800314D2C681C432C604C6814F4003F3BD0C3
:101228002D4D6C681C436C604C6814F4801F39D0D9
:10123800294DAC681C43AC604C6814F4001F37D0CF
:10124800254DEC682343EB6001320B6833FA02F456
:1012580034D00124944023409C42F5D14D68122D8E
:10126800B7D094D8022DB1D07FF643AF032DB6D0B6
:10127800112D7FF443AFCE6804363FE70124BCE765
:101288000224BAE70324B8E70424B6E7124D2C6811
:1012980024EA03042C60BFE70F4D6C6824EA0304BA
:1012A8006C60C1E70C4DAC6824EA0304AC60C3E78A
:1012B800094DEC6824EA0303EB60C5E702B0F0BC13
:1012C800704700BF001002400000014000080140C4
:1012D80000002110000031100004014012B9090477
:1012E800016170470161704703685A6912F4806FA1
:1012F80011D06FF480625A6100230363202280F8C2
:101308003D2080F83E30026C42F00402026480F80E
:101318003C300120704700207047F8B506460C465F
:1013280017461D4622E0FFF77BFC069BC01AA84221
:1013380000D8DDB900233363202286F83D2086F8E3
:101348003E30326C42F02002326486F83C30012094
:101358001AE033685B6924EA03039BB2B3FA83F3A8
:101368005B099F420FD1B5F1FF3FDCD1C4F30743BE
:10137800012BEED033689B6924EA03039BB2B3FACE
:1013880083F35B09EDE70020F8BDF8B504460D4688
:1013980016461F463CE01A6842F400721A60236839
:1013A8006FF480625A6100232363202284F83D2071
:1013B80084F83E30226C42F00402226484F83C3007
:1013C800012033E0FFF72CFCC01BB04200D8FEB967
:1013D80000232363202284F83D2084F83E30226CC9
:1013E80042F02002226484F83C3001201EE0236889
:1013F8005B6925EA03039BB2003318BF0123A3B13D
:1014080023685A6912F4806FC5D1B6F1FF3FD9D16C
:10141800C5F30743012BEAD023689B6925EA030338
:101428009BB2003318BF0123E9E70020F8BD70B56F
:1014380004460D46164623685B6913F0800F1CD1DD
:101448002046FFF751FFD0B9B5F1FF3FF3D0FFF7C2
:10145800E7FB801BA84201D8002DECD100232363B1
:10146800202284F83D2084F83E30226C42F020028D
:10147800226484F83C30012000E0002070BD012087
:10148800FCE700002DE9F04184B004468846164682
:101498001F460B9D0268136843F480731360009520
:1014A8000A9B00224FF00111FFF737FF20B10123FB
:1014B800184604B0BDE8F081226808F0FE03136105
:1014C8002B460A9A20492046FFF75FFF08B10123FF
:1014D800EEE70023039323685A6903929B690393F9
:1014E800039B2A460A992046FFF7A1FF034658B1F5
:1014F800236C042B01D00123DAE72268136843F434
:10150800007313600123D3E7012F0ED02368320A3A
:101518001A612A460A992046FFF789FF034678B1DF
:10152800236C042B05D00123C2E72268F6B21661AA
:10153800BEE72268136843F4007313600123B7E71A
:101548002268F6B21661B3E70200010070B50446DE
:101558000D46164623685B6913F0040F1CD120461C
:10156800FFF7C2FED0B9B5F1FF3FF3D0FFF758FB44
:10157800801BA84201D8002DECD100232363202230
:1015880084F83D2084F83E30226C42F02002226428
:1015980084F83C30012000E0002070BD0120FCE709
:1015A800002800F0BE80F8B5044690F83D30002BC6
:1015B8006BD0242384F83D302268136823F001039C
:1015C800136000F087FC6268584B9A4262D8584B07
:1015D80098428CBF00230123002B40F0A480554B78
:1015E800A3FB00239B0C21684A6822F03F021A43A0
:1015F8004A6025682A6A22F03F0266684B498E4293
:101608004ED8013313432B622568E96921F44F4111
:1016180021F0FF016368454A93424BD801385B00CB
:10162800B0FBF3F30133C3F30B03042B38BF0423DC
:101638000B43EB6121680B6823F0C003E269206A61
:10164800024313430B6021688B6823F4034323F0A0
:10165800FF032269E068024313438B602168CB686B
:1016680023F0FF036269A06902431343CB60226839
:10167800136843F00103136000202064202384F8DA
:101688003D30206384F83E00F8BD80F83C3001F01E
:1016980055FD8EE7284B98428CBF002301239BE71A
:1016A8004FF4967101FB03F32449A1FB03139B0933
:1016B8000133A7E7A268BAB9461E03EB4307B6FB96
:1016C800F7F60136C6F30B06B6FA86F6760936BB88
:1016D800C2B9013803EB4303B0FBF3F30133C3F39F
:1016E8000B0242F40043A3E7461E03EB830707EB14
:1016F8008707B6FBF7F60136C6F30B06B6FA86F689
:101708007609E4E7013803EB830303EB8303B0FBBB
:10171800F3F20132C2F30B0242F4404388E701239B
:1017280086E7012070470120AEE700BFA0860100D0
:101738007F841E0083DE1B43FF083D00D34D6210EB
:101748002DE9F04182B004460E4617469846FFF749
:1017580067FA94F83D30DBB2202B04D002231846F8
:1017680002B0BDE8F08105460090192301224C49DA
:101778002046FFF7D2FD002840F08B8094F83C30DB
:10178800012B00F08880012384F83C3023681A6814
:1017980012F0010F03D11A6842F001021A602268A0
:1017A800136823F400631360212384F83D30402339
:1017B80084F83E3000232364089B6362BDF824301C
:1017C8006385638D2385374BE36201950A9B0093FC
:1017D80043463A4631462046FFF754FE00285CD17E
:1017E800238D002B34D02A460A992046FFF71FFE86
:1017F80010BB626A236812781A61616A4B1C6362C3
:10180800238D013B9BB22385628D013A92B262859A
:101818002268506910F0040FE2D0002BE0D04B781A
:101828001361636A01336362238D013B2385638DF2
:10183800013B9BB26385D3E7236C042B01D00123C2
:101848008DE72268136843F400731360012386E769
:101858002A460A992046FFF779FE034658B1236CB9
:10186800042B01D001237AE72268136843F400733C
:101878001360012373E721680A6842F400720A6062
:10188800202284F83D20002284F83E2084F83C2061
:1018980065E7022363E7022361E701235FE700BFEF
:1018A800020010000000FFFF82B0084B1B68084AC6
:1018B800A2FB03235B0A00FB03F0019000BF019B1E
:1018C8005A1E0192002BF9D102B070471400002073
:1018D800D34D6210002800F0F58170B582B004463F
:1018E800036813F0010F2CD0AB4B5B6803F00C03BB
:1018F800042B1DD0A84B5B6803F00C03082B12D0F7
:101908006368B3F5803F41D0002B55D103F1804384
:1019180003F504331A6822F480321A601A6822F434
:1019280080221A6037E09C4B5B6813F4803FE7D055
:10193800994B1B6813F4003F03D06368002B00F039
:10194800C381236813F0020F76D0934B5B6813F0C2
:101958000C0F5FD0904B5B6803F00C03082B54D03E
:101968002369002B00F08A808C4B01221A60FFF754
:1019780057F90546884B1B6813F0020F75D1FFF71E
:101988004FF9401B0228F5D90320A0E1824A1368C9
:1019980043F480331360636843B3FFF741F90546A6
:1019A8007D4B1B6813F4003FCBD1FFF739F9401B7F
:1019B8006428F5D903208AE1B3F5A02F09D0764B26
:1019C8001A6822F480321A601A6822F480221A6097
:1019D800E1E703F18043A3F53C331A6842F480221F
:1019E8001A601A6842F480321A60D4E7FFF718F9CF
:1019F8000546694B1B6813F4003FA2D0FFF710F9A6
:101A0800401B6428F5D9032061E1634B5B6813F43C
:101A1800803FA5D1604B1B6813F0020F04D02369E7
:101A2800012B01D0012052E15B4A136823F0F8032F
:101A3800616943EAC1031360236813F0080F32D0C9
:101A4800A369002B5BD0564B01221A60FFF7E8F818
:101A58000546514B5B6A13F0020F21D1FFF7E0F8FE
:101A6800401B0228F5D9032031E14B4A136823F0C3
:101A7800F803616943EAC1031360DDE7474B0022BD
:101A88001A60FFF7CDF80546434B1B6813F0020FA9
:101A9800D2D0FFF7C5F8401B0228F5D9032016E17C
:101AA8000120FFF701FF236813F0040F00F098806E
:101AB800394BDB6913F0805F33D1374BDA6942F079
:101AC8008052DA61DB6903F080530193019B0125A1
:101AD800344B1B6813F4807F25D0E368012B36D084
:101AE800002B4CD103F1804303F504331A6A22F02A
:101AF80001021A621A6A22F004021A622CE0284BC8
:101B080000221A60FFF78CF80546234B5B6A13F036
:101B1800020FC8D0FFF784F8401B0228F5D903202C
:101B2800D5E00025D4E71F4A136843F48073136097
:101B3800FFF776F806461B4B1B6813F4807FCCD161
:101B4800FFF76EF8801B6428F5D90320BFE0124A1E
:101B5800136A43F001031362E3687BB3FFF760F88D
:101B680006460D4B1B6A13F0020F38D1FFF758F8E1
:101B7800801B41F288339842F3D90320A7E0052B54
:101B880012D0054B1A6A22F001021A621A6A22F070
:101B980004021A62E0E700BF00100240000042425F
:101BA80080044242007000404C4B1A6A42F0040222
:101BB8001A621A6A42F001021A62CDE7FFF730F89A
:101BC8000646464B1B6A13F0020F08D0FFF728F8A9
:101BD800801B41F288339842F3D9032077E0E5B9B6
:101BE800E369002B72D03D4A526802F00C02082AC1
:101BF80056D0022B17D03A4B00221A60FFF710F884
:101C08000446364B1B6813F0007F47D0FFF708F8EF
:101C1800001B0228F5D9032059E0304AD36923F084
:101C28008053D361DCE72E4B00221A60FEF7F8FFE1
:101C380005462A4B1B6813F0007F06D0FEF7F0FF1D
:101C4800401B0228F5D9032041E0236AB3F5803F01
:101C58001AD022494B6823F47413226A606A02433B
:101C680013434B601E4B01221A60FEF7D9FF04464E
:101C78001A4B1B6813F0007F0ED1FEF7D1FF001B33
:101C88000228F5D9032022E0144A536823F40033CC
:101C9800A1680B435360DCE7002018E0002016E041
:101CA800012B16D00D4B5B6803F48031226A9142F8
:101CB80001D001200BE003F47013626A93420AD04A
:101CC800012004E001207047012000E0002002B05C
:101CD80070BD0120FBE70020F9E700BF00100240BB
:101CE8006000424210B487B0184C94E80F000DF120
:101CF800180C0CE90F00238AADF80430144B5B680C
:101D080003F00C02042A03D0082A05D0114800E089
:101D1800114807B010BC7047C3F3834206A90A44B0
:101D280012F8102C13F4803F0CD0094B5B68C3F3F6
:101D380040430B4413F8143C074800FB02F0B0FB87
:101D4800F3F0E6E7054800FB02F0E2E7F06400087C
:101D58000010024000127A000024F40000093D003F
:101D6800002800F0A38070B50446524B1B6803F0AE
:101D780007038B420CD24F4A136823F007030B4327
:101D88001360136803F007038B4201D0012070BD74
:101D9800236813F0020F17D013F0040F04D0464A3B
:101DA800536843F4E0635360236813F0080F04D0CA
:101DB800414A536843F4605353603F4A536823F0E1
:101DC800F003A068034353600D46236813F0010F26
:101DD80031D06368012B20D0022B25D0364A1268F7
:101DE80012F0020F64D034494A6822F00302134308
:101DF8004B60FEF715FF06462F4B5B6803F00C039C
:101E08006268B3EB820F16D0FEF70AFF801B41F21F
:101E180088339842F0D90320B9E7274A126812F4A8
:101E2800003FE0D10120B2E7234A126812F0007F98
:101E3800D9D10120ABE71F4B1B6803F00703AB4266
:101E48000CD91C4A136823F007032B43136013684B
:101E580003F00703AB4201D0012098E7236813F091
:101E6800040F06D0144A536823F4E063E1680B4377
:101E78005360236813F0080F07D00F4A536823F400
:101E88006053216943EAC1035360FFF72BFF0A4BF4
:101E98005B68C3F30313094AD35CD840084B186046
:101EA800084B1868FEF778FE002070E7012070479D
:101EB80001206CE70020024000100240947F0008D7
:101EC8001400002004000020014B1868704700BF70
:101ED8001400002008B5FFF7F7FF044B5B68C3F355
:101EE8000223034AD35CD84008BD00BF001002405B
:101EF800A47F000808B5FFF7E7FF044B5B68C3F34E
:101F0800C223034AD35CD84008BD00BF001002407A
:101F1800A47F0008F8B505460F4616461C462B68F0
:101F28009B6837EA03030CBF01230023B34237D071
:101F3800B4F1FF3FF3D0FEF773FE069BC01AA04230
:101F480001D2002CEBD12A68536823F0E0035360D8
:101F58006B68B3F5827F0BD0AB6AB3F5005F14D022
:101F6800012385F85130002385F85030032018E00C
:101F7800AB68B3F5004F02D0B3F5806FECD12A6897
:101F8800136823F040031360E6E72A68136823F414
:101F9800005313602A68136843F400531360DFE7A3
:101FA8000020F8BD10B582B0044600920B4600220E
:101FB8008021FFF7AFFF034610B9184602B010BDE5
:101FC800636D43F0200363650323F6E7002839D0E7
:101FD80010B504460023836290F85130002B2CD0B2
:101FE800022384F851302268136823F040031360F9
:101FF8006368A2681343E268134322691343626962
:102008001343A26902F400721343E2691343226A7C
:102018001343A16A22680B431360638B226803F0A1
:10202800040353602268D36923F40063D36100205A
:102038006065012384F8513010BD80F8503001F0FC
:1020480069FECDE7012070472DE9F04182B090F894
:102058005040012C00F0C3801D46174688460446B0
:10206800012380F85030FEF7DBFD064694F8513026
:10207800DBB2012B09D00220012384F85130002360
:1020880084F8503002B0BDE8F081B8F1000F00F0DC
:102098009880002F00F09780032384F851300023A4
:1020A8006365C4F83080A786E786A363A387E387C0
:1020B80063642364A368B3F5004F1CD023681A68CF
:1020C80012F0400F03D11A6842F040021A60E36828
:1020D800B3F5006F15D063680BB1012F49D1226B9E
:1020E800236812781A73236B01332363E38E013B51
:1020F8009BB2E3863DE02268136843F48043136093
:10210800DCE763680BB1012F15D1226B23681288B5
:10211800DA60236B02332363E38E013B9BB2E386D1
:1021280009E0FEF77DFD801BA84202D3B5F1FF3F11
:102138004BD1002D4BD0E38E9BB2002B2CD02368C3
:102148009A6812F0020FECD0226B1288DA60236BC7
:1021580002332363E38E013B9BB2E386EBE7FEF792
:102168005FFD801BA84202D3B5F1FF3F31D1002D9E
:1021780031D0E38E9BB27BB123689A6812F0020FCC
:10218800EDD0226B12781A73236B01332363E38E2D
:10219800013B9BB2E386ECE7324629462046FFF72F
:1021A80001FF08B120236365A36833B9019323684D
:1021B800DA6801929B680193019B636D6BB90020FB
:1021C8005AE7012058E7012056E7032054E7032087
:1021D80052E7032050E703204EE701204CE7022096
:1021E80050E7000030B4036A23F001030362056A74
:1021F8004268846924F073040B681C4325F00205C7
:102208008B682B43104DA84203D005F50065A84202
:1022180005D123F00803CD682B4323F004030A4DAE
:10222800A84203D005F50065A84205D122F4407202
:102238004D6915438A692A43426084614A6842634A
:10224800036230BC704700BF002C014030B4036A01
:1022580023F480730362036A4268C46924F0730438
:102268000D682C4323F400738D6843EA0523124D4F
:10227800A84203D005F50065A84206D123F40063FF
:10228800CD6843EA052323F480630B4DA84203D0AD
:1022980005F50065A84207D122F440524D6942EA8B
:1022A80005128D6942EA05124260C4614A68C26338
:1022B800036230BC704700BF002C014030B4036A91
:1022C80023F480530362036A4468C26922F4E64235
:1022D8000D6842EA052223F400538D6843EA05336A
:1022E800094DA84203D005F50065A84204D124F49D
:1022F80080444D6944EA85144460C2614A680264B6
:10230800036230BC704700BF002C014010B4036A60
:10231800046A24F001040462846924F0F00444EAA5
:10232800021223F00A030B438261036210BC704758
:1023380010B4036A23F0100303628469036A24F467
:10234800704444EA023223F0A00343EA0113826195
:10235800036210BC7047836823F07003194341F08F
:1023680007018160704770470368244A904212D081
:1023780002F5006290420ED0B0F1804F0BD0A2F56A
:102388009832904207D002F58062904203D002F55D
:102398008062904203D123F070034A681343174ABE
:1023A800904212D002F5006290420ED0B0F1804FF8
:1023B8000BD0A2F59832904207D002F58062904285
:1023C80003D002F58062904203D123F44073CA68B7
:1023D800134323F080034A69134303608B68C36285
:1023E8000B688362054B984203D003F5006398425B
:1023F80001D10B690363012343617047002C01403D
:10240800A8B110B5044690F83D305BB1022384F8BA
:102418003D30211D2068FFF7A7FF012384F83D30D8
:10242800002010BD80F83C3001F05CFDEEE7012093
:102438007047A8B110B5044690F83D305BB102234F
:1024480084F83D30211D2068FFF78EFF012384F8B2
:102458003D30002010BD80F83C30FFF784FFEEE7E8
:102468000120704730B4036A23F010030362036A43
:102478004468826922F4E6420D6842EA052223F0A4
:1024880020038D6843EA0513114DA84203D005F5D2
:102498000065A84206D123F08003CD6843EA0513FE
:1024A80023F040030A4DA84203D005F50065A84271
:1024B80007D124F440644D6944EA85048D6944EAEF
:1024C8008504446082614A688263036230BC704755
:1024D800002C014038B590F83C30012B66D00D46F1
:1024E8000446012380F83C30022380F83D300C2A52
:1024F8001AD8DFE802F0071919192019191934191F
:10250800191947000068FFF76DFE2268936943F0C8
:10251800080393612268936923F004039361226896
:10252800936929690B439361012384F83D300020A6
:1025380084F83C0038BD0068FFF794FF226893696F
:1025480043F4006393612268936923F48063936181
:1025580022689369296943EA01239361E4E70068E3
:10256800FFF774FE2268D36943F00803D361226839
:10257800D36923F00403D3612268D36929690B4323
:10258800D361D1E70068FFF799FE2268D36943F465
:102598000063D3612268D36923F48063D36122681E
:1025A800D369296943EA0123D361BDE70220C1E762
:1025B80010B4846824F47F4442EA03230B43234382
:1025C800836010BC704790F83C30012B66D010B582
:1025D8000446012380F83C30022380F83D3002682D
:1025E800936823F47F4323F0770393600B68402BB1
:1025F8004AD013D9602B3DD01ED9702B28D0B3F503
:10260800005F30D1CB684A6889680068FFF7D0FF5F
:102618002268936843F48043936024E0102B06D02B
:1026280004D9202B03D0302B01D01CE0DBB919468C
:102638002068FFF790FE16E0502B14D1CA6849684D
:102648000068FFF763FE50212068FFF784FE0AE068
:10265800CB684A6889680068FFF7AAFF2268936810
:1026680043F077039360012384F83D30002084F819
:102678003C0010BDCA6849680068FFF759FE602130
:102688002068FFF768FEEEE7CA6849680068FFF748
:102698003DFE40212068FFF75EFEE4E70220704718
:1026A80010B401F01F01012303FA01F4036A23EABD
:1026B80004030362036A8A401343036210BC704731
:1026C80010B5044601220068FFF7EAFF23680B4AA9
:1026D800934203D002F50062934203D15A6C42F44C
:1026E80000425A642268936803F00703062B03D05C
:1026F800136843F001031360002010BD002C014053
:1027080090F83C30012B1CD070B4012680F83C6056
:10271800022380F83D3002685568936825F07005FB
:102728000C682C4323F080054B682B4354600268E7
:10273800936080F83D60002380F83C30184670BCF8
:10274800704702207047000038B5044602681369D4
:1027580023F44053C1680B43136183680269134330
:1027680042691A430168CB6823F4B05323F00C0381
:102778001343CB600268536923F4407381690B43A8
:1027880053610268214B9A421FD0FFF7A3FB00EB6D
:10279800800000EB800063689B00B0FBF3F01C4DE9
:1027A800A5FB00325109642202FB110213013233E6
:1027B800A5FB03235B0903F0F00202EB011203F00F
:1027C8000F03216813448B6038BDFFF793FB00EBC0
:1027D800800000EB800063689B00B0FBF3F00C4DB9
:1027E800A5FB00325109642202FB110213013233A6
:1027F800A5FB03235B0903F0F00202EB011203F0CF
:102808000F03216813448B60DEE700BF00380140E6
:102818001F85EB512DE9F04105460F4616469846AF
:10282800069C2B681B6837EA03030CBF01230023AF
:10283800B3421DD1B4F1FF3FF3D02CB1FEF7F0F94C
:10284800A0EB0800A042ECD92A68D36823F4D0731F
:10285800D3602A68536923F001035361202385F864
:10286800393085F83A30002385F83830032000E005
:102878000020BDE8F08158B310B5044690F839300F
:102888000BB3242384F839302268D36823F4005327
:10289800D3602046FFF758FF2268136923F490435A
:1028A80013612268536923F02A0353612268D368AD
:1028B80043F40053D3600020E063202384F83930C8
:1028C80084F83A3010BD80F8383001F015FCD8E7AC
:1028D800012070472DE9F04182B01E4690F839304A
:1028E800DBB2202B55D104460D469046002955D021
:1028F800002A55D090F83830012B53D0012380F8A6
:1029080038300023C363212380F83930FEF788F973
:102918000746A4F82480A4F8268010E000963B46D9
:10292800002280212046FFF775FF00283CD12B8824
:102938002268C3F3080353602369C3B90235E38CE3
:102948009BB2B3B1E38C013B9BB2E384A368B3F5BC
:10295800805FE3D000963B46002280212046FFF7A7
:1029680059FF18BB2A7823685A600135E7E7013513
:10297800E5E700963B46002240212046FFF74AFF44
:102988000346A8B9202284F83920002284F8382088
:1029980000E00223184602B0BDE8F0810123F9E700
:1029A8000123F7E70223F5E70323F3E70323F1E71E
:1029B8000323EFE72DE9F04182B080460D46174624
:1029C8001C46089E0CE016F8013B009300233A468B
:1029D8002946404600F002FA013CE4B20835EDB25F
:1029E800002CF0D102B0BDE8F0812DE9F04383B0AE
:1029F8008146884615461F469DF828400B9EDB00F9
:102A0800009403F0F80300F013F860B90DE00096A5
:102A18003B462A4641464846FFF7CCFF3E4401352F
:102A2800EDB2013CE4B2002CF1D103B0BDE8F08373
:102A380070B49DF80C401444E4B2013CE4B290F840
:102A4800395090F83B60964205D3A54207D9A24277
:102A580005D800201CE0A54219D8A2421AD90B4477
:102A6800DBB2013BDBB290F8382090F83A0088429C
:102A780005D39A4210D9994210D9012008E09A4208
:102A88000ED8994201D8002002E0012000E0002081
:102A980070BC70470020FBE70120F9E70020F7E74A
:102AA8000020F5E7405C70474218435C507800EB23
:102AB800032080B2704708B50021FFF7F3FF08BD77
:102AC80008B5FFF7F8FF18B1022801D0032008BDA8
:102AD8000620FCE710B50C46FFF7F2FF204410BDB6
:102AE80038B504460D468068FFF7E5FF98B102281F
:102AF80011D02B7803F00F02023AA2771B096377F3
:102B08006B7803F00F0284F820201B09E377AB7879
:102B18001B09237738BD2B78E3776B7884F820304E
:102B280095F90330237795F90430637795F90530E3
:102B3800A377EFE700230377C37780F82030437744
:102B48008377704708B50621FFF7AEFF08BD08B5C3
:102B58000821FFF7A9FF08BD08B50A21FFF7A2FF62
:102B680008BD08B50B21FFF79DFF08BD2DE9F0470B
:102B780082460F4685682846FFF79DFF044628468B
:102B8800FFF79EFF8146012C12D04FF0FF08284620
:102B9800FFF7E2FF04462846FFF7E3FF064628460C
:102BA800FFF7D5FF602F06D928B1054461240CE052
:102BB8004FF00F08EBE72846FFF7C4FF402F03D973
:102BC80010B10544412400E01135BE4208D3B44297
:102BD80010D95046FFF7AEFF00252846BDE8F0871C
:102BE8005046FFF7A7FF0025F7E70135B442F0D0BC
:102BF8000134E4B22B78FF2BF7D0BC4205D0AB7878
:102C080003EA08034B441D44F0E729465046FFF702
:102C180067FFE2E72DE9F04F85B080460D46144680
:102C28001946FFF7A3FF002848D00146D8F8080046
:102C3800FFF750FF074698F81F9098F820B098F8CB
:102C48001D102944C9B2039198F81E60A61BF6B25C
:102C5800013EF6B2A6EB0B06F6B20136F6B2CDF897
:102C680000B04B4632464046FFF7E2FE30B109F16C
:102C78000709C9F3C4094FF0000A17E098F91C00C6
:102C88001DE017F8013B00930023324629464046D1
:102C980000F0A4F80835EDB20134E4B24C45F0D3A5
:102CA8000136F6B20AF1010A5FFA8AFADA4502D267
:102CB800039D0024F2E798F91C0000E0002005B00D
:102CC800BDE8F08F2DE9F04180460C4617461E46B8
:102CD800436A98470744FFB200250AE03A4621466E
:102CE8004046FFF797FFC0B20444E4B20544EDB292
:102CF80001363378002BF1D12846BDE8F08110B5B4
:102D08000C68A04710BD38B504460D46436B022039
:102D18009847636B012098470023142229462046D0
:102D2800FFF7EDFF04F13803172229462046FFF785
:102D3800E6FF636B0020984738BD70B504460D4622
:102D4800436B02209847636B0120984700231522A4
:102D580029462046FFF7D3FF064620B9636B0020BB
:102D68009847304670BD04F138031722294620469B
:102D7800FFF7C5FFF2E700B583B002AB03F8012DFA
:102D88000F22FFF7BCFF03B05DF804FB10B580F815
:102D98002D2080F82E309DF8083080F830309DF8CE
:102DA8000C3080F82F3000F12D033B22FFF7A7FFEE
:102DB80010BD08B54168FFF7A6FF08BD10B5044669
:102DC800836903B1984761682046FFF7B6FF10BDD5
:102DD80008B50A464168FFF7CEFF08BD30B583B095
:102DE80044689DF818500195009313460A462146F9
:102DF800FFF7CCFF03B030BD70B582B0054602AC1A
:102E08001F2304F8013D0F4E4FF0FF3301222146E6
:102E18003046FFF719F905F00F038DF807304FF02A
:102E2800FF33012221463046FFF70EF92D098DF8B0
:102E380007504FF0FF33012221463046FFF704F9CF
:102E480002B070BD7803002070B582B0054602ACB0
:102E58005F2304F8013D0E4E0A2301222146304625
:102E6800FFF7F2F805F00F038DF807300A23012267
:102E780021463046FFF7E8F82D098DF807500A2358
:102E8800012221463046FFF7DFF802B070BD00BFCF
:102E98007803002008B50120FFF7AEFF0220FFF7F6
:102EA800ABFF08BD38B50546002404E0285DFFF7F0
:102EB800CBFF0134E4B22846FDF7B2F98442F5D3DA
:102EC80038BD000000B585B00246054901A801F0EB
:102ED8008BFE01A8FFF7E6FF05B05DF804FB00BF15
:102EE800CC76000808B501EB801040B260F07F0096
:102EF800C0B2FFF781FF08BD08B50D480D4B036050
:102F08000823436000238360C3604FF430220261CA
:102F18004FF480024261037643768376C376037763
:102F28004377FDF797FE00B908BD00F05DFEFBE7AB
:102F3800440200200064004010B586B000230293CC
:102F48000393049305930268274B9A4201D006B075
:102F580010BD03F5D633DA6942F00072DA61DA6936
:102F680002F000720092009A9A6942F004029A6193
:102F78009B6903F004030193019B4FF400630293E0
:102F880001230493194C02A92046FEF7ADF84FF42B
:102F980080530293022303930323059302A9204637
:102FA800FEF7A2F8002211461320FEF745F8132079
:102FB800FEF776F8002211461420FEF73DF814209B
:102FC800FEF76EF8002211461520FEF735F8152099
:102FD800FEF766F8002211461620FEF72DF8162097
:102FE800FEF75EF8B3E700BF006400400008014048
:102FF8002DE9F04389B000240494059406940794BD
:103008003A4B9A6942F010029A619A6902F01002EA
:103018000092009A9A6942F020029A619A6902F035
:1030280020020192019A9A6942F004029A619A690F
:1030380002F004020292029A9A6942F008029A6126
:103048009B6903F008030393039BDFF8AC802246D7
:103058004FF4A6414046FEF741F9254F22464FF46A
:10306800A0513846FEF73AF9DFF89090224604213D
:103078004846FEF733F942F6FF33049303250595D6
:1030880004A93846FEF730F848F23313049305953F
:1030980004A91848FEF728F816230493059504A9EF
:1030A8004046FEF721F84FF4A643049301260596FF
:1030B80006940225079504A94046FEF715F84FF433
:1030C800A053049305960694079504A93846FEF77D
:1030D8000BF80423049305960694079504A948461B
:1030E800FEF702F809B0BDE8F08300BF0010024007
:1030F8000010014000080140000C0140001401408C
:1031080008B50B480B4B03600B4B436000238360EF
:10311800C3604FF48042026143618361C36103620B
:10312800FEF73EFA00B908BD00F05EFDFBE700BF00
:103138006C02002000540040801A060010B586B0CA
:10314800002302930393049305930268114B9A4258
:1031580001D006B010BD104CA36943F00803A36169
:10316800A36903F008030093009BC0230293122372
:1031780003930323059302A90848FDF7B5FFE36904
:1031880043F40013E361E36903F400130193019B23
:10319800DFE700BF0054004000100240000C01406F
:1031A80070B588B004460D46002605960696ADF81B
:1031B8001C60CDE90045174A0A2105A801F0E0FC8A
:1031C8000A2302930196009601230422E021124863
:1031D800FEF7B6FA1148FFF7ECFD09E005AB20222F
:1031E80014210E48FFF76EFD0C48FFF7E7FD70B19C
:1031F80000220B4B20462946FDF752FC0028EDD053
:1032080005AB20221F210548FFF75CFDECE708B05D
:1032180070BD00BFD07800086C0200203C0300207D
:103228000000224010B584B004460A22029200230E
:10323800019300931346E0212248FEF781FA012CFE
:1032480018D0022C2AD00CB104B010BD1E48FFF7CC
:10325800B0FD1D4C1D4B0193402300931023002209
:1032680011462046FFF7C1FB2046FFF7A7FD0028BF
:10327800EFD1E9E71448FFF79CFD134C144B019379
:10328800402300931023002211462046FFF7ADFB90
:103298002046FFF793FD0028EFD1D5E70A48FFF74E
:1032A80088FD094C0B4B0193402300931023002207
:1032B80011462046FFF799FB2046FFF77FFD0028BF
:1032C800EFD1C1E76C0200203C030020947B00088A
:1032D800F0780008947D0008F0B589B004460D46E2
:1032E8001646002705970697ADF81C70CDE90045EE
:1032F8001D4A0A2105A801F043FC0A2302930197FD
:10330800009701231A46E0211848FEF719FA1848D1
:10331800FFF74FFD14E0174B019340230093102350
:10332800002211461248FFF760FB0BE005AB202294
:1033380014210F48FFF7C6FC0D48FFF73FFD80B189
:10334800012EE8D000220C4B20462946FDF7A8FBA9
:103358000028EBD005AB20221F210548FFF7B2FC5F
:10336800EAE709B0F0BD00BFD07800086C02002081
:103378003C030020D0760008000022400000000036
:10338800F0B589B004460D461646CDE90045384AE1
:103398000A2105A801F0F4FB3346364A0A2102A89F
:1033A80001F0EEFB3448FFF704FD20E03248334BD0
:1033B800836005AB32224821FFF784FC1FE02AA373
:1033C800D3E9002320462946FDF77EFB002830D1AB
:1033D80029482B4B83602B4B3F226821FFF772FC57
:1033E800002E2FD12448FFF7E9FC002838D000220E
:1033F800254B20462946FDF753FB0028D6D100224D
:10340800214B20462946FDF75FFB0028D7D016A39D
:10341800D3E9002320462946FDF742FB0028CED0F9
:103428001548164B836005AB32222221FFF74AFC70
:10343800C5E71148114B836005AB32220121FFF724
:1034480041FCC5E70C4F114B3F2201213846FFF7DD
:1034580039FC02AB3F2216213846FFF733FCC1E79F
:1034680009B0F0BDAFF300800000000000C0584074
:10347800D8780008CC76000800030020506C0008BB
:1034880004650008E078000800002240E878000899
:103498002DE9F04184B0804601461948FFF798FCB1
:1034A800184F4FF0FF350295002401940094012332
:1034B8001A46E0213846FEF743F9134E4146304696
:1034C800FFF786FC02950194009401230222E02173
:1034D8003846FEF735F941463046FFF779FC029544
:1034E8000194009401230422E0213846FEF728F9CC
:1034F80041463046FFF76CFC04B0BDE8F08100BFE0
:10350800000300206C0200203C03002000B585B0B9
:10351800164B1B788DF80430154B1B788DF8053049
:10352800144B1B788DF80630134B1B788DF8073039
:10353800124B1B788DF80830114B1B788DF8093029
:10354800104B1B788DF80A300F4B1B788DF80B3019
:103558000E4B1B788DF80C306423092201A90C4806
:10356800FFF7B8F905B05DF804FB00BF2F02002093
:1035780030020020280200202D0200202E02002008
:103588002A0200202B020020290200202C02002001
:1035980028040020024B1870024B1970704700BFB6
:1035A8002A0200202B02002008B5FCF793FF002216
:1035B800064BFDF723F902F007FFFDF7CDFAC0B27D
:1035C800382800D93820024B187008BD0000044084
:1035D8002F020020D0B506460F46144682B90022B5
:1035E800114BFDF70BF902F0EFFEFDF7B5FAC0B28B
:1035F800102800D910200D4B18700D4B00221A709E
:10360800012C00D0D0BD3046394602F0DDFEFDF772
:10361800A3FAC0B2032800D90320044B1870044B46
:1036280001221A70EEE700BF0000E83F2D020020DB
:103638002E0200200000000070B504460D4626A3A7
:10364800D3E90023FDF72CFA50B1002200232046CD
:103658002946FDF739FA08B1012602E0002600E004
:1036680000261DA3D3E9002320462946FDF72CFA9E
:1036780040B11BA3D3E9002320462946FDF710FAE1
:1036880000B1022616A3D3E9002320462946FDF7F8
:103698001BFA38B10022144B20462946FDF700FAE0
:1036A80000B103260022104B20462946FDF70CFAEC
:1036B80050B100220D4B20462946FDF79FF802F035
:1036C80083FEFDF749FAC6B2132E00D91326084B1C
:1036D8001E7070BDAFF30080A4703D0AD7A31A40D6
:1036E800295C8FC2F5A82A4000003440000015402C
:1036F80028020020014B1870704700BF29020020E3
:10370800024B58639863D863704700BF00040040B9
:1037180010B5074C00212046FEF7D2FF04212046B1
:10372800FEF7CEFF08212046FEF7CAFF10BD00BFF6
:10373800C002002008B5FFF7EBFF054B1878FFF72C
:10374800D9FFFFF7E3FE0020FFF7DAFF08BD00BF4F
:103758001000002000000000D0B5FF210846FFF748
:1037680019FFFFF7D3FEC820FDF760FA012406E031
:103778002046FFF7C5FF0A20FDF758FA0134204616
:10378800FCF7A8FE06460F46154B1878FCF7A2FE74
:1037980011A3D3E90023FCF707FF02460B46304686
:1037A8003946FDF77DF90028E2D100210846FFF7E8
:1037B800F1FEFFF7ABFE0A4B1878FCF78BFE06A369
:1037C800D3E90023FCF7F0FEFDF79EF9FFF798FF19
:1037D8006420FDF72BFAD0BD666666666666E63F2E
:1037E8001000002008B50138062812D8DFE800F0DC
:1037F8000412202E3C4A5800FFF74CFB00BF2F480C
:10380800FFF750FB00210120FFF76CFB2C48FFF766
:1038180049FB08BDFFF73EFB00BF2A48FFF742FB04
:1038280000210120FFF75EFB2748FFF73BFBF0E78D
:10383800FFF730FB00BF2348FFF734FB00210120CE
:10384800FFF750FB2148FFF72DFBE2E7FFF722FBCC
:1038580000BF1F48FFF726FB00210120FFF742FBAE
:103868001748FFF71FFBD4E7FFF714FB00BF194801
:10387800FFF718FB00210120FFF734FB1648FFF77C
:1038880011FBC6E7FFF706FB00BF1448FFF70AFB6A
:1038980000210120FFF726FB0F48FFF703FBB8E7DD
:1038A800FFF7F8FA00BF0E48FFF7FCFA00210120E5
:1038B800FFF718FB0848FFF7F5FAAAE7F07A0008BF
:1038C8008C7B0008007B0008107B0008207B000828
:1038D800307B0008407B00084C7B0008587B0008C0
:1038E800647B000800000000F0B583B0A24A13888A
:1038F80001331380A14A138801339BB21380032B31
:103908000BD9134600221A809D4C00229D4BD4E906
:103918000001FCF791FCC4E9000100229A4B984988
:10392800D1E90001FDF7B2F8002840F0AD80974AD0
:10393800138801339BB21380022B0BD91346002244
:103948001A80934B1B78002B40F0A780914A13787C
:10395800013313708F4B1C788C2C02D98C4B0122AD
:103968001A7014B98A4B00221A708B4B00221A70F5
:10397800874B1D7855BB894BD3E900670022884BDC
:1039880030463946FDF778F800BB7C4A1388013386
:103998009BB21380032B0CD9134600221A8072A302
:1039A800D3E9002330463946FCF748FC7B4BC3E992
:1039B800000100227A4B7949D1E90001FDF784F82A
:1039C80020B1764B00207649C3E90001012D69D06A
:1039D800744A138801339BB21380142B0FD91346F2
:1039E80000221A80704B1B78002B7BD16F4BC522AD
:1039F8001A706F4B21221A706B4B01221A706D4A94
:103A080013780133DBB21370072B02D91346002257
:103A18001A70694B1D782046FCF74CFD2A46FFF7C3
:103A2800AFFC634B1978614B1878FFF7B3FD594B1E
:103A38001878FFF7B9FD584B1A78584BD3E90001AD
:103A4800FFF7C8FD4E4BD3E90001FFF7F5FDFFF77F
:103A58005DFD584B1B782BB1022B03D0042B01D0F2
:103A6800062B0BD14C4B1A784C4BD3E90001FFF7CE
:103A780033FC434BD3E90001FFF792FB4D4B1B7816
:103A8800072B39D003B0F0BD3D4B00204B49C3E9AB
:103A980000013F4B00221A7049E73E4A1378013B68
:103AA800137057E7354A138801339BB21380032BF1
:103AB8008ED9134600221A80384D2DA3D3E900234E
:103AC800D5E90001FCF7B8FBC5E900010022002395
:103AD800FCF7DCFF00283FF47BAF00200021C5E99C
:103AE800000175E7314B45221A70314B60221A707C
:103AF8002D4B00221A7082E7314B1878FFF792FBA2
:103B0800FF20FFF7C5FCFF210846FFF743FD2D4BBB
:103B1800187828BBFFF7BEF900BF2B48FFF7C2F99A
:103B28002A4B1878FFF7CEF92948FFF7BBF9294B3C
:103B38001878FFF7C7F9284B1B68284A0A216846F6
:103B480001F01EF800210120FFF7CCF92448FFF707
:103B5800A9F96846FFF7A6F92248FFF7A3F991E704
:103B6800FFF740FE8EE700BF9A9999999999C93F46
:103B7800333333333333D33F0402002006020020AB
:103B8800080000200000E03F0000F03F080200208D
:103B98000C020020200200200E0200201802002043
:103BA800000028400A0200200D0200201002002018
:103BB80011020020120200200F02002000005940CC
:103BC8001100002021020020747B00081200002050
:103BD8007C7B00081300002024020020807B000862
:103BE800887B0008907B0008FEE700B591B00023B1
:103BF80009930B930C9301930293039304930593F6
:103C0800012206924FF4803307934FF40031089154
:103C18000A9202220D920E934FF4E0130F9306A816
:103C2800FDF758FE80B90F2301930221029100236A
:103C380003934FF480620492059301A8FEF790F86D
:103C480020B911B05DF804FBFFF7CEFFFFF7CCFFFA
:103C580008B5FCF7C7FFFFF7C8FFFFF7C9F9FFF77B
:103C68004BF9FFF74DFA00F011F800F031F800F0C9
:103C780089F900F0F3F900F00BFA00F023FAFFF7E6
:103C880059FDFFF769FDFFF72FFEFCE708B50E4861
:103C98000E4B03604FF48273436000238360C3605C
:103CA800036143614FF4007282611822C26180226D
:103CB8000262436283620A23C362FEF787F900B98E
:103CC80008BDFFF791FFFBE77803002000380040AC
:103CD80008B50E480E4B03604FF48273436000230F
:103CE8008360C360036143614FF4007282610822FC
:103CF800C2610362436283620A23C362FEF766F904
:103D080000B908BDFFF770FFFBE700BFD003002034
:103D1800003C004000B589B0002304930593069346
:103D280007930368224A934205D0224A934221D03E
:103D380009B05DF804FB204BDA6942F48042DA618D
:103D4800DA6902F480420092009A9A6942F0080205
:103D58009A619B6903F008030193019B4FF4204388
:103D68000493022305930323079304A91348FDF73B
:103D7800BBF9DDE7104BDA6942F40042DA61DA692F
:103D880002F400420292029A9A6942F008029A6189
:103D98009B6903F008030393039B282304930223DE
:103DA80005930323079304A90448FDF79DF9BFE78A
:103DB80000380040003C004000100240000C014068
:103DC80082B00E4B9A6942F001029A619A6902F038
:103DD80001020092009ADA6942F08052DA61DB69E6
:103DE80003F080530193019B054A536823F0E06375
:103DF80043F00073536002B0704700BF00100240E8
:103E0800000001407047FEE7FEE7FEE7FEE7704767
:103E18007047704708B5FCF7F7FE08BD08B50248BB
:103E2800FCF7CBFF08BD00BF4402002008B50248DC
:103E3800FCF7C3FF08BD00BF4402002008B50248D4
:103E4800FCF7BBFF08BD00BF4402002008B50248CC
:103E5800FCF7B3FF08BD00BF4402002008B50346C5
:103E68000B4A126842B10A4A106803446A469342F0
:103E780006D8074A136008BD054A06491160F2E7EB
:103E880000F0FCF90C2303604FF0FF30F3E700BFAC
:103E980034020020F00400200F4B1A6842F001029F
:103EA8001A6059680D4A0A405A601A6822F08472EA
:103EB80022F480321A601A6822F480221A605A6842
:103EC80022F4FE025A604FF41F029A60044B4FF02E
:103ED80000629A60704700BF001002400000FFF8BF
:103EE80000ED00E00268094B9A4200D0704782B0AA
:103EF80003F50333DA6942F00202DA61DB6903F0A1
:103F080002030193019B02B0704700BF0004004008
:103F180010B586B0002302930393049305930268B7
:103F2800154B9A4201D006B010BD03F503339A69C8
:103F380042F004029A619A6902F004020092009A1F
:103F48009A6942F008029A619B6903F00803019399
:103F5800019BC023029302240394059402A90748F5
:103F6800FDF7C2F8012302930394059402A90448BB
:103F7800FDF7BAF8D7E700BF000400400008014089
:103F8800000C014000B58FB000230A930B930C93EB
:103F98000D93089309930193029303930493059354
:103FA800069307932B482C4A026041F287324260FD
:103FB80083606322C26003618361FEF721FA0028EF
:103FC80032D10EA94FF4805341F8103D2148FEF735
:103FD800FAFA60BB1F48FEF72CFA58BB0023089377
:103FE800099308A91B48FEF78BFB30BB602301939C
:103FF800002202920392059201A91648FEF76AFA76
:10400800F0B904220DEB02011248FEF763FAD0B9A9
:10401800082201A90F48FEF75DFAB8B90D48FFF765
:1040280077FF0FB05DF804FBFFF7DEFDC9E7FFF788
:10403800DBFDCFE7FFF7D8FDD0E7FFF7D5FDD5E7E4
:10404800FFF7D2FDDDE7FFF7CFFDE1E7FFF7CCFD96
:10405800E4E700BFC00200200004004008B50A4899
:104068000A4B03604FF4E133436000238360C3606D
:1040780003610C2242618361C361FEF7FCFB00B956
:1040880008BDFFF7B1FDFBE76804002000380140D8
:1040980008B50A480A4B03604FF4165343600023DF
:1040A8008360C36003610C2242618361C361FEF7D0
:1040B800E2FB00B908BDFFF797FDFBE7A804002065
:1040C8000044004008B50A480A4B03604FF4E13346
:1040D800436000238360C36003610C2242618361F3
:1040E800C361FEF7C8FB00B908BDFFF77DFDFBE71C
:1040F800280400200048004010B58AB00023069329
:104108000793089309930368434A934207D0434AA5
:1041180093422ED0424A934253D00AB010BD414B2D
:104128009A6942F480429A619A6902F48042009244
:10413800009A9A6942F004029A619B6903F00403A9
:104148000193019B4FF40073069302230793032303
:104158000993354C06A92046FCF7C6FF4FF4806347
:10416800069300230793089306A92046FCF7BCFF93
:10417800D3E72C4BDA6942F40032DA61DA6902F4E7
:1041880000320292029A9A6942F004029A619B698B
:1041980003F004030393039B04230693022307936A
:1041A80003230993204C06A92046FCF79DFF08230A
:1041B800069300230793089306A92046FCF794FF6B
:1041C800ABE7184BDA6942F48022DA61DA6902F463
:1041D80080220492049A9A6942F008029A619B69C3
:1041E80003F008030593059B4FF4806306930223AD
:1041F8000793032309930D4C06A92046FCF774FF87
:104208004FF40063069300230793089306A92046FA
:10421800FCF76AFF81E700BF003801400044004016
:10422800004800400010024000080140000C014016
:10423800002103E00B4B5B58435004310A480B4BF9
:1042480042189A42F6D30A4A02E0002342F8043B95
:10425800084B9A42F9D3FFF71FFE00F015F8FFF755
:10426800F7FC70471082000800000020E8010020D9
:10427800E8010020EC040020FEE70000014B18686C
:10428800704700BF1800002070B500250C4E0D4C7B
:10429800A41BA410A54209D102F01AF900250A4E60
:1042A8000A4CA41BA410A54205D170BD56F82530B0
:1042B80098470135EEE756F8253098470135F2E77B
:1042C8000882000808820008088200080C8200089A
:1042D80003460244934200D1704703F8011BF9E7F3
:1042E800002B2DE9F0471E46BBBF03F100431E46D5
:1042F80000232D2388B0149FDDE9121A27F0200728
:10430800462F1446109D0B7004D0452F00D101355F
:10431800022300E0032307AA049206AACDE902A219
:10432800CDE900352246334600F00EFD472F804682
:1043380002D1119BDB0726D5462F08EB050911D1C1
:1043480098F80030302B0AD100220023204631464D
:10435800FCF792FB18B9C5F10105CAF80050DAF864
:10436800003099440022002320463146FCF784FBA4
:1043780038B93022079B4B4505D2591C07911A7052
:10438800F8E7CDF81C904046079B159AA3EB080365
:10439800136008B0BDE8F087F7B50029B4BF2D2336
:1043A8002B230446B8BF4942092904F8022B43705D
:1043B80021DD0DF107031F460A2691FBF6F506FBE2
:1043C8001511092D01F1300103F8011C03F1FF3229
:1043D800294609DC3031023B02F8011CBB42224667
:1043E80004D3101A03B0F0BD1346E6E713F8012B07
:1043F80004F8012BF2E7302319448370021DC170C1
:10440800EFE700002DE9F04F91B00C461A9F934654
:104418001E46054601F04CFA036818460993FBF757
:10442800FFFE00230E933B680A90073323F007032F
:1044380003F1080294F81880D4F800A03A60D3E990
:104448000023C4E91223D4E9127929F000430B931D
:104458004FF0FF32A64B38460B99FCF73FFB68BB81
:104468004FF0FF32A24B38460B99FCF719FB28BBDB
:104478000022002338464946FCF708FB10B12D23DB
:1044880084F843309B4F9C4BB8F1470F98BF1F46A9
:1044980003234FF0000923612AF0040323600096E8
:1044A8005B460FAA2146284600F0E2F9013040F0A9
:1044B80090804FF0FF3011B0BDE8F08F3A464B4680
:1044C80038464946FCF70AFB10B18C4F8C4BDBE7AA
:1044D80063684AF48062591C0DA80EA940D10623CE
:1044E80063604FF0000C0DF13303CDE901236368DD
:1044F8002260CDE9030800933A464B46CDE9051CF6
:104508002846FFF7EDFE08F0DF03472B074609D1E1
:104518000D9BD81C02DB6268934247DDA8F10208B4
:104528005FFA88F8B8F1650F0D9924D80139424629
:1045380004F150000D91FFF72FFF0E9A81461318D2
:10454800012A236102DC2268D10701D501332361E6
:104558009DF83330002BA2D02D2384F843309EE7FA
:10456800B8F1670F00F06E81B8F1470FB9D1002B91
:10457800B7D10123B4E7B8F1660F19D100296368F0
:104588000CDD216113B92268D20702D501330B442F
:1045980023610D9B4FF00009A365D9E713B9226881
:1045A800D00701D50233F3E70123F1E74FF067089D
:1045B800DDE90D32934205DB22682361D107E8D596
:1045C8000133E5E7002BCCBF0123C3F102031344F9
:1045D800DEE723685A0507D423693A465946284630
:1045E800B047013029D164E7B8F1650F40F2D780B0
:1045F800D4E9120100220023FCF73EFA88B3012314
:10460800404A59462846B04701303FF452AFDDE9E9
:104618000D239A4202DB2368D8070ED5DDE909236A
:1046280059462846B04701303FF443AF002704F10C
:104638001A080E9B013BBB4209DC23689F0700F167
:10464800FD80E0680F9B9842B8BF184633E7012306
:10465800424659462846B04701303FF42AAF013751
:10466800E7E70D9B002B2BDC0123264A59462846F9
:10467800B04701303FF41DAF0D9B23B90E9B13B912
:104688002368D907D9D5DDE9092359462846B04713
:1046980001303FF40EAF4FF0000804F11A090D9BEA
:1046A8005B42434501DC0E9B97E701234A46594686
:1046B8002846B04701303FF4FCAE08F10108EEE7A8
:1046C8000E9AA36D9A42A8BF1A46002A904607DDA3
:1046D800134659463A462846B04701303FF4E9AEFA
:1046E80004F11A034FF0000A28EAE8780B9315E062
:1046F800FFFFEF7FB07F0008AC7F0008B87F00089D
:10470800B47F0008BC7F000801230B9A594628464D
:10471800B04701303FF4CDAE0AF1010AD4F8589001
:10472800A9EB08035345EFDCDDE90D239A424F441A
:1047380014DB2368DA0711D40E9B0D99A3EB090249
:10474800A3EB01099145A8BF9146B9F1000F0DDC13
:10475800002729EAE97904F11A0818E0DDE90923B4
:1047680059462846B0470130E6D1A2E64B463A46BC
:1047780059462846B0470130EAD19AE60123424615
:1047880059462846B04701303FF493AE0137DDE97A
:104798000D239B1AA3EB0903BB42EFDC4DE70E9AEE
:1047A800012A01DCDB0738D501233A465946284659
:1047B800B04701303FF47DAEDDE90923594628466C
:1047C800B047013007F101073FF473AED4E9120195
:1047D8000E9B002203F1FF380023FCF74DF9C0B906
:1047E80043463A4659462846B04701300DD160E65F
:1047F8000123424659462846B04701303FF459AE96
:1048080001370E9B013BBB42F2DC4B4604F15002E0
:10481800E4E6002704F11A08F3E70123E1E701239E
:10482800424659462846B04701303FF442AE013768
:10483800E3680F9A9B1ABB42F1DC02E7002704F1F8
:104848001908F5E7002B3FF494AE4FF0000CCDE9C2
:10485800051C0DF133012260CDE90308CDE90121E2
:1048680000933A464B462846FFF73AFD07464FE67F
:104878002DE9F04791461F468A680B690646934220
:10488800B8BF1346C9F8003091F843200C46DDF84C
:10489800208012B10133C9F800302368990642BF5D
:1048A800D9F800300233C9F80030256815F006053C
:1048B80007D104F1190AE368D9F800209B1AAB4222
:1048C80029DC94F843302268003318BF012392068C
:1048D8002ED404F1430239463046C047013021D076
:1048E8002368E56803F00603042B18BF0025D9F8F0
:1048F80000204FF0000908BFAD1AA368226908BF5D
:1049080025EAE5759342C4BF9B1AED181A344D4544
:104918001AD1002008E00123524639463046C047E4
:10492800013003D14FF0FF30BDE8F0870135C2E711
:104938003020E11881F843005A1C94F845102244AD
:10494800023382F84310C4E7012322463946304631
:10495800C0470130E6D009F10109D8E72DE9F04355
:1049680001F1430C0C46097E85B06E2917460646B0
:1049780098460C9A00F0B38022D8632936D00AD81A
:10498800002900F0B980582900F0838004F142051D
:1049980084F8421032E0642901D06929F6D12068F0
:1049A8001368050603F104012AD51B681160002B62
:1049B80003DA2D225B4284F843206F480A2239E04B
:1049C800732900F09D8008D86F2920D07029DDD187
:1049D800236843F02003236003E0752917D0782962
:1049E800D4D17823654884F8453055E0136804F13C
:1049F8004205191D1B68116084F8423001238CE0C0
:104A08001B6810F0400F116018BF1BB2CFE7136886
:104A18002568181D1060280601D51B6802E0680685
:104A2800FBD51B886F2914BF0A220822524800218F
:104A380084F843106568002DA560C0F29580216850
:104A480021F004012160002B3DD1002D40F08E8023
:104A58006546082A0BD12368DB0708D523696268F5
:104A68009A42DEBF302305F8013C05F1FF35ACEB77
:104A780005032361CDF800803B4603AA2146304652
:104A8800FFF7F6FE01304DD14FF0FF3005B0BDE81D
:104A9800F083394884F84510136821681D1D1B6888
:104AA80015600A060BD5CA0744BF41F020012160F2
:104AB8001BB9226822F0200222601022B7E74D06B7
:104AC80048BF9BB2EFE76546B3FBF2F102FB113337
:104AD800C35C05F8013D0B460029F5D1B9E7136819
:104AE8002568181D6169106028061B6801D51960C2
:104AF80002E06A06FBD51980002365462361B9E701
:104B08001368191D11601D6862680021284600F0AD
:104B1800E5FE08B1401B606063682361002384F8E8
:104B28004330A7E723692A4639463046C047013053
:104B3800AAD023689B0713D4E068039B9842B8BFA8
:104B48001846A3E701234A4639463046C047013094
:104B58009AD00135E368039A9B1AAB42F2DCEBE783
:104B6800002504F11909F5E7002BACD1037804F10D
:104B7800420584F842306CE7BE7F0008CF7F00080A
:104B88000CB430B5174B0C1E9DB01D6808DA8B238A
:104B98004FF0FF302B601DB0BDE8304002B07047C9
:104BA8004FF40273ADF814300CBF234604F1FF3301
:104BB800049307934FF6FF7302900690ADF81630F2
:104BC800209A21AB02A92846019301F08BFA431CD5
:104BD800BCBF8B232B60002CDDD00022029B1A70F7
:104BE800D9E700BF180000200EB46FF0004100B5EF
:104BF8009CB01DAB029006900791049108480949A2
:104C080053F8042B0591006802A9019301F06AFA90
:104C18000022029B1A701CB05DF804EB03B07047C9
:104C2800180000200802FFFF2DE9F74F03690C69FF
:104C38008046A342C0F28480013C01F1140700F1D0
:104C4800140657F8245056F824000135B0FBF5F542
:104C58004FEA840C06EB0C0307EB0C0901939DB398
:104C68004FF0000A3846B646D34650F8042B93B2A4
:104C780005FB03A3120C4FEA134A05FB02A29BB2E1
:104C8800ABEB0303DEF800B04FEA124A1FFA8BFBC6
:104C98005B441FFA82FBDEF800208145CBEB124211
:104CA80002EB23429BB243EA02434FEA224B4EF8FF
:104CB800043BDAD256F80C3033B9019B043B9E42D0
:104CC8001A4631D3C8F81040404601F035F800289C
:104CD80026DB30464FF0000C013557F8041BD0F89E
:104CE80000E08BB2ACEB03031FFA8EF213440A0CFC
:104CF800C2EB1E4202EB23429BB243EA0243B94590
:104D08004FEA224C40F8043BE7D256F8242006EB41
:104D180084032AB9043B9E421A460BD3C8F81040B4
:104D2800284603B0BDE8F08F1268043B002AC9D1B9
:104D3800013CC4E71268043B002AEFD1013CEAE7D2
:104D48000020EEE7000000002DE9F04F16461F4650
:104D5800456A95B00446DDF88480CDE902673DB91F
:104D6800102000F0B3FD6062C0E901550560C56020
:104D7800636A196851B15A68012393404A608B608D
:104D8800204600F0F8FD0022636A1A603B1EAFBFA0
:104D98000023012223F000430393ACBFC8F800307E
:104DA800C8F80020AE4BDDF80C8033EA08031BD1AD
:104DB80042F20F73209A1360029B23B9C8F31300C1
:104DC800002800F04585229B53B9A64B21E0A64B4D
:104DD80006930833229A1360069815B0BDE8F08F41
:104DE800A04B06930333F5E7DDE9026700220023B1
:104DF80030463946FBF740FE824660B10123209ACF
:104E08001360229B002B00F02085984B229A136098
:104E1800013B0693E0E712AB019313AB00933246D4
:104E28003B46204601F000F8C8F30A558346002D9A
:104E38007DD0B046C7F3130343F07F5949F44019B6
:104E4800A5F2FF35CDF840A00022894B40464946DF
:104E5800FBF7F2F97CA3D3E90023FBF7A5FB7CA3BE
:104E6800D3E90023FBF7EAF9064628460F46FBF785
:104E780031FB79A3D3E90023FBF796FB02460B46E7
:104E880030463946FBF7DAF906460F46FBF73CFE93
:104E980000228246002330463946FBF7F7FD48B129
:104EA8005046FBF717FB32463B46FBF7E5FD08B9D2
:104EB8000AF1FF3ABAF1160F5AD8DDE902236D4913
:104EC80001EBCA01D1E90001FBF7FEFD002851D032
:104ED80000230AF1FF3A0D93129B5D1B6B1E07938B
:104EE80043BF0023C5F1010907934FF00009BAF148
:104EF800000F41DB079BCDF830A0534407930023F4
:104F080008931E9B092B00F28F80052BC4BF043B1E
:104F18001E931E9BC8BF0025A3F10203D8BF01251D
:104F2800032B00F28D80DFE803F07B7D2F6FDDE936
:104F380012531D4405F23240202813DDC0F1400011
:104F4800029B08FA00F805F2124023FA00F048EA3A
:104F58000000FBF7AFFA01238046A1F1F879013D83
:104F6800109371E7029BC0F1200003FA00F0F0E70C
:104F78000123B0E70D90AFE7CAF1000308930023BF
:104F8800A9EB0A090C93BCE7012309931F9B002B8B
:104F980074DD984604930022666A7260042202F166
:104FA8001400984271686ED9204600F0B0FC636A1C
:104FB80030601B68B8F10E0F069300F2ED80002DEB
:104FC80000F0EA80DDE90223BAF1000FCDE90E23F3
:104FD80077DD284A0AF00F034FEA2A1602EBC303CB
:104FE800F006D3E90023CDE90A2368D5DDE90E01EF
:104FF800214B0325D3E90823FBF700FCCDE9020187
:1050080006F00F061C4F4FE0012309931F9B5344E2
:1050180003F1010804934346012BB8BF0123BAE703
:105028000023B2E70023F0E70125002309951E932A
:105038004FF0FF3300220493984612231F92AAE7E9
:1050480001230993F4E700BF61436F63A787D23F49
:10505800B3C8608B288AC63FFB799F501344D33F5F
:105068000000F07FE97F0008E07F0008BD7F0008AE
:105078000000F83F18800008F07F0008012304931F
:1050880098461A46DAE701317160520087E7F1075E
:1050980008D5DDE90A01D7E90023FBF785FACDE950
:1050A8000A01013576100837002EF0D1DDE90A2310
:1050B800DDE90201FBF7A2FBCDE902011BE00225B5
:1050C800A0E700F0A480DDE90E01CAF10006A04BBC
:1050D80006F00F0203EBC203D3E90023FBF764FADF
:1050E80002250023CDE902019A4F3611002E40F027
:1050F8008380002BE0D10D9B002B00F08A80DDE936
:105108000223CDE90A23DDE90A010022924BFBF7CD
:10511800BDFC00287DD0B8F1000F7AD0049B002B8D
:1051280036DDDDE90A0100228C4BFBF73DFACDE9BB
:105138000201049E0AF1FF3701352846FBF7CAF938
:10514800DDE90223FBF730FA0022854BFBF776F8FE
:10515800A1F15075CDE90A010B95002E5CD1DDE96E
:10516800020100227F4BFBF767F80A9A2B46CDE92C
:105178000201FBF7A9FC002840F08182DDE9020169
:105188000A9A05F10043FBF781FC002840F075827C
:10519800DDE90E23CDE90223139B002BC0F24B81DE
:1051A800BAF10E0F00F34781694B03EBCA03D3E949
:1051B8000023CDE904231F9B002B80F2D780B8F190
:1051C800000F00F3D38040F05782DDE9040100228C
:1051D800644BFBF7E9F9DDE90223FBF76BFC464674
:1051E8004746002840F02D82069B069A5D1C312315
:1051F8000AF1010A137028E2F20705D5D7E900235E
:10520800FBF7D2F901230135761008376EE702253E
:1052180071E75746464690E74D4B03EBC60353E903
:105228000201099B002B48D002460B4600204E493C
:10523800FBF7E4FADDE90A23FAF7FEFFCDE90A01F4
:10524800069DDDE90201FBF75FFC1190FBF742F9CF
:1052580002460B46DDE90201FAF7EEFF119BCDE9A4
:105268000201303305F8013BDDE90A23FBF70EFCA8
:10527800002863D1DDE9022300203749FAF7DCFF73
:10528800DDE90A23FBF702FC002840F0B580069B05
:10529800EB1A9E427FF77CAFDDE90A0100222F4B13
:1052A800FBF782F90022CDE90A01DDE902012B4B67
:1052B800FBF77AF9CDE90201C3E7DDE90A23FBF739
:1052C80073F9069BCDE90A019D191E46DDE9020125
:1052D800FBF71AFC1190FBF7FDF802460B46DDE9D7
:1052E8000201FAF7A9FF119BCDE90201303306F854
:1052F800013BAE424FF0000224D1DDE90A011A4B0E
:10530800FAF79CFF02460B46DDE90201FBF7DCFBDE
:10531800002871D1DDE90A2300201349FAF78CFF30
:1053280002460B46DDE90201FBF7B0FB00283FF41B
:105338002FAF15F8013C6A1E302B01D0BA464AE05F
:105348001546F6E7054BFBF72FF9CDE90201BDE756
:1053580018800008F07F00080000F03F000024409B
:1053680000001C40000014400000E03F069DDDE9FD
:105378000267DDE9042330463946FBF73FFAFBF7BD
:10538800C3FB8146FBF7A6F8DDE90423FBF70CF91C
:1053980002460B4630463946FAF74EFF09F1300609
:1053A80005F8016B069E0246AE1BB0450B4635D18B
:1053B800FAF744FFDDE9042306460F46FBF784FBB2
:1053C800C8B9DDE9042330463946FBF755FB10B16F
:1053D80019F0010F0FD15946204600F0CCFA0023EE
:1053E800209A2B700AF101031360229B002B3FF4D3
:1053F800F3AC1D60F0E4574615F8012C6B1E392AF2
:1054080006D1069A9A4207D1302313701346013702
:105418001A7801321A7091E71D46EDE70022994B80
:10542800FBF7C2F80022002306460F46FBF724FBD1
:1054380000289ED0CFE7099A002A00F088801E9A9B
:10544800012A6DDC109A002A66D003F233434D46D8
:10545800089E079A01211A4420469944079200F0B1
:105468002AFB0746002D0BDD079B002B08DDAB420E
:10547800A8BF2B46079AA9EB0309ED1AD31A07937D
:10548800089BEBB1099B002B65D08EB1394632469B
:10549800204600F0AFFB5A4601460746204600F07A
:1054A80013FB59460A90204600F065FA0A9B9B4672
:1054B800089B9A1B04D05946204600F09BFB834664
:1054C8000121204600F0F7FA0C9B0646002B00F05D
:1054D800C6811A460146204600F08CFB1E9B0646F4
:1054E800012B3EDC029B002B37D1039BC3F3130334
:1054F800002B34D1039B23F000431B0D1B052BB15C
:10550800079B09F1010901330793012308930C9BB9
:10551800002B28D101202EE0129BC3F1360396E719
:10552800089B08F1FF36B342B7BF089B9E1BF21ACF
:105538000C9BBFBF08969B180C930026B8F1000F70
:10554800B9BFA9EB080500234D46434681E7089EED
:105558004D46099F86E7089AADE70023D6E7029BE8
:10556800D4E700230893336906EB8303186900F036
:1055780054FAC0F12000079B184410F01F0047D0D0
:10558800C0F12003042B3BDD079BC0F11C008144C4
:10559800054403440793B9F1000F05DD59464A460F
:1055A800204600F075FB8346079B002B05DD31463E
:1055B8001A46204600F06CFB06460D9B53B3314655
:1055C800584600F0B9FB002824DA002359460A227D
:1055D800204600F0E7F9099B0AF1FF3A8346002BC1
:1055E80000F04481002339460A22204600F0DAF907
:1055F800049B0746002B4DDC1E9B022B4ADD11E065
:10560800C9D0079A1C331A4499441D441346C1E76C
:105618000346F6E7B8F1000F36DC1E9B022B33DD9C
:10562800CDF81080049B63B931460522204600F06E
:10563800B9F901460646584600F07EFB00283FF7B8
:10564800D3AD1F9B069D6FEA030A4FF00009314650
:10565800204600F090F9002F3FF4BDAEB9F1000FDD
:1056680005D0B94503D04946204600F084F93946AB
:10567800204600F080F9AEE600263746E1E7BA4654
:105688003746B1E500002440099BCDF81080002B77
:1056980000F0F380002D05DD39462A46204600F04B
:1056A800F7FA0746089B002B4CD07968204600F093
:1056B8002EF905463A6907F10C01023292000C30C6
:1056C80000F01AF901222946204600F0E1FAB9460D
:1056D8000746069B0793029B03F001030893314694
:1056E8005846FFF7A1FA4946054600F130085846E2
:1056F80000F022FB3A4602903146204600F036FB85
:10570800C368024603BB01460990584600F014FBE3
:105718000346099A11462046099300F02CF9099B83
:10572800A3B91E9A92B9089A82B9B8F1390F29D04B
:10573800029B002B01DD05F13108079B5D1C83F8F6
:10574800008084E73846C2E70123E3E7029A002A8B
:1057580004DB23D11E9A0ABB089AFAB9002BECDDA8
:1057680059460122204600F093FA3146834600F05C
:10577800E3FA002803DCE0D118F0010FDDD0B8F11E
:10578800390FD8D1079B079A5D1C3923137015F878
:10579800013C6A1E392B4DD0013352E0079A002B89
:1057A80002F1010506DDB8F1390FEBD008F1010867
:1057B800079BC4E7069B049AEB1A934205F8018CF1
:1057C80021D0594600230A22204600F0EBF8B945BB
:1057D80083464FF000034FF00A024946204605D1A0
:1057E80000F0E0F881460746079578E700F0DAF818
:1057F8003946814600230A22204600F0D3F807469E
:10580800F2E74FF0000959460122204600F040FA1D
:105818003146834600F090FA0028B8DC02D118F02F
:10582800010FB4D115F8013C6A1E302B7FF40FAF7D
:105838001546F7E7069B934205D13123069A0AF1EC
:10584800010A137003E71546A1E7174BFFF7E1BA02
:10585800229B002B7FF4BBAA144BFFF7DABA1E9BDE
:10586800012B7FF73FAE0C9B089353E6049B002B5C
:1058780003DC1E9B022B3FF7D5AE069D31465846EA
:10588800FFF7D2F9069B00F1300805F8018B049A5E
:10589800EB1A9A42B5DD594600230A22204600F049
:1058A80081F88346EAE700BFBC7F0008E07F000874
:1058B800044B1B68186A044B002808BF1846F030D0
:1058C800704700BF180000207C000020024B0146F2
:1058D800186800F053BB00BF1800002010B5C9B20B
:1058E80002449042034601D1002303E01C780130B2
:1058F8008C42F6D1184610BD10B5431E0A44914299
:1059080000D110BD11F8014B03F8014FF7E770B54E
:10591800456A04460E463DB91020FFF7D7FF60627E
:10592800C0E901550560C560656AEB6883B1636AC3
:10593800DB6853F82600B8B9012101FA06F56A1D9B
:105948009200204600F0BFFA60B1C0E901650EE0A0
:1059580021220421204600F0B6FA636AE860DB6879
:10596800002BE4D1002070BD026843F826200023F4
:10597800C0E90333F7E770B5446A06460D463CB9FB
:105988001020FFF7A3FF7062C0E901440460C460FF
:105998003DB1736A6A68DB6853F82210296043F8DE
:1059A800225070BD2DE9F0411F4606460C460023E3
:1059B8000D6901F1140CDCF80000013381B202FB1F
:1059C8000171000C0F0C02FB007089B201EB004161
:1059D8009D424FEA10474CF8041BECDCD7B1A36892
:1059E800AB4212DC616830460131FFF790FF804618
:1059F800226904F10C01023292000C30FFF77CFF9F
:105A080021463046FFF7B7FF444604EB85030135CE
:105A18005F6125612046BDE8F081020C120403464F
:105A2800B2B90304102013F07F4F04BF1B020830E3
:105A380013F0704F04BF1B01043013F0404F04BF34
:105A48009B000230002B06DB5B0003D5013070475A
:105A58000020E8E7202070470368014613F007029A
:105A68000BD0DA0723D4980749BF5B089B080120AD
:105A78000B605CBF0B600220704798B2A8B9102079
:105A88001B0C13F0FF0F04BF1B0A08301A0704BFD2
:105A98001B0904309A0704BF9B080230DA0702D4B6
:105AA8005B0806D001300B6070471046E9E700201C
:105AB80070472020704710B50C460121FFF727FFDB
:105AC80001224461026110BD2DE9F74F14460A69AD
