:020000040800F2
:100000000000012065500008D14C0008D34C0008C6
:10001000D54C0008D74C0008D94C0008000000005F
:10002000000000000000000000000000DB4C0008A1
:10003000DD4C000800000000DF4C0008E14C000827
:10004000AD500008AD500008AD500008AD5000089C
:10005000AD500008AD500008AD500008AD5000088C
:10006000AD500008AD500008AD500008AD5000087C
:10007000AD500008AD500008AD500008AD5000086C
:10008000AD500008AD500008AD500008E94C000824
:10009000F94C0008094D0008194D0008AD50000842
:1000A000AD500008AD500008AD500008AD5000083C
:1000B000AD500008AD500008AD500008AD5000082C
:1000C000AD500008AD500008AD500008AD5000081C
:1000D000AD500008AD500008AD500008AD5000080C
:1000E000AD500008AD500008AD500008AD500008FC
:1000F000AD500008AD500008AD500008AD500008EC
:10010000AD500008AD500008AD500008AD500008DB
:10011000AD500008AD500008AD500008AD500008CB
:10012000AD500008AD500008AD500008AD500008BB
:1001300000000000000000000000000000000000BF
:1001400000000000000000000000000000000000AF
:10015000000000000000000000000000000000009F
:10016000000000000000000000000000000000008F
:10017000000000000000000000000000000000007F
:10018000000000000000000000000000000000006F
:10019000000000000000000000000000000000005F
:1001A000000000000000000000000000000000004F
:1001B000000000000000000000000000000000003F
:1001C000000000000000000000000000000000002F
:1001D000000000000000000000000000000000001F
:0401E0005FF8E0F1F3
:1001E80010B5054C237833B9044B13B10448AFF369
:1001F80000800123237010BD1802002000000000B9
:100208000073000808B5034B1BB103490348AFF35B
:10021800008008BD000000001C02002000730008D8
:10022800034613F8012B002AFBD1181A013870472E
:1002380081F0004102E000BF83F0004330B54FEA8F
:1002480041044FEA430594EA050F08BF90EA020FFC
:100258001FBF54EA000C55EA020C7FEA645C7FEA8F
:10026800655C00F0E2804FEA5454D4EB5555B8BFB2
:100278006D420CDD2C4480EA020281EA030382EA23
:10028800000083EA010180EA020281EA0303362DB5
:1002980088BF30BD11F0004F4FEA01314FF4801C88
:1002A8004CEA113102D0404261EB410113F0004F9A
:1002B8004FEA03334CEA133302D0524263EB430351
:1002C80094EA050F00F0A780A4F10104D5F1200EEF
:1002D8000DDB02FA0EFC22FA05F2801841F100014A
:1002E80003FA0EF2801843FA05F359410EE0A5F11E
:1002F80020050EF1200E012A03FA0EFC28BF4CF04F
:10030800020C43FA05F3C01851EBE37101F0004504
:1003180007D54FF0000EDCF1000C7EEB00006EEB11
:100328000101B1F5801F1BD3B1F5001F0CD349089B
:100338005FEA30004FEA3C0C04F101044FEA4452F2
:1003480012F5800F80F09A80BCF1004F08BF5FEA79
:10035800500C50F1000041EB045141EA050130BD59
:100368005FEA4C0C404141EB010111F4801FA4F1FC
:100378000104E9D191F0000F04BF01460020B1FA51
:1003880081F308BF2033A3F10B03B3F120020CDA89
:100398000C3208DD02F1140CC2F10C0201FA0CF067
:1003A80021FA02F10CE002F11402D8BFC2F1200CCC
:1003B80001FA02F120FA0CFCDCBF41EA0C01904082
:1003C800E41AA2BF01EB0451294330BD6FEA0404CB
:1003D8001F3C1CDA0C340EDC04F11404C4F12002B6
:1003E80020FA04F001FA02F340EA030021FA04F3C8
:1003F80045EA030130BDC4F10C04C4F1200220FA1F
:1004080002F001FA04F340EA0300294630BD21FA5C
:1004180004F0294630BD94F0000F83F4801306BF22
:1004280081F480110134013D4EE77FEA645C18BF16
:100438007FEA655C29D094EA050F08BF90EA020FAD
:1004480005D054EA000C04BF1946104630BD91EAA5
:10045800030F1EBF0021002030BD5FEA545C05D1A8
:100468004000494128BF41F0004130BD14F58004E7
:100478003CBF01F5801130BD01F0004545F0FE415B
:1004880041F470014FF0000030BD7FEA645C1ABF90
:10049800194610467FEA655C1CBF0B46024650EAC7
:1004A800013406BF52EA033591EA030F41F40021F3
:1004B80030BD00BF90F0000F04BF0021704730B579
:1004C8004FF4806404F132044FF000054FF000014E
:1004D80050E700BF90F0000F04BF0021704730B50F
:1004E8004FF4806404F1320410F0004548BF4042E4
:1004F8004FF000013EE700BF42004FEAE2014FEA39
:1005080031014FEA02701FBF12F07F4393F07F4F13
:1005180081F06051704732F07F4208BF704793F016
:100528007F4F04BF41F40021704730B54FF4607429
:1005380001F0004521F000411CE700BF50EA01022C
:1005480008BF704730B54FF000050AE050EA0102D5
:1005580008BF704730B511F0004502D5404261EB45
:1005680041014FF4806404F132045FEA915C3FF486
:10057800D8AE4FF003025FEADC0C18BF03325FEA23
:10058800DC0C18BF033202EBDC02C2F1200300FAD4
:1005980003FC20FA02F001FA03FE40EA0E0021FAF9
:1005A80002F11444BDE600BF70B54FF0FF0C4CF4E7
:1005B800E06C1CEA11541DBF1CEA135594EA0C0F99
:1005C80095EA0C0F00F0DEF82C4481EA030621EAD4
:1005D8004C5123EA4C5350EA013518BF52EA03350F
:1005E80041F4801143F4801338D0A0FB02CE4FF0C1
:1005F8000005E1FB02E506F00042E0FB03E54FF0F1
:100608000006E1FB03569CF0000F18BF4EF0010EE8
:10061800A4F1FF04B6F5007F64F5407404D25FEAE4
:100628004E0E6D4146EB060642EAC62141EA555197
:100638004FEAC52040EA5E504FEACE2EB4F1FD0CD9
:1006480088BFBCF5E06F1ED8BEF1004F08BF5FEA57
:10065800500E50F1000041EB045170BD06F0004609
:1006680046EA010140EA020081EA0301B4EB5C04B6
:10067800C2BFD4EB0C0541EA045170BD41F48011AE
:100688004FF0000E013C00F3AB8014F1360FDEBFD3
:10069800002001F0004170BDC4F10004203C35DAAF
:1006A8000C341BDC04F11404C4F1200500FA05F332
:1006B80020FA04F001FA05F240EA020001F00042D3
:1006C80021F0004110EBD37021FA04F642EB060149
:1006D8005EEA430E08BF20EAD37070BDC4F10C0473
:1006E800C4F1200500FA04F320FA05F001FA04F237
:1006F80040EA020001F0004110EBD37041F1000123
:100708005EEA430E08BF20EAD37070BDC4F120052D
:1007180000FA05F24EEA020E20FA04F301FA05F295
:1007280043EA020321FA04F001F0004121FA04F23D
:1007380020EA020000EBD3705EEA430E08BF20EA0D
:10074800D37070BD94F0000F0FD101F00046400047
:1007580041EB010111F4801F08BF013CF7D041EAC9
:10076800060195F0000F18BF704703F000465200CD
:1007780043EB030313F4801F08BF013DF7D043EA9E
:100788000603704794EA0C0F0CEA135518BF95EA54
:100798000C0F0CD050EA410618BF52EA4306D1D1DB
:1007A80081EA030101F000414FF0000070BD50EAFA
:1007B800410606BF1046194652EA430619D094EA84
:1007C8000C0F02D150EA013613D195EA0C0F05D16E
:1007D80052EA03361CBF104619460AD181EA0301C2
:1007E80001F0004141F0FE4141F470014FF000007A
:1007F80070BD41F0FE4141F4780170BD70B54FF015
:10080800FF0C4CF4E06C1CEA11541DBF1CEA135594
:1008180094EA0C0F95EA0C0F00F0A7F8A4EB050476
:1008280081EA030E52EA03354FEA013100F088806D
:100838004FEA03334FF0805545EA131343EA126336
:100848004FEA022245EA111545EA10654FEA0026EB
:100858000EF000419D4208BF964244F1FD0404F5A4
:10086800407402D25B084FEA3202B61A65EB030500
:100878005B084FEA32024FF480104FF4002CB6EBBD
:10088800020E75EB030E22BFB61A754640EA0C003D
:100898005B084FEA3202B6EB020E75EB030E22BF7D
:1008A800B61A754640EA5C005B084FEA3202B6EBBE
:1008B800020E75EB030E22BFB61A754640EA9C007D
:1008C8005B084FEA3202B6EB020E75EB030E22BF4D
:1008D800B61A754640EADC0055EA060E18D04FEA0B
:1008E800051545EA16754FEA06164FEAC30343EAAB
:1008F80052734FEAC2025FEA1C1CC0D111F4801F78
:100908000BD141EA00014FF000004FF0004CB6E770
:1009180011F4801F04BF01430020B4F1FD0C88BF0F
:10092800BCF5E06F3FF6AFAEB5EB030C04BFB6EB1A
:10093800020C5FEA500C50F1000041EB045170BD0D
:100948000EF0004E4EEA113114EB5C04C2BFD4EB3A
:100958000C0541EA045170BD41F480114FF0000EBE
:10096800013C90E645EA060E8DE60CEA135594EA3A
:100978000C0F08BF95EA0C0F3FF43BAF94EA0C0F3D
:100988000AD150EA01347FF434AF95EA0C0F7FF4B2
:1009980025AF104619462CE795EA0C0F06D152EA06
:1009A80003353FF4FDAE1046194622E750EA4106EA
:1009B80018BF52EA43067FF4C5AE50EA41047FF4FB
:1009C8000DAF52EA43057FF4EBAE12E74FF0FF3C60
:1009D80006E000BF4FF0010C02E000BF4FF0010C31
:1009E8004DF804CD4FEA410C7FEA6C5C4FEA430CAA
:1009F80018BF7FEA6C5C1BD001B050EA410C0CBFF9
:100A080052EA430C91EA030F02BF90EA020F00205A
:100A1800704710F1000F91EA030F58BF994208BFC1
:100A280090422CBFD8176FEAE37040F0010070477E
:100A38004FEA410C7FEA6C5C02D150EA013C07D1D5
:100A48004FEA430C7FEA6C5CD6D152EA033CD3D020
:100A58005DF8040B704700BF8446104662468C461A
:100A68001946634600E000BF01B5FFF7B7FF00284D
:100A780048BF10F1000F01BD4DF808EDFFF7F4FF76
:100A88000CBF012000205DF808FB00BF4DF808ED01
:100A9800FFF7EAFF34BF012000205DF808FB00BF24
:100AA8004DF808EDFFF7E0FF94BF012000205DF846
:100AB80008FB00BF4DF808EDFFF7CEFF94BF0120FB
:100AC80000205DF808FB00BF4DF808EDFFF7C4FFF4
:100AD80034BF012000205DF808FB00BF4FEA410C3D
:100AE8007FEA6C5C02D150EA013C0AD14FEA430C20
:100AF8007FEA6C5C02D152EA033C02D14FF000005D
:100B080070474FF0010070474FEA410212F500129A
:100B180015D211D56FF47873B3EB625212D94FEA3C
:100B2800C12343F0004343EA505311F0004F23FA26
:100B380002F018BF404270474FF00000704750EA7B
:100B4800013005D111F0004008BF6FF00040704738
:100B58004FF00000704700BF4A0011D212F5001292
:100B680011D20DD56FF47873B3EB62520ED44FEAFD
:100B7800C12343F0004343EA505323FA02F070477D
:100B88004FF00000704750EA013002D14FF0FF30BB
:100B980070474FF00000704710B504460E4B1878A8
:100BA8004FF47A73B3FBF0F30C4A1068B0FBF3F020
:100BB80000F084FA68B90F2C01D901200AE000225C
:100BC80021464FF0FF3000F037FA054B1C6000203B
:100BD80000E0012010BD00BF0000002044000020FC
:100BE8000400002008B5074A136843F01003136097
:100BF800032000F00FFA0020FFF7CEFF04F042F8C0
:100C0800002008BD00200240034A1168034B1B78EE
:100C18000B441360704700BFF80300200000002059
:100C2800014B1868704700BFF803002038B5044628
:100C3800FFF7F6FF0546B4F1FF3F02D0044B1B78DF
:100C48001C44FFF7EDFF401BA042FAD338BD00BF9C
:100C580000000020002800F0A18038B5044690F874
:100C68002030D3B12268136823F002031360FFF722
:100C7800D7FF054623685A6812F0020F10D0FFF715
:100C8800CFFF401B0A28F5D9636A43F40033636237
:100C9800052384F82030012038BD02F07BFFE1E70E
:100CA8001A6842F001021A60FFF7BAFF0546236886
:100CB8005A6812F0010F0DD1FFF7B2FF401B0A2846
:100CC800F5D9636A43F400336362052384F820305E
:100CD8000120E1E7227E012A3DD01A6822F0800235
:100CE8001A60637E012B3BD02268136823F040030F
:100CF8001360A37E012B39D02268136823F02003E8
:100D08001360E37E012B37D02268136843F0100389
:100D18001360237F012B35D02268136823F0080362
:100D28001360637F012B33D02268136823F0040318
:100D38001360A368E268134322691343626913438B
:100D48006268013A21681343CB6100206062012385
:100D580084F82030A0E71A6842F080021A60C0E7E1
:100D68002268136843F040031360C2E722681368DF
:100D780043F020031360C4E72268136823F01003CC
:100D88001360C6E72268136843F008031360C8E7D6
:100D98002268136843F004031360CAE70120704710
:100DA8007047704770477047704770477047704783
:100DB800704770477047704770472DE9F84F0546F0
:100DC80003685C695F689E68D3F80C90D3F810805C
:100DD800D3F818A014F0010F5AD016F0010F17D04D
:100DE80001229A6016F0020F08D116F0040F30D1D4
:100DF80016F0080F07D04FF4805B0BE0FFF7D0FF29
:100E08004FF0000B06E0FFF7CEFF4FF0000B01E0BC
:100E18004FF0000B16F4807F0BD02B684FF48072D4
:100E28009A6016F4007F17D116F4806F18D04BF42F
:100E3800005B16F4803F2DD02B684FF480329A6007
:100E480016F4003F16D116F4802F17D04BF4004B40
:100E580020E04FF4006BDDE72846FFF7A2FFE8E744
:100E680016F4006F02D04BF4804BE2E72846FFF7F8
:100E78009BFFDEE72846FFF795FF0BE016F4002FEF
:100E880002D04BF4803B05E02846FFF78EFF01E0D7
:100E98004FF0000B14F0080F07D019F0100F04D012
:100EA8004BF4007B2B681022DA6014F0040F02D098
:100EB80019F0080F60D114F0020F04D02B68DB681A
:100EC80013F0030F5FD114F0400F07D018F0100F84
:100ED80004D04BF4806B2B6810221A6114F0200F99
:100EE80002D018F0080F52D114F0100F04D02B685C
:100EF8001B6913F0030F51D114F4003F02D017F00F
:100F0800100F4FD114F4803F02D017F0080F50D1C2
:100F180014F4004F67D017F0040F61D014F4807FE9
:100F280004D01AF0010F01D04BF0010B14F4007F2C
:100F380004D01AF0020F01D04BF0020B14F4806FAA
:100F480004D01AF0040F01D04BF0040B14F4006F16
:100F580046D01AF0700A43D0BAF1300F48D02FD9D2
:100F6800BAF1500F47D0BAF1600F47D0BAF1400F2D
:100F780031D14BF0400B2EE02B680822DA6028466E
:100F8800FFF715FF97E72846FFF710FF9BE72B6849
:100F980008221A612846FFF70CFFA5E72846FFF745
:100FA80007FFA9E72B6810225A602846FFF702FFBF
:100FB800A8E72B6808225A602846FFF7FCFEA7E737
:100FC800BAF1100F05D0BAF1200F04D14BF0100B75
:100FD80001E04BF0080B2A68936923F070039361D2
:100FE8002B6804225A60BBF1000F0AD1BDE8F88FC4
:100FF8004BF0200BEFE74BF0800BECE74BF4807BDA
:10100800E9E76B6A43EA0B036B622846FFF7D4FEF5
:10101800ECE70000074AD36823F4E0631B041B0CC9
:10102800000200F4E060184340F0BF6040F4003074
:10103800D060704700ED00E030B4174BDB68C3F3B5
:101048000223C3F10704042C28BF04241D1D062D08
:1010580018D9033B4FF0FF3505FA04F421EA0401DF
:10106800994005FA03F322EA0303194300280BDB2E
:101078000901C9B200F1604000F5614080F8001331
:1010880030BC70470023E5E700F00F000901C9B242
:10109800024B1954F4E700BF00ED00E014ED00E046
:1010A800002807DB00F01F02400901239340024A91
:1010B80042F82030704700BF00E100E00138B0F18D
:1010C800807F0AD2064B5860064AF02182F8231026
:1010D8000020986007221A6070470120704700BFFF
:1010E80010E000E000ED00E0F0B482B000263246E7
:1010F800ABE0002D63D0012D00D1CE68FF2B72D854
:101108008446FF2B72D89500DCF800400F27AF40CB
:1011180024EA070406FA05F52C43CCF800404C688D
:1011280014F0805F00F09080664CA56945F00105D9
:10113800A561A46904F001040194019C9508AF1C01
:10114800614C54F827C002F00304A7000F24BC40E8
:101158002CEA040C5D4CA0424ED004F58064A042F9
:1011680000F08C8004F58064A04200F0898004F5CA
:101178008064A04200F0868004F58064A04200F0FC
:10118800838004F58064A04234D0062435E0504FB3
:10119800BD4214D00BD94F4FBD4210D007F5803750
:1011A800BD420CD0A7F58017BD42A7D107E0A7F52F
:1011B8008017BD4203D007F58037BD429ED18D68A8
:1011C8007DB1012D08D04461082697E7CE6808361E
:1011D80094E7CE680C3691E7046108268EE700266E
:1011E8008CE704268AE700F1040C8AE7A2F10805D7
:1011F800AD0089E7052400E00024BC4044EA0C0463
:101208000235314F47F825404C6814F4803F3DD0F3
:10121800314D2C681C432C604C6814F4003F3BD0C3
:101228002D4D6C681C436C604C6814F4801F39D0D9
:10123800294DAC681C43AC604C6814F4001F37D0CF
:10124800254DEC682343EB6001320B6833FA02F456
:1012580034D00124944023409C42F5D14D68122D8E
:10126800B7D094D8022DB1D07FF643AF032DB6D0B6
:10127800112D7FF443AFCE6804363FE70124BCE765
:101288000224BAE70324B8E70424B6E7124D2C6811
:1012980024EA03042C60BFE70F4D6C6824EA0304BA
:1012A8006C60C1E70C4DAC6824EA0304AC60C3E78A
:1012B800094DEC6824EA0303EB60C5E702B0F0BC13
:1012C800704700BF001002400000014000080140C4
:1012D80000002110000031100004014012B9090477
:1012E800016170470161704703685A6912F4806FA1
:1012F80011D06FF480625A6100230363202280F8C2
:101308003D2080F83E30026C42F00402026480F80E
:101318003C300120704700207047F8B506460C465F
:1013280017461D4622E0FFF77BFC069BC01AA84221
:1013380000D8DDB900233363202286F83D2086F8E3
:101348003E30326C42F02002326486F83C30012094
:101358001AE033685B6924EA03039BB2B3FA83F3A8
:101368005B099F420FD1B5F1FF3FDCD1C4F30743BE
:10137800012BEED033689B6924EA03039BB2B3FACE
:1013880083F35B09EDE70020F8BDF8B504460D4688
:1013980016461F463CE01A6842F400721A60236839
:1013A8006FF480625A6100232363202284F83D2071
:1013B80084F83E30226C42F00402226484F83C3007
:1013C800012033E0FFF72CFCC01BB04200D8FEB967
:1013D80000232363202284F83D2084F83E30226CC9
:1013E80042F02002226484F83C3001201EE0236889
:1013F8005B6925EA03039BB2003318BF0123A3B13D
:1014080023685A6912F4806FC5D1B6F1FF3FD9D16C
:10141800C5F30743012BEAD023689B6925EA030338
:101428009BB2003318BF0123E9E70020F8BD000094
:10143800F0B583B004460F4615461E46C36A082B0E
:101448000DD0012B0BD013F5803F08D0036B122B66
:101458000AD10268136843F48073136004E02268B9
:10146800136843F48073136000962B4600224FF0F4
:1014780001112046FFF751FF18BB2369B3F5804FD0
:101488000DD1236807F0FE071F6133462A4610492D
:101498002046FFF77AFF0346A0B1012312E0FB11B3
:1014A800226803F0060343F0F003136133462A462B
:1014B80008492046FFF769FF38B92368FFB21F6162
:1014C800E3E70123184603B0F0BD0123FAE700BFA4
:1014D800020001000800010070B504460D461646DA
:1014E80023685B6913F0800F1CD12046FFF7FCFED0
:1014F800D0B9B5F1FF3FF3D0FFF792FB801BA842AC
:1015080001D8002DECD100232363202284F83D204C
:1015180084F83E30226C42F02002226484F83C3089
:10152800012000E0002070BD0120FCE72DE9F0411A
:1015380084B00446884616461F460B9D0268136809
:1015480043F48073136000950A9B00224FF0011149
:10155800FFF7E3FE20B10123184604B0BDE8F0818F
:10156800226808F0FE0313612B460A9A2049204698
:10157800FFF70BFF08B10123EEE70023039323686D
:101588005A6903929B690393039B2A460A9920464A
:10159800FFF7A2FF034658B1236C042B01D00123A7
:1015A800DAE72268136843F4007313600123D3E772
:1015B800012F0ED02368320A1A612A460A9920465A
:1015C800FFF78AFF034678B1236C042B05D001236B
:1015D800C2E72268F6B21661BEE72268136843F4D0
:1015E800007313600123B7E72268F6B21661B3E708
:1015F8000200010070B504460D46164623685B6973
:1016080013F0040F1CD12046FFF76EFED0B9B5F1D8
:10161800FF3FF3D0FFF704FB801BA84201D8002D41
:10162800ECD100232363202284F83D2084F83E3047
:10163800226C42F02002226484F83C30012000E051
:10164800002070BD0120FCE7002800F0BE80F8B53E
:10165800044690F83D30002B6BD0242384F83D30AD
:101668002268136823F00103136000F041FD6268EB
:10167800584B9A4262D8584B98428CBF002301239A
:10168800002B40F0A480554BA3FB00239B0C216842
:101698004A6822F03F021A434A6025682A6A22F003
:1016A8003F0266684B498E424ED8013313432B6282
:1016B8002568E96921F44F4121F0FF016368454A33
:1016C80093424BD801385B00B0FBF3F30133C3F30B
:1016D8000B03042B38BF04230B43EB6121680B6811
:1016E80023F0C003E269206A024313430B602168B8
:1016F8008B6823F4034323F0FF032269E068024365
:1017080013438B602168CB6823F0FF036269A069EB
:1017180002431343CB602268136843F0010313604C
:1017280000202064202384F83D30206384F83E00A4
:10173800F8BD80F83C3002F02FFB8EE7284B98422A
:101748008CBF002301239BE74FF4967101FB03F341
:101758002449A1FB03139B090133A7E7A268BAB97F
:10176800461E03EB4307B6FBF7F60136C6F30B0636
:10177800B6FA86F6760936BBC2B9013803EB4303DD
:10178800B0FBF3F30133C3F30B0242F40043A3E7C6
:10179800461E03EB830707EB8707B6FBF7F6013610
:1017A800C6F30B06B6FA86F67609E4E7013803EBCA
:1017B800830303EB8303B0FBF3F20132C2F30B02A2
:1017C80042F4404388E7012386E70120704701205F
:1017D800AEE700BFA08601007F841E0083DE1B43A6
:1017E800FF083D00D34D62102DE9F04184B0044656
:1017F8000E4690461F46FFF713FA94F83D30DBB2C9
:10180800202B04D00226304604B0BDE8F0810546FE
:101818000090192301224F492046FFF77EFD00283A
:1018280040F0918094F83C30012B00F08E80012329
:1018380084F83C3023681A6812F0010F03D11A6843
:1018480042F001021A602268136823F400631360EF
:10185800212384F83D30102384F83E30002323648C
:10186800C4F824806785638D23853B4BE3622B4650
:101878000A9A31462046FFF7DBFD0646002866D166
:101888000023039323685A6903929B690393039B7C
:1018980012E0236C042B01D00126B4E722681368F8
:1018A80043F4007313600126ADE72A460A992046DF
:1018B800FFF7A0FE00282CD1238D002B35D02A4617
:1018C8000A992046FFF708FE0028E2D1626A2368D9
:1018D80012781A61616A4B1C6362638D013B9BB28B
:1018E8006385238D013B9BB223852268506910F0E4
:1018F800040FDAD0002BD8D04B781361636A013318
:101908006362638D013B9BB26385238D013B238515
:10191800CBE7236C042B01D0012674E722681368F7
:1019280043F40073136001266DE72268136843F4DB
:1019380000731360202384F83D30002384F83E3080
:1019480084F83C305FE702265DE702265BE7012664
:1019580059E700BF020010000000FFFF2DE9F04129
:1019680082B004460E4617469846FFF759F994F890
:101978003D30DBB2202B04D00223184602B0BDE86C
:10198800F08105460090192301224C492046FFF7B3
:10199800C4FC002840F08B8094F83C30012B00F008
:1019A8008880012384F83C3023681A6812F0010FFC
:1019B80003D11A6842F001021A602268136823F4FE
:1019C80000631360212384F83D30402384F83E30BF
:1019D80000232364089B6362BDF824306385638D0C
:1019E8002385374BE36201950A9B009343463A46A9
:1019F80031462046FFF79AFD00285CD1238D002B45
:101A080034D02A460A992046FFF766FD10BB626A61
:101A1800236812781A61616A4B1C6362238D013B4B
:101A28009BB22385628D013A92B262852268506921
:101A380010F0040FE2D0002BE0D04B781361636AFA
:101A480001336362238D013B2385638D013B9BB288
:101A58006385D3E7236C042B01D001238DE722682B
:101A6800136843F400731360012386E72A460A9932
:101A78002046FFF7BFFD034658B1236C042B01D065
:101A880001237AE72268136843F400731360012383
:101A980073E721680A6842F400720A60202284F819
:101AA8003D20002284F83E2084F83C2065E702238C
:101AB80063E7022361E701235FE700BF020010002C
:101AC8000000FFFF82B0084B1B68084AA2FB0323F3
:101AD8005B0A00FB03F0019000BF019B5A1E0192B4
:101AE800002BF9D102B0704744000020D34D62109A
:101AF800002800F0F58170B582B00446036813F041
:101B0800010F2CD0AB4B5B6803F00C03042B1DD0EA
:101B1800A84B5B6803F00C03082B12D06368B3F57D
:101B2800803F41D0002B55D103F1804303F50433A6
:101B38001A6822F480321A601A6822F480221A6025
:101B480037E09C4B5B6813F4803FE7D0994B1B68E8
:101B580013F4003F03D06368002B00F0C3812368AF
:101B680013F0020F76D0934B5B6813F00C0F5FD025
:101B7800904B5B6803F00C03082B54D02369002BAF
:101B880000F08A808C4B01221A60FFF749F805465D
:101B9800884B1B6813F0020F75D1FFF741F8401B03
:101BA8000228F5D90320A0E1824A136843F4803360
:101BB8001360636843B3FFF733F805467D4B1B6832
:101BC80013F4003FCBD1FFF72BF8401B6428F5D95D
:101BD80003208AE1B3F5A02F09D0764B1A6822F4C6
:101BE80080321A601A6822F480221A60E1E703F151
:101BF8008043A3F53C331A6842F480221A601A68BD
:101C080042F480321A60D4E7FFF70AF80546694BB8
:101C18001B6813F4003FA2D0FFF702F8401B6428AA
:101C2800F5D9032061E1634B5B6813F4803FA5D1CC
:101C3800604B1B6813F0020F04D02369012B01D0FD
:101C4800012052E15B4A136823F0F803616943EA13
:101C5800C1031360236813F0080F32D0A369002B67
:101C68005BD0564B01221A60FEF7DAFF0546514B4E
:101C78005B6A13F0020F21D1FEF7D2FF401B022846
:101C8800F5D9032031E14B4A136823F0F803616961
:101C980043EAC1031360DDE7474B00221A60FEF7F1
:101CA800BFFF0546434B1B6813F0020FD2D0FEF767
:101CB800B7FF401B0228F5D9032016E10120FFF7E2
:101CC80001FF236813F0040F00F09880394BDB699B
:101CD80013F0805F33D1374BDA6942F08052DA6112
:101CE800DB6903F080530193019B0125344B1B688A
:101CF80013F4807F25D0E368012B36D0002B4CD11C
:101D080003F1804303F504331A6A22F001021A62D0
:101D18001A6A22F004021A622CE0284B00221A6088
:101D2800FEF77EFF0546234B5B6A13F0020FC8D00F
:101D3800FEF776FF401B0228F5D90320D5E00025E1
:101D4800D4E71F4A136843F480731360FEF768FFF3
:101D580006461B4B1B6813F4807FCCD1FEF760FF4F
:101D6800801B6428F5D90320BFE0124A136A43F0A8
:101D780001031362E3687BB3FEF752FF06460D4B7F
:101D88001B6A13F0020F38D1FEF74AFF801B41F29D
:101D980088339842F3D90320A7E0052B12D0054BCE
:101DA8001A6A22F001021A621A6A22F004021A62FE
:101DB800E0E700BF001002400000424280044242B7
:101DC800007000404C4B1A6A42F004021A621A6A08
:101DD80042F001021A62CDE7FEF722FF0646464BA3
:101DE8001B6A13F0020F08D0FEF71AFF801B41F29E
:101DF80088339842F3D9032077E0E5B9E369002BEB
:101E080072D03D4A526802F00C02082A56D0022BC2
:101E180017D03A4B00221A60FEF702FF0446364BF1
:101E28001B6813F0007F47D0FEF7FAFE001B02285C
:101E3800F5D9032059E0304AD36923F08053D361A0
:101E4800DCE72E4B00221A60FEF7EAFE05462A4B15
:101E58001B6813F0007F06D0FEF7E2FE401B022845
:101E6800F5D9032041E0236AB3F5803F1AD022490F
:101E78004B6823F47413226A606A024313434B606D
:101E88001E4B01221A60FEF7CBFE04461A4B1B6854
:101E980013F0007F0ED1FEF7C3FE001B0228F5D910
:101EA800032022E0144A536823F40033A1680B434B
:101EB8005360DCE7002018E0002016E0012B16D064
:101EC8000D4B5B6803F48031226A914201D00120F6
:101ED8000BE003F47013626A93420AD0012004E015
:101EE80001207047012000E0002002B070BD0120F1
:101EF800FBE70020F9E700BF001002406000424203
:101F080010B487B0184C94E80F000DF1180C0CE9C8
:101F18000F00238AADF80430144B5B6803F00C0201
:101F2800042A03D0082A05D0114800E0114807B058
:101F380010BC7047C3F3834206A90A4412F8102C58
:101F480013F4803F0CD0094B5B68C3F340430B4448
:101F580013F8143C074800FB02F0B0FBF3F0E6E787
:101F6800054800FB02F0E2E7187300080010024081
:101F780000127A000024F40000093D00002800F057
:101F8800A38070B50446524B1B6803F007038B42CD
:101F98000CD24F4A136823F007030B4313601368EE
:101FA80003F007038B4201D0012070BD236813F0B2
:101FB800020F17D013F0040F04D0464A536843F4B5
:101FC800E0635360236813F0080F04D0414A536854
:101FD80043F4605353603F4A536823F0F003A0680A
:101FE800034353600D46236813F0010F31D0636833
:101FF800012B20D0022B25D0364A126812F0020F8E
:1020080064D034494A6822F0030213434B60FEF758
:1020180007FE06462F4B5B6803F00C036268B3EBC0
:10202800820F16D0FEF7FCFD801B41F288339842E0
:10203800F0D90320B9E7274A126812F4003FE0D12B
:102048000120B2E7234A126812F0007FD9D101209B
:10205800ABE71F4B1B6803F00703AB420CD91C4AC4
:10206800136823F007032B431360136803F0070377
:10207800AB4201D0012098E7236813F0040F06D083
:10208800144A536823F4E063E1680B435360236800
:1020980013F0080F07D00F4A536823F460532169DF
:1020A80043EAC1035360FFF72BFF0A4B5B68C3F396
:1020B8000313094AD35CD840084B1860084B1868CA
:1020C800FEF76AFD002070E70120704701206CE7E9
:1020D800002002400010024078B2000844000020AE
:1020E80004000020014B1868704700BF440000201E
:1020F80008B5FFF7F7FF044B5B68C3F30223034AF5
:10210800D35CD84008BD00BF0010024088B2000868
:1021180008B5FFF7E7FF044B5B68C3F3C223034A24
:10212800D35CD84008BD00BF0010024088B2000848
:10213800F8B505460F4616461C462B689B6837EAD5
:1021480003030CBF01230023B34237D0B4F1FF3F90
:10215800F3D0FEF765FD069BC01AA04201D2002C01
:10216800EBD12A68536823F0E00353606B68B3F53A
:10217800827F0BD0AB6AB3F5005F14D0012385F8DA
:102188005130002385F85030032018E0AB68B3F5D0
:10219800004F02D0B3F5806FECD12A68136823F0A2
:1021A80040031360E6E72A68136823F400531360BA
:1021B8002A68136843F400531360DFE70020F8BD72
:1021C80010B582B0044600920B4600228021FFF72A
:1021D800AFFF034610B9184602B010BD636D43F057
:1021E800200363650323F6E7002839D010B50446B9
:1021F8000023836290F85130002B2CD0022384F8FE
:1022080051302268136823F0400313606368A268A2
:102218001343E26813432269134362691343A269B3
:1022280002F400721343E2691343226A1343A16A5A
:1022380022680B431360638B226803F00403536026
:102248002268D36923F40063D36100206065012309
:1022580084F8513010BD80F8503002F0BDFCCDE755
:10226800012070472DE9F04182B090F85040012CD0
:1022780000F0C3801D46174688460446012380F8AF
:102288005030FEF7CDFC064694F85130DBB2012BF6
:1022980009D00220012384F85130002384F85030FB
:1022A80002B0BDE8F081B8F1000F00F09880002F6F
:1022B80000F09780032384F8513000236365C4F845
:1022C8003080A786E786A363A387E38763642364D4
:1022D800A368B3F5004F1CD023681A6812F0400FAA
:1022E80003D11A6842F040021A60E368B3F5006F40
:1022F80015D063680BB1012F49D1226B236812787E
:102308001A73236B01332363E38E013B9BB2E3868D
:102318003DE02268136843F480431360DCE7636898
:102328000BB1012F15D1226B23681288DA60236B59
:1023380002332363E38E013B9BB2E38609E0FEF799
:102348006FFC801BA84202D3B5F1FF3F4BD1002D93
:102358004BD0E38E9BB2002B2CD023689A6812F0E6
:10236800020FECD0226B1288DA60236B02332363EE
:10237800E38E013B9BB2E386EBE7FEF751FC801B43
:10238800A84202D3B5F1FF3F31D1002D31D0E38E01
:102398009BB27BB123689A6812F0020FEDD0226BD2
:1023A80012781A73236B01332363E38E013B9BB2CC
:1023B800E386ECE7324629462046FFF701FF08B1DD
:1023C80020236365A36833B901932368DA6801920F
:1023D8009B680193019B636D6BB900205AE701204C
:1023E80058E7012056E7032054E7032052E703206B
:1023F80050E703204EE701204CE7022050E790F811
:102408005100704730B4036A23F001030362056A80
:102418004268846924F073040B681C4325F00205A4
:102428008B682B43104DA84203D005F50065A842E0
:1024380005D123F00803CD682B4323F004030A4D8C
:10244800A84203D005F50065A84205D122F44072E0
:102458004D6915438A692A43426084614A68426328
:10246800036230BC704700BF002C014030B4036ADF
:1024780023F480730362036A4268C46924F0730416
:102488000D682C4323F400738D6843EA0523124D2D
:10249800A84203D005F50065A84206D123F40063DD
:1024A800CD6843EA052323F480630B4DA84203D08B
:1024B80005F50065A84207D122F440524D6942EA69
:1024C80005128D6942EA05124260C4614A68C26316
:1024D800036230BC704700BF002C014030B4036A6F
:1024E80023F480530362036A4468C26922F4E64213
:1024F8000D6842EA052223F400538D6843EA053348
:10250800094DA84203D005F50065A84204D124F47A
:1025180080444D6944EA85144460C2614A68026493
:10252800036230BC704700BF002C014010B4036A3E
:10253800046A24F001040462846924F0F00444EA83
:10254800021223F00A030B438261036210BC704736
:1025580010B4036A23F0100303628469036A24F445
:10256800704444EA023223F0A00343EA0113826173
:10257800036210BC7047836823F07003194341F06D
:1025880007018160704770470368244A904212D05F
:1025980002F5006290420ED0B0F1804F0BD0A2F548
:1025A8009832904207D002F58062904203D002F53B
:1025B8008062904203D123F070034A681343174A9C
:1025C800904212D002F5006290420ED0B0F1804FD6
:1025D8000BD0A2F59832904207D002F58062904263
:1025E80003D002F58062904203D123F44073CA6895
:1025F800134323F080034A69134303608B68C36263
:102608000B688362054B984203D003F50063984238
:1026180001D10B690363012343617047002C01401A
:10262800A8B110B5044690F83D305BB1022384F898
:102638003D30211D2068FFF7A7FF012384F83D30B6
:10264800002010BD80F83C3002F0AEFBEEE7012020
:102658007047A8B110B5044690F83D305BB102232D
:1026680084F83D30211D2068FFF78EFF012384F890
:102678003D30002010BD80F83C30FFF784FFEEE7C6
:102688000120704730B4036A23F010030362036A21
:102698004468826922F4E6420D6842EA052223F082
:1026A80020038D6843EA0513114DA84203D005F5B0
:1026B8000065A84206D123F08003CD6843EA0513DC
:1026C80023F040030A4DA84203D005F50065A8424F
:1026D80007D124F440644D6944EA85048D6944EACD
:1026E8008504446082614A688263036230BC704733
:1026F800002C014038B590F83C30012B66D00D46CF
:102708000446012380F83C30022380F83D300C2A2F
:102718001AD8DFE802F007191919201919193419FC
:10272800191947000068FFF76DFE2268936943F0A6
:10273800080393612268936923F004039361226874
:10274800936929690B439361012384F83D30002084
:1027580084F83C0038BD0068FFF794FF226893694D
:1027680043F4006393612268936923F4806393615F
:1027780022689369296943EA01239361E4E70068C1
:10278800FFF774FE2268D36943F00803D361226817
:10279800D36923F00403D3612268D36929690B4301
:1027A800D361D1E70068FFF799FE2268D36943F443
:1027B8000063D3612268D36923F48063D3612268FC
:1027C800D369296943EA0123D361BDE70220C1E740
:1027D80010B4846824F47F4442EA03230B43234360
:1027E800836010BC704790F83C30012B66D010B560
:1027F8000446012380F83C30022380F83D3002680B
:10280800936823F47F4323F0770393600B68402B8E
:102818004AD013D9602B3DD01ED9702B28D0B3F5E0
:10282800005F30D1CB684A6889680068FFF7D0FF3D
:102838002268936843F48043936024E0102B06D009
:1028480004D9202B03D0302B01D01CE0DBB919466A
:102858002068FFF790FE16E0502B14D1CA6849682B
:102868000068FFF763FE50212068FFF784FE0AE046
:10287800CB684A6889680068FFF7AAFF22689368EE
:1028880043F077039360012384F83D30002084F8F7
:102898003C0010BDCA6849680068FFF759FE60210E
:1028A8002068FFF768FEEEE7CA6849680068FFF726
:1028B8003DFE40212068FFF75EFEE4E702207047F6
:1028C80010B401F01F01012303FA01F4036A23EA9B
:1028D80004030362036A8A401343036210BC70470F
:1028E80010B5044601220068FFF7EAFF23680B4A87
:1028F800934203D002F50062934203D15A6C42F42A
:1029080000425A642268936803F00703062B03D039
:10291800136843F001031360002010BD002C014030
:1029280090F83C30012B1CD070B4012680F83C6034
:10293800022380F83D3002685568936825F07005D9
:102948000C682C4323F080054B682B4354600268C5
:10295800936080F83D60002380F83C30184670BCD6
:10296800704702207047000038B5044602681369B2
:1029780023F44053C1680B4313618368026913430E
:1029880042691A430168CB6823F4B05323F00C035F
:102998001343CB600268536923F4407381690B4386
:1029A80053610268214B9A421FD0FFF7A1FB00EB4D
:1029B800800000EB800063689B00B0FBF3F01C4DC7
:1029C800A5FB00325109642202FB110213013233C4
:1029D800A5FB03235B0903F0F00202EB011203F0ED
:1029E8000F03216813448B6038BDFFF791FB00EBA0
:1029F800800000EB800063689B00B0FBF3F00C4D97
:102A0800A5FB00325109642202FB11021301323383
:102A1800A5FB03235B0903F0F00202EB011203F0AC
:102A28000F03216813448B60DEE700BF00380140C4
:102A38001F85EB512DE9F04105460F46164698468D
:102A4800069C2B681B6837EA03030CBF012300238D
:102A5800B3421DD1B4F1FF3FF3D02CB1FEF7E0F83B
:102A6800A0EB0800A042ECD92A68D36823F4D073FD
:102A7800D3602A68536923F001035361202385F842
:102A8800393085F83A30002385F83830032000E0E3
:102A98000020BDE8F08158B310B5044690F83930ED
:102AA8000BB3242384F839302268D36823F4005305
:102AB800D3602046FFF758FF2268136923F4904338
:102AC80013612268536923F02A0353612268D3688B
:102AD80043F40053D3600020E063202384F83930A6
:102AE80084F83A3010BD80F8383002F04DFAD8E753
:102AF800012070472DE9F04182B01E4690F8393028
:102B0800DBB2202B55D104460D469046002955D0FE
:102B1800002A55D090F83830012B53D0012380F883
:102B280038300023C363212380F83930FEF778F862
:102B38000746A4F82480A4F8268010E000963B46B7
:102B4800002280212046FFF775FF00283CD12B8802
:102B58002268C3F3080353602369C3B90235E38CC1
:102B68009BB2B3B1E38C013B9BB2E384A368B3F59A
:102B7800805FE3D000963B46002280212046FFF785
:102B880059FF18BB2A7823685A600135E7E70135F1
:102B9800E5E700963B46002240212046FFF74AFF22
:102BA8000346A8B9202284F83920002284F8382066
:102BB80000E00223184602B0BDE8F0810123F9E7DE
:102BC8000123F7E70223F5E70323F3E70323F1E7FC
:102BD8000323EFE708B5034BA3FB0030C008FEF75B
:102BE80025F808BD1F85EB5100BF00BF00BF704727
:102BF80000BF00BF00BF00BF00BF00BF704700009C
:102C080000B583B018468DF807200139062907D882
:102C1800DFE801F0040A15062A393900FFF7E4FF56
:102C2800012003B05DF804FBFFF7E2FF9DF80720E1
:102C380004211A48FEF752FBFFF7DAFFF0E79DF888
:102C4800073053B9FFF7D0FF01224FF480611448D1
:102C5800FEF744FBFFF7C8FFE2E700224FF480616C
:102C68000F48FEF73BFBF5E7642301220DF107014E
:102C78000C48FFF7F7FA0B48FFF7C1FB0128FAD118
:102C8800FFF7B2FFCCE764239DF80720014605480B
:102C9800FFF7E8FAFFF7A8FFC2E700BF00140140FA
:102CA800001001408805002010B5ADF57C7D144664
:102CB8000139062907D8DFE801F0040A06061525B8
:102CC8002500FFF791FF01200DF57C7D10BDFFF772
:102CD8008FFF1CB9174B00221A70F4E7154B4022DE
:102CE8001A70F0E7134B1B788DF808308DF80940FF
:102CF80042F210730093022302AA78210E48FEF7CD
:102D080073FDE0E70B4A12788DF80820012204E0F1
:102D1800187802A98854013201339442F8DA42F251
:102D280010730093234602AA78210348FEF75CFD3E
:102D3800C9E700BF34020020240400202DE9F04137
:102D480082B080460D4617461C46089E0CE016F8D1
:102D5800013B009300233A462946404600F0E2FB37
:102D6800013CE4B20835EDB2002CF0D102B0BDE868
:102D7800F0812DE9F04383B08146884615461F4609
:102D88009DF828400B9EDB00009403F0F80300F048
:102D980013F860B90DE000963B462A46414648467E
:102DA800FFF7CCFF3E440135EDB2013CE4B2002C04
:102DB800F1D103B0BDE8F08370B49DF80C40144421
:102DC800E4B2013CE4B290F8395090F83B60964286
:102DD80005D3A54207D9A24205D800201CE0A54288
:102DE80019D8A2421AD90B44DBB2013BDBB290F8E6
:102DF800382090F83A00884205D39A4210D999426F
:102E080010D9012008E09A420ED8994201D8002032
:102E180002E0012000E0002070BC70470020FBE7C2
:102E28000120F9E70020F7E70020F5E710B58C68E6
:102E380000230121A04710BD10B58C680023032191
:102E4800A04710BD10B58C6800231A460421A0477E
:102E580010BD10B58C68002301220421A04710BDC5
:102E680010B58C6800230221A04710BD10B58C68EE
:102E780000230521A04710BD10B58C680621A04786
:102E880010BD2DE9F041074688461546002607E0A3
:102E9800224641463846FFF7E9FF002850D0013561
:102EA8002C781EB9FF2CF3D10126F8E7FF2C10D09F
:102EB800FE2C46D0EF2C3FD8DF2C13D8CF2C19D8B6
:102EC800BF2C1FD8BD2C39D814F0800F2FD0002666
:102ED800E5E7224641463846FFF7C8FF064680B375
:102EE8000026DCE704F00F0241463846FFF7B8FF3A
:102EF8000026D4E704F00F0241463846FFF79CFF4E
:102F08000026CCE741463846FFF79CFF2401E4B28F
:102F1800023404F0FE042046FFF75CFE41463846C2
:102F2800FFF797FF2046FFF755FE0026B7E7204634
:102F3800FFF750FE0026B2E70026B0E70026AEE70E
:102F480006463046BDE8F081012070472DE9F84378
:102F580005460C4616461F46A2F10A030B2B0FD84E
:102F6800DFE803F0060E0E0E0E0E5F640E0E0E1650
:102F78000222FFF75BFF304A21462846FFF781FF10
:102F88003B4632462146284600F0D9FBBDE8F88387
:102F9800D1F80480DFF8AC904A46FFF772FF98F842
:102FA8000420520062F04F0202F0FE022146284639
:102FB800FFF75CFF012221462846FFF751FFD8F8AA
:102FC800083098F8052021462846FFF755FF0022CB
:102FD80021462846FFF730FF4A4621462846FFF794
:102FE80050FF98F804205200013252B262F04F02AA
:102FF800D2B221462846FFF739FF0122214628464A
:10300800FFF72EFF98F80520D8F80830134421461A
:103018002846FFF731FF002221462846FFF70CFF1C
:10302800AEE7064AFFF72DFF0120AFE7044AFFF796
:1030380028FF0120AAE700BF2C7300086873000866
:103048005C730008547300082DE9F04105460C46EE
:1030580016461F46A2F10A030B2B0FD8DFE803F030
:10306800060E0E0E0E3851560E0E0E180222FFF7DF
:10307800DDFE294A21462846FFF703FF3B46324634
:103088002146284600F009FC03461846BDE8F081B1
:10309800D1F80480214AFFF7F4FE98F8042042F0A2
:1030A800B00221462846FFF7E1FE012221462846C4
:1030B800FFF7D6FE22462946404600F0D0FA0346DE
:1030C8000028E2D0002221462846FFF7B5FED5E7C2
:1030D8000122FFF7B1FE002221462846FFF7C0FE75
:1030E800812221462846FFF7C1FE3A782146284624
:1030F800FFF7BCFE002221462846FFF79DFE01236C
:10310800C3E7074AFFF7BDFE0123BEE7054AFFF7FD
:10311800B8FE0123B9E700BF7C7300087473000888
:10312800B4730008A8730008405C70474218435CF9
:10313800507800EB032080B2704708B50021FFF7F4
:10314800F3FF08BD08B5FFF7F8FF18B1022801D052
:10315800032008BD0620FCE710B50C46FFF7F2FF78
:10316800204410BD38B504460D468068FFF7E5FFDA
:1031780098B1022811D02B7803F00F02023AA277F7
:103188001B0963776B7803F00F0284F820201B0972
:10319800E377AB781B09237738BD2B78E3776B7817
:1031A80084F8203095F90330237795F90430637754
:1031B80095F90530A377EFE700230377C37780F805
:1031C80020304377837770470020704708B5062181
:1031D800FFF7ACFF08BD08B50821FFF7A7FF08BD3A
:1031E80008B50A21FFF7A0FF08BD08B50B21FFF7B6
:1031F8009BFF08BD2DE9F04782460F4685682846A3
:10320800FFF79BFF04462846FFF79CFF8146012CE9
:1032180012D04FF0FF082846FFF7E2FF0446284681
:10322800FFF7E3FF06462846FFF7D5FF602F06D9CC
:1032380028B1054461240CE04FF00F08EBE728465D
:10324800FFF7C4FF402F03D910B10544412400E023
:103258001135BE4208D3B44210D95046FFF7ACFF2F
:1032680000252846BDE8F0875046FFF7A5FF002552
:10327800F7E70135B442F0D00134E4B22B78FF2BE4
:10328800F7D0BC4205D0AB7803EA08034B441D4491
:10329800F0E729465046FFF765FFE2E72DE9F04FD2
:1032A80085B080460D4614461946FFF7A3FF00284F
:1032B80048D00146D8F80800FFF74EFF074698F8AF
:1032C8001F9098F820B098F81D102944C9B20391AE
:1032D80098F81E60A61BF6B2013EF6B2A6EB0B06E6
:1032E800F6B20136F6B2CDF800B04B46324640464B
:1032F800FFF762FD30B109F10709C9F3C4094FF0BE
:10330800000A17E098F91C001DE017F8013B00932C
:10331800002332462946404600F004F90835EDB24C
:103328000134E4B24C45F0D30136F6B20AF1010A91
:103338005FFA8AFADA4502D2039D0024F2E798F987
:103348001C0000E0002005B0BDE8F08F2DE9F04139
:1033580080460C4617461E46436A98470744FFB204
:1033680000250AE03A4621464046FFF797FFC0B2DB
:103378000444E4B20544EDB201363378002BF1D1B0
:103388002846BDE8F0810000014B4362704700BF4A
:10339800D131000810B50C68A04710BD38B50446F7
:1033A8000D46436B0220984700230A2229462046EF
:1033B800FFF7F0FF0546636B03209847636B002017
:1033C8009847284638BD38B504460D46436B022059
:1033D8009847636B0120984700231422294620460A
:1033E800FFF7D8FF04F13803172229462046FFF7D4
:1033F800D1FF636B0020984738BD70B504460D4671
:10340800436B02209847636B0120984700231522DD
:1034180029462046FFF7BEFF064620B9636B002009
:103428009847304670BD04F13803172229462046D4
:10343800FFF7B0FFF2E700B583B002AB03F8012D48
:103448000F22FFF7A7FF03B05DF804FB10B580F863
:103458002D2080F82E309DF8083080F830309DF807
:103468000C3080F82F3000F12D033B22FFF792FF3C
:1034780010BD00B583B00DF107034622FFF78AFFA0
:103488009DF8070003B05DF804FB00B583B00DF1AB
:1034980007034722FFF77EFF9DF8070003B05DF89A
:1034A80004FB08B500234822FFF774FF08BD10B5D8
:1034B80004464168FFF7DDFF207061682046FFF78A
:1034C800E4FF607061682046FFF7EBFFE07404F1E9
:1034D8003803172261682046FFF75CFF10BD10B55E
:1034E80004464168FFF75AFF034608B9184610BD5D
:1034F8002046FFF7DCFF0123F8E708B54168FFF72E
:1035080062FF08BD10B50446836903B19847616836
:103518002046FFF772FF10BD08B50A464168FFF75D
:103528008AFF08BD30B583B044689DF818500195EE
:10353800009313460A462146FFF788FF03B030BDC3
:1035480080F831107047000070B50446002585608A
:10355800C56045740126067422238374856131464B
:10356800FFF7EEFF2046FFF70FFF84F8286084F886
:10357800295084F82A50402384F82B3084F82C50A2
:10358800014B636370BD00BF5339000870B5044632
:103598000D461646FFF7D8FF6560AE602046FFF778
:1035A8009EFF70BD002282700378013BC3700271D8
:1035B8007047027883781344DBB2837041788B427A
:1035C8000CD2037901330371C3781A44D2B2914201
:1035D80001D84A1ED2B2C27001207047002070473D
:1035E8008368407918445A1C002119701346904288
:1035F800F9D1704710B4C3788B4234BF002301233C
:103608008478914294BF0021012143EA0100944249
:103618008CBF002000F001000B40184310BC70471D
:1036280000230B7083784B704379013B8B70C37810
:10363800CB70704708B54B78CA78012A03D0032AA3
:1036480008D01A4602E003F10802D2B21946FFF781
:10365800D1FF08BDA3F108011A46CBB2F6E710B5B1
:103668000C461146836842792046FFF705FC10BDD9
:103678008368407903EB40005A1C002119701346F7
:103688009042F9D1704730B485688478121BD2B261
:10369800072A03D94079054402F00702012000FAFD
:1036A80002F2D2B22BB96B5C23EA02026A5430BC34
:1036B80070476B5C1A436A54F9E74A7883789A42F0
:1036C8000DD3C3789A420AD810B50C7843799C4236
:1036D80000D310BD0B792146FFF7D5FFF9E77047F6
:1036E8002DE9F04180460D468C78CB78032B03D822
:1036F800DFE803F00E05080B0026374615E0012623
:10370800002712E00026FF270FE0FF2600270CE025
:103718000026012709E02B783B442B706B78334453
:103728006B70640014F0FF0407D014F0800FF2D01F
:1037380029464046FFF7C1FFEDE7BDE8F08138B5FF
:103748001D464C68143A332A4ED8DFE802F02D356E
:103758004D3F4D4D4D4D4D4D4D4D4D4D4D4D4D4D9F
:103768004D4D4D4D4D4D4D4D4D4D4D4D274D4D4DA7
:103778004D4D4D4D4D1A4D4D4D4D4D4D4D4D4D4DA4
:10378800454929462046FFF755FF08B901232CE093
:1037980029462046FFF7A4FF012326E029462046B4
:1037A800FFF78BFF012320E02046FFF761FF20464B
:1037B800FFF7F8FE012318E02046FFF7FAFE03465C
:1037C80098B12046FFF754FF01230EE02946204612
:1037D800FFF726FF012308E063792B70012304E03B
:1037E80063782B70012300E00123184638BD10B41C
:1037F80084688078101A00F0070001228240D2B253
:103808002BB9635C23EA0202625410BC7047635C04
:103818001A436254F9E74A7883789A420DD3C378F9
:103828009A420AD810B50C7843799C4200D310BD4F
:103838000B792146FFF7DBFFF9E770472DE9F041E7
:1038480080460D468C78CB78032B03D8DFE803F04D
:103858000E05080B0026374615E00126002712E062
:103868000026FF270FE0FF2600270CE0002601278F
:1038780009E02B783B442B706B7833446B70640001
:1038880014F0FF0407D014F0800FF2D02946404608
:10389800FFF7C1FFEDE7BDE8F08138B51D464C687C
:1038A800143A332A4ED8DFE802F02D354D3F4D4DFE
:1038B8004D4D4D4D4D4D4D4D4D4D4D4D4D4D4D4D30
:1038C8004D4D4D4D4D4D4D4D274D4D4D4D4D4D4D46
:1038D8004D1A4D4D4D4D4D4D4D4D4D4D454929467A
:1038E8002046FFF7A7FE08B901232CE02946204609
:1038F800FFF7A4FF012326E029462046FFF78BFFA8
:10390800012320E02046FFF76BFE2046FFF74AFE22
:10391800012318E02046FFF74CFE034698B12046E5
:10392800FFF75EFE01230EE029462046FFF778FEEA
:10393800012308E063792B70012304E063782B707E
:10394800012300E00123184638BD704770B582B0E6
:10395800054602AC1F2304F8013D0F4E4FF0FF331C
:10396800012221463046FEF77DFC05F00F038DF855
:1039780007304FF0FF33012221463046FEF772FC34
:103988002D098DF807504FF0FF33012221463046AC
:10399800FEF768FC02B070BD3005002070B582B03B
:1039A800054602AC5F2304F8013D0E4E0A230122AE
:1039B80021463046FEF756FC05F00F038DF8073018
:1039C8000A23012221463046FEF74CFC2D098DF8CA
:1039D80007500A23012221463046FEF743FC02B075
:1039E80070BD00BF3005002010B5404C01224FF4D7
:1039F80080512046FDF772FC00224FF4804120469A
:103A0800FDF76CFC8020FFF7A1FF2A20FFF79EFF3F
:103A18007120FFF79BFFC020FFF798FF0020FFF7FA
:103A280095FF2820FFF792FF0820FFF78FFF2A2035
:103A3800FFF78CFF7920FFF789FFD520FFF786FF76
:103A48007020FFF783FF7820FFF780FF0820FFF73B
:103A58007DFF0620FFF77AFF7220FFF777FFC0206F
:103A6800FFF774FF0120FFF771FF2A20FFF76EFFB1
:103A78007920FFF76BFFDC20FFF768FF0020FFF7D6
:103A880065FFDA20FFF762FF1020FFF75FFF812054
:103A9800FFF75CFFD920FFF759FF8F20FFF756FF8C
:103AA800F120FFF753FFDB20FFF750FF3020FFF72F
:103AB8004DFFDC20FFF74AFF0320FFF747FF782080
:103AC800FFF744FF2820FFF741FF0620FFF73EFFDE
:103AD8002820FFF73BFF0120FFF738FF8020FFF782
:103AE80035FF0C20FFF732FF10BD00BF000C01406E
:103AF80008B50120FFF72AFF0220FFF727FF08BDBE
:103B080038B50546002404E0285DFFF747FF013477
:103B1800E4B22846FCF784FB8442F5D338BD0000A4
:103B280000B585B00246054901A801F073FF01A858
:103B3800FFF7E6FF05B05DF804FB00BF90A300089F
:103B480008B501EB801040B260F07F00C0B2FFF70B
:103B5800FDFE08BD08B50D480D4B03600823436002
:103B680000238360C3604FF4302202614FF4800267
:103B78004261037643768376C37603774377FDF70E
:103B880069F800B908BD00F093FFFBE7FC030020CB
:103B98000064004010B586B0002302930393049399
:103BA80005930268274B9A4201D006B010BD03F571
:103BB800D633DA6942F00072DA61DA6902F000722B
:103BC8000092009A9A6942F004029A619B6903F094
:103BD80004030193019B4FF40063029301230493B0
:103BE800194C02A92046FDF77FFA4FF4805302933F
:103BF800022303930323059302A92046FDF774FAD1
:103C0800002211461320FDF717FA1320FDF748FA92
:103C1800002211461420FDF70FFA1420FDF740FA90
:103C2800002211461520FDF707FA1520FDF738FA8E
:103C3800002211461620FDF7FFF91620FDF730FA8D
:103C4800B3E700BF00640040000801402DE9F043DD
:103C580089B0002404940594069407943A4B9A6911
:103C680042F010029A619A6902F010020092009ADA
:103C78009A6942F020029A619A6902F02002019240
:103C8800019A9A6942F004029A619A6902F0040260
:103C98000292029A9A6942F008029A619B6903F0BB
:103CA80008030393039BDFF8AC8022464FF4A64138
:103CB8004046FDF713FB254F22464FF4A0513846E6
:103CC800FDF70CFBDFF89090224604214846FDF7EB
:103CD80005FB42F6FF3304930325059504A93846EE
:103CE800FDF702FA48F233130493059504A918481E
:103CF800FDF7FAF940F616430493059504A94046E2
:103D0800FDF7F2F94FF4A6430493012605960694AD
:103D18000225079504A94046FDF7E6F94FF4A0539C
:103D2800049305960694079504A93846FDF7DCF92F
:103D38000423049305960694079504A94846FDF7BD
:103D4800D3F909B0BDE8F08300100240001001402B
:103D580000080140000C01400014014008B50B4860
:103D68000B4B03600B4B436000238360C3604FF42D
:103D78008042026143618361C3610362FDF764FCB1
:103D880000B908BD00F094FEFBE700BF2404002042
:103D980000540040801A060010B586B00023029334
:103DA8000393049305930268114B9A4201D006B01D
:103DB80010BD104CA36943F00803A361A36903F085
:103DC80008030093009BC023029312230393032349
:103DD800059302A90848FDF787F9E36943F400133E
:103DE800E361E36903F400130193019BDFE700BF7C
:103DF8000054004000100240000C014070B588B02B
:103E080004460D46002605960696ADF81C60CDE9D9
:103E18000045174A0A2105A801F0C8FD0A230293A4
:103E28000196009601230422E0211248FDF796FD31
:103E38001148FFF762FB09E005AB202214210E4868
:103E4800FFF784FA0C48FFF75DFB70B100220B4BBB
:103E580020462946FCF724FE0028EDD005AB202299
:103E68001F210548FFF772FAECE708B070BD00BFE4
:103E780094A7000824040020F40400200000224035
:103E880010B584B004460A220292002301930093DD
:103E98001346E0212248FDF761FD012C18D0022CC1
:103EA8002AD00CB104B010BD1E48FFF726FB1D4CEC
:103EB8001D4B0193402300931023002211462046F6
:103EC800FEF757FF2046FFF71DFB0028EFD1E9E773
:103ED8001448FFF712FB134C144B01934023009333
:103EE8001023002211462046FEF743FF2046FFF725
:103EF80009FB0028EFD1D5E70A48FFF7FEFA094C7D
:103F08000B4B0193402300931023002211462046B7
:103F1800FEF72FFF2046FFF7F5FA0028EFD1C1E79B
:103F280024040020F404002078AA0008B4A700089C
:103F380078B0000810B584B00A23029300230193D7
:103F4800009301231A46E0210B48FDF707FD0B48B3
:103F5800FFF7D3FA094C0A4B01934023009310232F
:103F6800002211462046FEF704FF2046FFF7CAFA52
:103F78000028EFD104B010BD24040020F404002070
:103F880094A3000810B584B00A2302930023019378
:103F9800009301230422E0210B48FDF7DFFC0B48C6
:103FA800FFF7ABFA094C0A4B019340230093102307
:103FB800002211462046FEF7DCFE2046FFF7A2FA53
:103FC8000028EFD104B010BD24040020F404002020
:103FD80094A3000810B584B00A220292002301932A
:103FE80000931346E0210C48FDF7B8FC0B48FFF797
:103FF80084FA0A4C0A4B01934023009310230022B1
:1040080011462046FEF7B5FE2046FFF77BFA00284A
:10401800EFD104B010BD00BF24040020F404002038
:1040280094A30008F0B589B004460D46164600274B
:1040380005970697ADF81C70CDE900451D4A0A2181
:1040480005A801F0B3FC0A23029301970097012306
:104058001A46E0211848FDF781FC1848FFF74DFA89
:1040680014E0174B019340230093102300221146BC
:104078001248FEF77EFE0BE005AB202214210F4804
:10408800FFF764F90D48FFF73DFA80B1012EE8D03B
:1040980000220C4B20462946FCF702FD0028EBD0F5
:1040A80005AB20221F210548FFF750F9EAE709B0C0
:1040B800F0BD00BF94A7000824040020F4040020E9
:1040C80094A5000800002240F0B589B004460D46CA
:1040D8001646CDE90045384A0A2105A801F066FCD4
:1040E8003346364A0A2102A801F060FC3448FFF73B
:1040F80004FA20E03248334B836005AB3222482172
:10410800FFF724F91FE02AA3D3E900232046294614
:10411800FCF7DAFC002830D129482B4B83602B4B65
:104128003F226821FFF712F9002E2FD12448FFF70C
:10413800E9F9002838D00022254B20462946FCF70B
:10414800AFFC0028D6D10022214B20462946FCF797
:10415800BBFC0028D7D016A3D3E900232046294664
:10416800FCF79EFC0028CED01548164B836005ABA3
:1041780032222221FFF7EAF8C5E71148114B836084
:1041880005AB32220121FFF7E1F8C5E70C4F114BCF
:104198003F2201213846FFF7D9F802AB3F2216210A
:1041A8003846FFF7D3F8C1E709B0F0BDAFF3008098
:1041B8000000000000C058409CA7000890A3000819
:1041C800B804002014990008C0730008A4A70008C8
:1041D80000002240ACA700082DE9F04784B0012276
:1041E8004FF400413448FDF779F801224FF480512B
:1041F8003248FDF773F8324C00224FF480712046A4
:10420800FDF76CF800224FF400712046FDF766F8C0
:104218002C4A2D492D48FFF7B9F9DFF8C0904FF027
:10422800FF3ACDF808A000250195009501231A460C
:10423800E0214846FDF792FB0520FCF7F7FCDFF884
:10424800A080234F234C424639462046FFF79EF96B
:10425800214EA6600520FCF7E9FCCDF808A00195E1
:10426800009501230222E0214846FDF777FB05204F
:10427800FCF7DCFC424639462046FFF787F9A66082
:104288000520FCF7D3FCCDF808A001950095012383
:104298000422E0214846FDF761FB0520FCF7C6FC37
:1042A800424639462046FFF771F9A6606420FCF7BC
:1042B800BDFC04B0BDE8F0870008014000100140D3
:1042C800000C0140092C000820000020B804002040
:1042D80008000020F40400200C7B000824040020BF
:1042E800B12C000810B582B00A48FFF706F9094C4E
:1042F800094B0193402300931023002211462046C6
:10430800FEF737FD2046FFF7FDF80028EFD102B091
:1043180010BD00BFB804002078AC00082DE9F041BA
:1043280084B0804601461948FFF7F6F8184F4FF059
:10433800FF35029500240194009401231A46E021D8
:104348003846FDF70BFB134E41463046FFF7E4F8BD
:1043580002950194009401230222E0213846FDF7DA
:10436800FDFA41463046FFF7D7F8029501940094CC
:1043780001230422E0213846FDF7F0FA4146304691
:10438800FFF7CAF804B0BDE8F08100BFB804002008
:1043980024040020F404002000B585B0164B1B78D7
:1043A8008DF80430154B1B788DF80530144B1B78AD
:1043B8008DF80630134B1B788DF80730124B1B789D
:1043C8008DF80830114B1B788DF80930104B1B788D
:1043D8008DF80A300F4B1B788DF80B300E4B1B787D
:1043E8008DF80C306423092201A90C48FEF782FBE2
:1043F80005B05DF804FB00BFE7030020E8030020D8
:10440800E0030020E5030020E6030020E20300208B
:10441800E3030020E1030020E4030020E00500207E
:10442800024B1870024B1970704700BFE20300205E
:10443800E303002008B5FCF74DF80022064BFCF713
:10444800DDF902F0D5FEFCF787FBC0B2382800D9A9
:104458003820024B187008BD00000440E703002014
:10446800D0B506460F46144682B90022114BFCF718
:10447800C5F902F0BDFEFCF76FFBC0B2102800D9E9
:1044880010200D4B18700D4B00221A70012C00D013
:10449800D0BD3046394602F0ABFEFCF75DFBC0B23A
:1044A800032800D90320044B1870044B01221A700A
:1044B800EEE700BF0000E83FE5030020E603002028
:1044C80070B504460D4626A3D3E90023FCF7E8FAA5
:1044D80050B10022002320462946FCF7F5FA08B11E
:1044E800012602E0002600E000261DA3D3E90023F0
:1044F80020462946FCF7E8FA40B11BA3D3E900237C
:1045080020462946FCF7CCFA00B1022616A3D3E9C7
:10451800002320462946FCF7D7FA38B10022144B6D
:1045280020462946FCF7BCFA00B103260022104BAE
:1045380020462946FCF7C8FA50B100220D4B204608
:104548002946FCF75BF902F053FEFCF705FBC6B2FF
:10455800132E00D91326084B1E7070BDAFF30080D0
:10456800A4703D0AD7A31A40295C8FC2F5A82A4037
:104578000000344000001540E0030020014B187093
:10458800704700BFE1030020024B58639863D8636B
:10459800704700BF0004004010B5074C00212046BA
:1045A800FEF79EF904212046FEF79AF908212046D5
:1045B800FEF796F910BD00BF7804002008B5FFF794
:1045C8000BFEFFF711FAFFF7E7FF054B1878FFF727
:1045D800D5FFFFF7E1FE0020FFF7D6FF08BD00BFBB
:1045E8004000002000000000D0B5FFF77BFEFFF779
:1045F800A1FCFFF7C7FCFFF7EDFCFF210846FFF71A
:104608000FFFFFF7C9FEFFF773FA00BF2448FFF753
:1046180077FA00210120FFF793FA2248FFF770FA92
:10462800C820FCF703FB012406E02046FFF7ACFF97
:104638000A20FCF7FBFA01342046FBF74BFF06463D
:104648000F46194B1878FBF745FF13A3D3E900234E
:10465800FBF7AAFF02460B4630463946FCF720FA1C
:104668000028E2D100210846FFF7DAFEFFF794FEA2
:104678000D4B1878FBF72EFF07A3D3E90023FBF7B0
:1046880093FFFCF741FAFFF77FFF6420FCF7CEFAAF
:10469800D0BD00BFAFF30080666666666666E63F1B
:1046A80038AA000848AA00084000002008B50138C8
:1046B800062812D8DFE800F00412202E3C4A5800E1
:1046C800FFF716FA00BF2F48FFF71AFA002101205A
:1046D800FFF736FA2C48FFF713FA08BDFFF708FA78
:1046E80000BF2A48FFF70CFA00210120FFF728FA3B
:1046F8002748FFF705FAF0E7FFF7FAF900BF234864
:10470800FFF7FEF900210120FFF71AFA2148FFF709
:10471800F7F9E2E7FFF7ECF900BF1F48FFF7F0F9F8
:1047280000210120FFF70CFA1748FFF7E9F9D4E751
:10473800FFF7DEF900BF1948FFF7E2F90021012071
:10474800FFF7FEF91648FFF7DBF9C6E7FFF7D0F9E0
:1047580000BF1448FFF7D4F900210120FFF7F0F952
:104768000F48FFF7CDF9B8E7FFF7C2F900BF0E48C9
:10477800FFF7C6F900210120FFF7E2F90848FFF723
:10478800BFF9AAE7B4A9000870AA0008C4A90008DC
:10479800D4A90008E4A90008F4A9000804AA00089C
:1047A80010AA00081CAA000828AA00080000000097
:1047B800F0B583B0A24A138801331380A14A138845
:1047C80001339BB21380032B0BD9134600221A80A6
:1047D8009D4C00229D4BD4E90001FBF72DFDC4E957
:1047E800000100229A4B9849D1E90001FCF74EF9E3
:1047F800002840F0AD80974A138801339BB213809C
:10480800022B0BD9134600221A80934B1B78002BDE
:1048180040F0A780914A1378013313708F4B1C78AE
:104828008C2C02D98C4B01221A7014B98A4B0022A5
:104838001A708B4B00221A70874B1D7855BB894B19
:10484800D3E900670022884B30463946FCF714F953
:1048580000BB7C4A138801339BB21380032B0CD90D
:10486800134600221A8072A3D3E900233046394642
:10487800FBF7E4FC7B4BC3E9000100227A4B794942
:10488800D1E90001FCF720F920B1764B00207649E8
:10489800C3E90001012D69D0744A138801339BB222
:1048A8001380142B0FD9134600221A80704B1B78E3
:1048B800002B7BD16F4BC5221A706F4B21221A70C7
:1048C8006B4B01221A706D4A13780133DBB21370F7
:1048D800072B02D9134600221A70694B1D7820460F
:1048E800FBF7E8FD2A46FFF7EFFB634B1978614BAE
:1048F8001878FFF795FD594B1878FFF79BFD584B33
:104908001A78584BD3E90001FFF7AAFD4E4BD3E9BB
:104918000001FFF7D5FDFFF73FFD584B1B782BB182
:10492800022B03D0042B01D0062B0BD14C4B1A7849
:104938004C4BD3E90001FFF775FB434BD3E900016A
:10494800FFF75CFA4D4B1B78072B39D003B0F0BD4D
:104958003D4B00204B49C3E900013F4B00221A7030
:1049680049E73E4A1378013B137057E7354A1388E5
:1049780001339BB21380032B8ED9134600221A8071
:10498800384D2DA3D3E90023D5E90001FBF754FCEA
:10499800C5E9000100220023FCF778F800283FF45D
:1049A8007BAF00200021C5E9000175E7314B4522A6
:1049B8001A70314B60221A702D4B00221A7082E750
:1049C800314B1878FFF75CFAFF20FFF7A7FCFF21AF
:1049D8000846FFF725FD2D4B187828BBFFF788F808
:1049E80000BF2B48FFF78CF82A4B1878FFF798F888
:1049F8002948FFF785F8294B1878FFF791F8284BD5
:104A08001B68284A0A21684600F0D0FF00210120CF
:104A1800FFF796F82448FFF773F86846FFF770F831
:104A28002248FFF76DF891E7FFF740FE8EE700BFD9
:104A38009A9999999999C93F333333333333D33F8B
:104A4800BC030020BE030020380000200000E03F27
:104A58000000F03FC0030020C4030020D80300205A
:104A6800C6030020D003002000002840C203002015
:104A7800C5030020C8030020C9030020CA03002082
:104A8800C70300200000594041000020D90300203E
:104A980058AA00084200002060AA0008430000202D
:104AA800DC03002064AA00086CAA000874AA0008A5
:104AB800FEE700B591B0002309930B930C93019383
:104AC8000293039304930593012206924FF48033D3
:104AD80007934FF4003108910A9202220D920E9327
:104AE8004FF4E0130F9306A8FDF702F880B90F23DF
:104AF800019302210291002303934FF480620492F0
:104B0800059301A8FDF73AFA20B911B05DF804FB46
:104B1800FFF7CEFFFFF7CCFF08B5FCF763F8FFF708
:104B2800C8FFFFF793F8FFF715F8FFF717F900F03C
:104B38000FF800F02FF800F087F900F0F1F900F015
:104B480009FAFFF73BFDFFF74FFDFFF731FEFCE7E2
:104B580008B50E480E4B03604FF482734360002380
:104B68008360C360036143614FF40072826118225D
:104B7800C26180220262436283620A23C362FDF734
:104B880033FB00B908BDFFF793FFFBE730050020B2
:104B98000038004008B50E480E4B03604FF482738E
:104BA800436000238360C360036143614FF4007274
:104BB80082610822C2610362436283620A23C3627C
:104BC800FDF712FB00B908BDFFF772FFFBE700BF56
:104BD80088050020003C004000B589B000230493FC
:104BE8000593069307930368224A934205D0224A05
:104BF800934221D009B05DF804FB204BDA6942F4F6
:104C08008042DA61DA6902F480420092009A9A6975
:104C180042F008029A619B6903F008030193019B23
:104C28004FF420430493022305930323079304A915
:104C38001348FCF759FADDE7104BDA6942F40042F1
:104C4800DA61DA6902F400420292029A9A6942F041
:104C580008029A619B6903F008030393039B2823C6
:104C68000493022305930323079304A90448FCF73C
:104C78003BFABFE700380040003C0040001002400B
:104C8800000C014082B00E4B9A6942F001029A6111
:104C98009A6902F001020092009ADA6942F08052A1
:104CA800DA61DB6903F080530193019B054A53687D
:104CB80023F0E06343F00073536002B0704700BF15
:104CC80000100240000001407047FEE7FEE7FEE7E3
:104CD800FEE770477047704708B5FBF795FF08BDBA
:104CE80008B50248FCF769F808BD00BFFC030020BE
:104CF80008B50248FCF761F808BD00BFFC030020B6
:104D080008B50248FCF759F808BD00BFFC030020AD
:104D180008B50248FCF751F808BD00BFFC030020A5
:104D280008B503460B4A126842B10A4A10680344A0
:104D38006A46934206D8074A136008BD054A0649E1
:104D48001160F2E700F0B0F90C2303604FF0FF3078
:104D5800F3E700BFEC030020680600200F4B1A6839
:104D680042F001021A6059680D4A0A405A601A68EE
:104D780022F0847222F480321A601A6822F48022A7
:104D88001A605A6822F4FE025A604FF41F029A60B1
:104D9800044B4FF000629A60704700BF0010024059
:104DA8000000FFF800ED00E00268094B9A4200D0CD
:104DB800704782B003F50333DA6942F00202DA6120
:104DC800DB6903F002030193019B02B0704700BF47
:104DD8000004004010B586B00023029303930493A7
:104DE80005930268154B9A4201D006B010BD03F531
:104DF80003339A6942F004029A619A6902F0040244
:104E08000092009A9A6942F008029A619B6903F03D
:104E180008030193019BC023029302240394059481
:104E280002A90748FCF760F901230293039405944B
:104E380002A90448FCF758F9D7E700BF000400406E
:104E480000080140000C014000B58FB000230A9310
:104E58000B930C930D930893099301930293039377
:104E680004930593069307932B482C4A026041F25A
:104E78008732426083606322C26003618361FDF709
:104E8800CFFB002832D10EA94FF4805341F8103DD2
:104E98002148FDF7A8FC60BB1F48FDF7DAFB58BBAB
:104EA80000230893099308A91B48FDF739FD30BB77
:104EB80060230193002202920392059201A91648E9
:104EC800FDF718FCF0B904220DEB02011248FDF7BA
:104ED80011FCD0B9082201A90F48FDF70BFCB8B99D
:104EE8000D48FFF777FF0FB05DF804FBFFF7E0FD13
:104EF800C9E7FFF7DDFDCFE7FFF7DAFDD0E7FFF7FA
:104F0800D7FDD5E7FFF7D4FDDDE7FFF7D1FDE1E7F2
:104F1800FFF7CEFDE4E700BF78040020000400405E
:104F280008B50A480A4B03604FF4E1334360002395
:104F38008360C36003610C2242618361C361FDF732
:104F4800AAFD00B908BDFFF7B3FDFBE7E0050020A7
:104F58000038014008B50A480A4B03604FF416535D
:104F6800436000238360C36003610C224261836154
:104F7800C361FDF790FD00B908BDFFF799FDFBE798
:104F8800200600200044004010B588B00023049398
:104F980005930693079303682C4A934204D02C4A3E
:104FA80093422BD008B010BD2A4B9A6942F4804234
:104FB8009A619A6902F480420092009A9A6942F0D2
:104FC80004029A619B6903F004030193019B4FF467
:104FD8000073049302230593032307931E4C04A92B
:104FE8002046FCF781F84FF480630493002305936F
:104FF800069304A92046FCF777F8D3E7154BDA693E
:1050080042F40032DA61DA6902F400320292029A5A
:105018009A6942F004029A619B6903F004030393BE
:10502800039B0423049302230593032307930A4C49
:1050380004A92046FCF758F8082304930023059395
:10504800069304A92046FCF74FF8ABE70038014067
:10505800004400400010024000080140002103E025
:105068000B4B5B58435004310A480B4B42189A4289
:10507800F6D30A4A02E0002342F8043B084B9A425E
:10508800F9D3FFF76BFE00F015F8FFF745FD704701
:10509800F8B40008000000201802002018020020C0
:1050A80064060020FEE70000014B1868704700BF47
:1050B8004800002070B500250C4E0D4CA41BA41010
:1050C800A54209D102F018F900250A4E0A4CA41B82
:1050D800A410A54205D170BD56F825309847013572
:1050E800EEE756F8253098470135F2E7F0B40008A6
:1050F800F0B40008F0B40008F4B400080346024411
:10510800934200D1704703F8011BF9E7002B2DE902
:10511800F0471E46BBBF03F100431E4600232D2364
:1051280088B0149FDDE9121A27F02007462F14468D
:10513800109D0B7004D0452F00D10135022300E0EB
:10514800032307AA049206AACDE902A2CDE90035F5
:105158002246334600F00CFD472F804602D1119BB2
:10516800DB0726D5462F08EB050911D198F8003042
:10517800302B0AD10022002320463146FBF77CFC65
:1051880018B9C5F10105CAF80050DAF80030994499
:105198000022002320463146FBF76EFC38B9302246
:1051A800079B4B4505D2591C07911A70F8E7CDF8B3
:1051B8001C904046079B159AA3EB0803136008B0A0
:1051C800BDE8F087F7B50029B4BF2D232B2304468B
:1051D800B8BF4942092904F8022B437021DD0DF1BB
:1051E80007031F460A2691FBF6F506FB1511092D44
:1051F80001F1300103F8011C03F1FF32294609DCF3
:105208003031023B02F8011CBB42224604D3101A7B
:1052180003B0F0BD1346E6E713F8012B04F8012BA1
:10522800F2E7302319448370021DC170EFE70000D4
:105238002DE9F04F91B00C461A9F93461E4605463D
:1052480001F04AFA036818460993FAF7E9FF0023C0
:105258000E933B680A90073323F0070303F1080213
:1052680094F81880D4F800A03A60D3E90023C4E980
:105278001223D4E9127929F000430B934FF0FF323F
:10528800A64B38460B99FBF729FC68BB4FF0FF3259
:10529800A24B38460B99FBF703FC28BB00220023DE
:1052A80038464946FBF7F2FB10B12D2384F843300A
:1052B8009B4F9C4BB8F1470F98BF1F4603234FF0F5
:1052C800000923612AF00403236000965B460FAAB5
:1052D8002146284600F0E2F9013040F090804FF076
:1052E800FF3011B0BDE8F08F3A464B463846494684
:1052F800FBF7F4FB10B18C4F8C4BDBE763684AF487
:105308008062591C0DA80EA940D1062363604FF096
:10531800000C0DF13303CDE9012363682260CDE968
:10532800030800933A464B46CDE9051C2846FFF78B
:10533800EDFE08F0DF03472B074609D10D9BD81C6B
:1053480002DB6268934247DDA8F102085FFA88F839
:10535800B8F1650F0D9924D80139424604F150007F
:105368000D91FFF72FFF0E9A81461318012A23612A
:1053780002DC2268D10701D5013323619DF833305F
:10538800002BA2D02D2384F843309EE7B8F1670F95
:1053980000F06E81B8F1470FB9D1002BB7D10123C6
:1053A800B4E7B8F1660F19D1002963680CDD2161F3
:1053B80013B92268D20702D501330B4423610D9B30
:1053C8004FF00009A365D9E713B92268D00701D5C2
:1053D8000233F3E70123F1E74FF06708DDE90D3207
:1053E800934205DB22682361D107E8D50133E5E75D
:1053F800002BCCBF0123C3F102031344DEE723686B
:105408005A0507D423693A4659462846B047013019
:1054180029D164E7B8F1650F40F2D780D4E91201C9
:1054280000220023FBF728FB88B30123404A594692
:105438002846B04701303FF452AFDDE90D239A42C8
:1054480002DB2368D8070ED5DDE90923594628462B
:10545800B04701303FF443AF002704F11A080E9B10
:10546800013BBB4209DC23689F0700F1FD80E0682F
:105478000F9B9842B8BF184633E701234246594666
:105488002846B04701303FF42AAF0137E7E70D9BC4
:10549800002B2BDC0123264A59462846B047013009
:1054A8003FF41DAF0D9B23B90E9B13B92368D90791
:1054B800D9D5DDE9092359462846B04701303FF4DC
:1054C8000EAF4FF0000804F11A090D9B5B424345EB
:1054D80001DC0E9B97E701234A4659462846B04708
:1054E80001303FF4FCAE08F10108EEE70E9AA36D17
:1054F8009A42A8BF1A46002A904607DD1346594625
:105508003A462846B04701303FF4E9AE04F11A03A1
:105518004FF0000A28EAE8780B9315E0FFFFEF7FC9
:1055280094B2000890B200089CB2000898B2000833
:10553800A0B2000801230B9A59462846B04701300B
:105548003FF4CDAE0AF1010AD4F85890A9EB08034C
:105558005345EFDCDDE90D239A424F4414DB236801
:10556800DA0711D40E9B0D99A3EB0902A3EB0109ED
:105578009145A8BF9146B9F1000F0DDC002729EA33
:10558800E97904F11A0818E0DDE9092359462846A3
:10559800B0470130E6D1A2E64B463A46594628467E
:1055A800B0470130EAD19AE60123424659462846D7
:1055B800B04701303FF493AE0137DDE90D239B1A64
:1055C800A3EB0903BB42EFDC4DE70E9A012A01DC8D
:1055D800DB0738D501233A4659462846B0470130FB
:1055E8003FF47DAEDDE9092359462846B04701302E
:1055F80007F101073FF473AED4E912010E9B0022B4
:1056080003F1FF380023FBF737FAC0B943463A469F
:1056180059462846B04701300DD160E6012342467D
:1056280059462846B04701303FF459AE01370E9B22
:10563800013BBB42F2DC4B4604F15002E4E6002792
:1056480004F11A08F3E70123E1E70123424659462A
:105658002846B04701303FF442AE0137E3680F9A5D
:105668009B1ABB42F1DC02E7002704F11908F5E7B1
:10567800002B3FF494AE4FF0000CCDE9051C0DF162
:1056880033012260CDE90308CDE9012100933A46B0
:105698004B462846FFF73AFD07464FE62DE9F04707
:1056A80091461F468A680B6906469342B8BF13465F
:1056B800C9F8003091F843200C46DDF8208012B17B
:1056C8000133C9F800302368990642BFD9F8003081
:1056D8000233C9F80030256815F0060507D104F132
:1056E800190AE368D9F800209B1AAB4229DC94F820
:1056F80043302268003318BF012392062ED404F1E8
:10570800430239463046C047013021D02368E56856
:1057180003F00603042B18BF0025D9F800204FF02A
:10572800000908BFAD1AA368226908BF25EAE57514
:105738009342C4BF9B1AED181A344D451AD1002064
:1057480008E00123524639463046C047013003D1AC
:105758004FF0FF30BDE8F0870135C2E73020E1188F
:1057680081F843005A1C94F845102244023382F809
:105778004310C4E70123224639463046C04701306A
:10578800E6D009F10109D8E72DE9F04301F1430C0E
:105798000C46097E85B06E291746064698460C9A2F
:1057A80000F0B38022D8632936D00AD8002900F047
:1057B800B980582900F0838004F1420584F842102A
:1057C80032E0642901D06929F6D1206813680506FA
:1057D80003F104012AD51B681160002B03DA2D227E
:1057E8005B4284F843206F480A2239E0732900F0AD
:1057F8009D8008D86F2920D07029DDD1236843F017
:105808002003236003E0752917D07829D4D17823A1
:10581800654884F8453055E0136804F14205191DC0
:105828001B68116084F8423001238CE01B6810F07B
:10583800400F116018BF1BB2CFE713682568181D09
:105848001060280601D51B6802E06806FBD51B8896
:105858006F2914BF0A2208225248002184F84310F5
:105868006568002DA560C0F29580216821F00401CB
:105878002160002B3DD1002D40F08E806546082A1E
:105888000BD12368DB0708D5236962689A42DEBF1B
:10589800302305F8013C05F1FF35ACEB0503236126
:1058A800CDF800803B4603AA21463046FFF7F6FEB6
:1058B80001304DD14FF0FF3005B0BDE8F0833948D5
:1058C80084F84510136821681D1D1B6815600A06B9
:1058D8000BD5CA0744BF41F0200121601BB92268DB
:1058E80022F0200222601022B7E74D0648BF9BB283
:1058F800EFE76546B3FBF2F102FB1133C35C05F831
:10590800013D0B460029F5D1B9E713682568181D34
:105918006169106028061B6801D5196002E06A06F3
:10592800FBD51980002365462361B9E71368191D63
:1059380011601D6862680021284600F0E3FE08B186
:10594800401B606063682361002384F84330A7E745
:1059580023692A4639463046C0470130AAD0236811
:105968009B0713D4E068039B9842B8BF1846A3E787
:1059780001234A4639463046C04701309AD001359E
:10598800E368039A9B1AAB42F2DCEBE7002504F1CB
:105998001909F5E7002BACD1037804F1420584F826
:1059A80042306CE7A2B20008B3B200080CB430B5BC
:1059B800174B0C1E9DB01D6808DA8B234FF0FF3083
:1059C8002B601DB0BDE8304002B070474FF4027341
:1059D800ADF814300CBF234604F1FF33049307934A
:1059E8004FF6FF7302900690ADF81630209A21AB5F
:1059F80002A92846019301F089FA431CBCBF8B23F6
:105A08002B60002CDDD00022029B1A70D9E700BF62
:105A1800480000200EB46FF0004100B59CB01DABEB
:105A280002900690079104910848094953F8042BFD
:105A38000591006802A9019301F068FA0022029B0F
:105A48001A701CB05DF804EB03B0704748000020E2
:105A58000802FFFF2DE9F74F03690C698046A3424E
:105A6800C0F28480013C01F1140700F1140657F8D4
:105A7800245056F824000135B0FBF5F54FEA840CA4
:105A880006EB0C0307EB0C0901939DB34FF0000ADA
:105A98003846B646D34650F8042B93B205FB03A309
:105AA800120C4FEA134A05FB02A29BB2ABEB0303AD
:105AB800DEF800B04FEA124A1FFA8BFB5B441FFA6C
:105AC80082FBDEF800208145CBEB124202EB234239
