:020000040800F2
:100000000000012089550008695200086B52000861
:100010006D5200086F520008715200080000000085
:100020000000000000000000000000007352000803
:10003000755200080000000077520008795200084D
:10004000D1550008D1550008D1550008D1550008F8
:10005000D1550008D1550008D1550008D1550008E8
:10006000D1550008D1550008D1550008D1550008D8
:10007000D1550008D1550008D1550008D1550008C8
:10008000D1550008D1550008D15500088552000807
:1000900095520008A5520008C1520008D155000829
:1000A000D1550008D1550008D1550008D155000898
:1000B000D1550008D1550008D1550008D155000888
:1000C000D1550008D1550008D1550008D155000878
:1000D000D1550008D1550008D1550008D155000868
:1000E000D1550008D1550008D1550008D155000858
:1000F000D1550008D1550008D1550008D155000848
:10010000D1550008D1550008D1550008D155000837
:10011000D1550008D1550008D1550008D155000827
:10012000D1550008D1550008D1550008D155000817
:1001300000000000000000000000000000000000BF
:1001400000000000000000000000000000000000AF
:10015000000000000000000000000000000000009F
:10016000000000000000000000000000000000008F
:10017000000000000000000000000000000000007F
:10018000000000000000000000000000000000006F
:10019000000000000000000000000000000000005F
:1001A000000000000000000000000000000000004F
:1001B000000000000000000000000000000000003F
:1001C000000000000000000000000000000000002F
:1001D000000000000000000000000000000000001F
:0401E0005FF8E0F1F3
:1001E80010B5054C237833B9044B13B10448AFF369
:1001F80000800123237010BD1802002000000000B9
:100208003478000808B5034B1BB103490348AFF322
:10021800008008BD000000001C020020347800089F
:1002280081F0004102E000BF83F0004330B54FEA9F
:1002380041044FEA430594EA050F08BF90EA020F0C
:100248001FBF54EA000C55EA020C7FEA645C7FEA9F
:10025800655C00F0E2804FEA5454D4EB5555B8BFC2
:100268006D420CDD2C4480EA020281EA030382EA33
:10027800000083EA010180EA020281EA0303362DC5
:1002880088BF30BD11F0004F4FEA01314FF4801C98
:100298004CEA113102D0404261EB410113F0004FAA
:1002A8004FEA03334CEA133302D0524263EB430361
:1002B80094EA050F00F0A780A4F10104D5F1200EFF
:1002C8000DDB02FA0EFC22FA05F2801841F100015A
:1002D80003FA0EF2801843FA05F359410EE0A5F12E
:1002E80020050EF1200E012A03FA0EFC28BF4CF05F
:1002F800020C43FA05F3C01851EBE37101F0004515
:1003080007D54FF0000EDCF1000C7EEB00006EEB21
:100318000101B1F5801F1BD3B1F5001F0CD34908AB
:100328005FEA30004FEA3C0C04F101044FEA445202
:1003380012F5800F80F09A80BCF1004F08BF5FEA89
:10034800500C50F1000041EB045141EA050130BD69
:100358005FEA4C0C404141EB010111F4801FA4F10C
:100368000104E9D191F0000F04BF01460020B1FA61
:1003780081F308BF2033A3F10B03B3F120020CDA99
:100388000C3208DD02F1140CC2F10C0201FA0CF077
:1003980021FA02F10CE002F11402D8BFC2F1200CDC
:1003A80001FA02F120FA0CFCDCBF41EA0C01904092
:1003B800E41AA2BF01EB0451294330BD6FEA0404DB
:1003C8001F3C1CDA0C340EDC04F11404C4F12002C6
:1003D80020FA04F001FA02F340EA030021FA04F3D8
:1003E80045EA030130BDC4F10C04C4F1200220FA2F
:1003F80002F001FA04F340EA0300294630BD21FA6D
:1004080004F0294630BD94F0000F83F4801306BF32
:1004180081F480110134013D4EE77FEA645C18BF26
:100428007FEA655C29D094EA050F08BF90EA020FBD
:1004380005D054EA000C04BF1946104630BD91EAB5
:10044800030F1EBF0021002030BD5FEA545C05D1B8
:100458004000494128BF41F0004130BD14F58004F7
:100468003CBF01F5801130BD01F0004545F0FE416B
:1004780041F470014FF0000030BD7FEA645C1ABFA0
:10048800194610467FEA655C1CBF0B46024650EAD7
:10049800013406BF52EA033591EA030F41F4002103
:1004A80030BD00BF90F0000F04BF0021704730B589
:1004B8004FF4806404F132044FF000054FF000015E
:1004C80050E700BF90F0000F04BF0021704730B51F
:1004D8004FF4806404F1320410F0004548BF4042F4
:1004E8004FF000013EE700BF42004FEAE2014FEA49
:1004F80031014FEA02701FBF12F07F4393F07F4F24
:1005080081F06051704732F07F4208BF704793F026
:100518007F4F04BF41F40021704730B54FF4607439
:1005280001F0004521F000411CE700BF50EA01023C
:1005380008BF704730B54FF000050AE050EA0102E5
:1005480008BF704730B511F0004502D5404261EB55
:1005580041014FF4806404F132045FEA915C3FF496
:10056800D8AE4FF003025FEADC0C18BF03325FEA33
:10057800DC0C18BF033202EBDC02C2F1200300FAE4
:1005880003FC20FA02F001FA03FE40EA0E0021FA09
:1005980002F11444BDE600BF70B54FF0FF0C4CF4F7
:1005A800E06C1CEA11541DBF1CEA135594EA0C0FA9
:1005B80095EA0C0F00F0DEF82C4481EA030621EAE4
:1005C8004C5123EA4C5350EA013518BF52EA03351F
:1005D80041F4801143F4801338D0A0FB02CE4FF0D1
:1005E8000005E1FB02E506F00042E0FB03E54FF001
:1005F8000006E1FB03569CF0000F18BF4EF0010EF9
:10060800A4F1FF04B6F5007F64F5407404D25FEAF4
:100618004E0E6D4146EB060642EAC62141EA5551A7
:100628004FEAC52040EA5E504FEACE2EB4F1FD0CE9
:1006380088BFBCF5E06F1ED8BEF1004F08BF5FEA67
:10064800500E50F1000041EB045170BD06F0004619
:1006580046EA010140EA020081EA0301B4EB5C04C6
:10066800C2BFD4EB0C0541EA045170BD41F48011BE
:100678004FF0000E013C00F3AB8014F1360FDEBFE3
:10068800002001F0004170BDC4F10004203C35DABF
:100698000C341BDC04F11404C4F1200500FA05F342
:1006A80020FA04F001FA05F240EA020001F00042E3
:1006B80021F0004110EBD37021FA04F642EB060159
:1006C8005EEA430E08BF20EAD37070BDC4F10C0483
:1006D800C4F1200500FA04F320FA05F001FA04F247
:1006E80040EA020001F0004110EBD37041F1000133
:1006F8005EEA430E08BF20EAD37070BDC4F120053E
:1007080000FA05F24EEA020E20FA04F301FA05F2A5
:1007180043EA020321FA04F001F0004121FA04F24D
:1007280020EA020000EBD3705EEA430E08BF20EA1D
:10073800D37070BD94F0000F0FD101F00046400057
:1007480041EB010111F4801F08BF013CF7D041EAD9
:10075800060195F0000F18BF704703F000465200DD
:1007680043EB030313F4801F08BF013DF7D043EAAE
:100778000603704794EA0C0F0CEA135518BF95EA64
:100788000C0F0CD050EA410618BF52EA4306D1D1EB
:1007980081EA030101F000414FF0000070BD50EA0A
:1007A800410606BF1046194652EA430619D094EA94
:1007B8000C0F02D150EA013613D195EA0C0F05D17E
:1007C80052EA03361CBF104619460AD181EA0301D2
:1007D80001F0004141F0FE4141F470014FF000008A
:1007E80070BD41F0FE4141F4780170BD70B54FF025
:1007F800FF0C4CF4E06C1CEA11541DBF1CEA1355A5
:1008080094EA0C0F95EA0C0F00F0A7F8A4EB050486
:1008180081EA030E52EA03354FEA013100F088807D
:100828004FEA03334FF0805545EA131343EA126346
:100838004FEA022245EA111545EA10654FEA0026FB
:100848000EF000419D4208BF964244F1FD0404F5B4
:10085800407402D25B084FEA3202B61A65EB030510
:100868005B084FEA32024FF480104FF4002CB6EBCD
:10087800020E75EB030E22BFB61A754640EA0C004D
:100888005B084FEA3202B6EB020E75EB030E22BF8D
:10089800B61A754640EA5C005B084FEA3202B6EBCE
:1008A800020E75EB030E22BFB61A754640EA9C008D
:1008B8005B084FEA3202B6EB020E75EB030E22BF5D
:1008C800B61A754640EADC0055EA060E18D04FEA1B
:1008D800051545EA16754FEA06164FEAC30343EABB
:1008E80052734FEAC2025FEA1C1CC0D111F4801F88
:1008F8000BD141EA00014FF000004FF0004CB6E781
:1009080011F4801F04BF01430020B4F1FD0C88BF1F
:10091800BCF5E06F3FF6AFAEB5EB030C04BFB6EB2A
:10092800020C5FEA500C50F1000041EB045170BD1D
:100938000EF0004E4EEA113114EB5C04C2BFD4EB4A
:100948000C0541EA045170BD41F480114FF0000ECE
:10095800013C90E645EA060E8DE60CEA135594EA4A
:100968000C0F08BF95EA0C0F3FF43BAF94EA0C0F4D
:100978000AD150EA01347FF434AF95EA0C0F7FF4C2
:1009880025AF104619462CE795EA0C0F06D152EA16
:1009980003353FF4FDAE1046194622E750EA4106FA
:1009A80018BF52EA43067FF4C5AE50EA41047FF40B
:1009B8000DAF52EA43057FF4EBAE12E74FF0FF3C70
:1009C80006E000BF4FF0010C02E000BF4FF0010C41
:1009D8004DF804CD4FEA410C7FEA6C5C4FEA430CBA
:1009E80018BF7FEA6C5C1BD001B050EA410C0CBF09
:1009F80052EA430C91EA030F02BF90EA020F00206B
:100A0800704710F1000F91EA030F58BF994208BFD1
:100A180090422CBFD8176FEAE37040F0010070478E
:100A28004FEA410C7FEA6C5C02D150EA013C07D1E5
:100A38004FEA430C7FEA6C5CD6D152EA033CD3D030
:100A48005DF8040B704700BF8446104662468C462A
:100A58001946634600E000BF01B5FFF7B7FF00285D
:100A680048BF10F1000F01BD4DF808EDFFF7F4FF86
:100A78000CBF012000205DF808FB00BF4DF808ED11
:100A8800FFF7EAFF34BF012000205DF808FB00BF34
:100A98004DF808EDFFF7E0FF94BF012000205DF856
:100AA80008FB00BF4DF808EDFFF7CEFF94BF01200B
:100AB80000205DF808FB00BF4DF808EDFFF7C4FF04
:100AC80034BF012000205DF808FB00BF4FEA410257
:100AD80012F5001215D211D56FF47873B3EB625288
:100AE80012D94FEAC12343F0004343EA505311F0AF
:100AF800004F23FA02F018BF404270474FF0000041
:100B0800704750EA013005D111F0004008BF6FF07E
:100B1800004070474FF00000704700BF4A0011D2F4
:100B280012F5001211D20DD56FF47873B3EB62523F
:100B38000ED44FEAC12343F0004343EA505323FA4B
:100B480002F070474FF00000704750EA013002D1C0
:100B58004FF0FF3070474FF000007047034613F81E
:100B6800012B002AFBD1181A013870474FEA410CB3
:100B78007FEA6C5C02D150EA013C0AD14FEA430C8F
:100B88007FEA6C5C02D152EA033C02D14FF00000CC
:100B980070474FF00100704710B504460E4B1878A7
:100BA8004FF47A73B3FBF0F30C4A1068B0FBF3F020
:100BB80000F058FD68B90F2C01D901200AE0002285
:100BC80021464FF0FF3000F00DFD054B1C60002062
:100BD80000E0012010BD00BF0000002044000020FC
:100BE8000400002008B5074A136843F01003136097
:100BF800032000F0E5FC0020FFF7CEFF04F0E0FA48
:100C0800002008BD00200240034A1168034B1B78EE
:100C18000B441360704700BFF80300200000002059
:100C2800014B1868704700BFF803002038B5044628
:100C3800FFF7F6FF0546B4F1FF3F02D0044B1B78DF
:100C48001C44FFF7EDFF401BA042FAD338BD00BF9C
:100C580000000020024A536843F0010353607047C4
:100C6800002004E0024A536823F0020353607047EF
:100C7800002004E0024A536843F0040353607047BD
:100C8800002004E0F0B44B6901229A400468D4F8CB
:100C9800003223F47C534D6A43EA052343F00103F1
:100CA800C4F800320568D5F81C42D3431C40C5F887
:100CB8001C42CC69C4B90568D5F80C421C40C5F87B
:100CC8000C42CF688D8806684C6945EA0745483468
:100CD80046F834508F680D8804684E6945EA074520
:100CE800483604EBC6046560CC69012C1ED08C69BB
:100CF800002C35D10568D5F804421C40C5F80442DB
:100D08000C69002C33D10468D4F814522B40C4F871
:100D180014320B6A012B31D00268D2F8003223F06A
:100D28000103C2F800320020F0BC70470568D5F80E
:100D38000C421443C5F80C420F688D8806684C694C
:100D480045EA0745483446F834508F688D89046869
:100D58004E6945EA0745483604EBC6046560C6E7B0
:100D68000568D5F804421443C5F80442C8E7046886
:100D7800D4F814321343C4F81432CAE70168D1F81E
:100D88001C321A43C1F81C22C6E7002800F09680DE
:100D980038B5044690F83C3003B3022384F83C305D
:100DA8002268136823F0020313602268136843F073
:100DB80001031360FFF734FF054623685A6812F0F1
:100DC800010F10D1FFF72CFF401B0A28F5D903208B
:100DD80084F83C00002384F83D3038BD80F83D306D
:100DE80003F038FAD9E75A6812F0010F5BD0A2690C
:100DF800012A43D00022E169012941D022F04002B2
:100E0800216A01293FD022F02002616A01293DD0E0
:100E180022F01002A16A01293BD022F00802E16AFF
:100E2800012939D022F00402196821F0FC010A4393
:100E38001A60A368E2681343226913436269134383
:100E48006268013A21681343CB612268136823F072
:100E580001031360FFF7E4FE054623685A6812F0A1
:100E6800010F1CD0FFF7DCFE401B0A28F5D9032030
:100E780084F83C00002384F83D30AEE78022BAE7CE
:100E880042F04002BCE742F02002BEE742F0100206
:100E9800C0E742F00802C2E742F00402C4E75B6818
:100EA80013F0010F04D0042384F83C30012094E7A8
:100EB80000202064012384F83C308EE7012070472D
:100EC800F8B503689A6812F0806F08D19A6812F032
:100ED800006F04D19A6812F0805F00F0EA8090F801
:100EE8003D20012A00F0EA80012280F83D2090F898
:100EF8003C20D2B2322A14D0622A16D0222A03D039
:100F0800122280F83C2002E0422280F83C209A68B5
:100F180012F0806F0DD19A6812F0006F5FD0012532
:100F280008E0522280F83C20F1E7722280F83C2049
:100F3800EDE7002505F1180212019C5804F00104A0
:100F48009C50026B9368002B4BD1066805F118037F
:100F58001B01F4581768D26842EA47522243F250FC
:100F68000E460446026B136903F00F03136103680E
:100F780005F1180212011344596821F00F01596054
:100F8800036813445968006B006901435960216B79
:100F9800C87D8B7D1B0443EA0063487D43EA002338
:100FA800097D20680B432F013844C0F88831216B34
:100FB800C87E8B7E1B0443EA0063487E43EA002315
:100FC800087E216803433944C1F88C3121688B5865
:100FD80043F001038B50FFF723FE07463BE0022551
:100FE800A8E7076805F11804240157F804C05668F3
:100FF80043EAC603D268134343EA0C033B51AFE705
:1010080026B1FFF70DFEC01BB04224D9032384F894
:101018003C303DB9236880229A60002384F83D3033
:1010280003203DE0012D04D023684FF400029A60AC
:10103800F3E723684FF400429A60EEE7012D14D0DD
:1010480023689A681E4B934314BF01230023A3B15E
:10105800B6F1FF3FD4D1002DF0D123689A68194B1F
:10106800934314BF01230023F1E723689A68164BC2
:10107800934314BF01230023E9E794F83C30DBB223
:10108800522B0ED0722B10D0422B03D0012384F8A0
:101098003C3002E0222384F83C30002084F83D00F4
:1010A800F8BD322384F83C30F7E7622384F83C30FB
:1010B800F3E7042380F83C300120F1E70220EFE752
:1010C8000000011001000004000100080A4699B957
:1010D80090F83C30DBB2222B7CD090F83C30DBB26D
:1010E800422B79D090F83C30DBB2622B76D090F866
:1010F8003C30DBB2722B73D0012A16D090F83D3009
:10110800012B75D010B4012380F83D30002A41D15D
:1011180090F83C30DBB2322B34D0522B36D0122B25
:1011280019D0222380F83C3018E090F83C30DBB22C
:10113800322B57D090F83C30DBB2522B54D090F879
:101148003C30DBB2622B51D090F83C30DBB2722BD2
:10115800D4D102207047422380F83C30002101643A
:101168000468636943F40F4343F00103636180F843
:101178003D1042B30268536943F0500353610020A5
:1011880010BC7047622380F83C30E7E7722380F890
:101198003C30E3E790F83C30DBB2222B0BD0422BFB
:1011A8000DD0122B03D0322380F83C30D6E75223DF
:1011B80080F83C30D2E7622380F83C30CEE77223D7
:1011C80080F83C30CAE70268536943F00A03536168
:1011D8000846D5E702207047022070470220704772
:1011E8000220704702207047022070470220704793
:1011F80002207047704708B50268536923F001035D
:10120800536190F83C30DBB2122B0CD090F83C3094
:10121800DBB2522B14D0722B16D0422B09D00123EB
:1012280080F83C3008E00268536923F40F435361A7
:10123800ECE7222380F83C30FFF7DCFF002008BDF4
:10124800322380F83C30F7E7622380F83C30F3E73C
:10125800704710B50C46002978D1436B016804F13A
:101268001B0212018A5802F004029A60002A6FD108
:10127800016804F11B0212018A58520D1A600168B4
:1012880004F11B021201895801F00201D9600168BA
:101298001144496801F00F0119611C6201680A4490
:1012A8005268C2F30722DA61016822011144D1F8B9
:1012B800B811197501681144D1F8B811090A59759E
:1012C80001681144D1F8B811090C997501681144E5
:1012D800D1F8B811090ED97501681144D1F8BC11BB
:1012E800197601681144D1F8BC11090A59760168C8
:1012F8001144D1F8BC11090C997601680A44D2F856
:10130800BC21120EDA765CBB03682022DA60026820
:10131800536923F00A03536190F83C30DBB2222B67
:1013280001D0322B04D10268536923F40F4353616F
:1013380074BB90F83C30DBB2622B21D0722B23D0E7
:10134800422B16D0012380F83C3015E0836B85E7EB
:10135800016804F11B0212018A58D2085A608EE70C
:10136800036820221A610268536923F0500353610D
:10137800D2E7122380F83C30FFF76AFF002010BD47
:10138800322380F83C30F7E7522380F83C30F3E70B
:1013980090F83C30DBB2622B0BD0722B0DD0522B65
:1013A80003D0012380F83C30E6E7122380F83C3074
:1013B800E2E7222380F83C30DEE7422380F83C3025
:1013C800DAE7704770B504460268D168536911F0CE
:1013D800100F09D003F00803002B00F0A68010239B
:1013E800D3604FF4007500E0002522681169536945
:1013F80003F0400311F0100F04D01BB145F48065D1
:101408001023136123685A6912F0010F28D09E68CF
:101418009968674A0A40996821F06F4121F47E0172
:10142800090C09046348B04305D06148824202D0E0
:10143800614A914214D199689A6802F400729B68D3
:1014480003F0010311F0020F02D10AB9002B6ED08C
:101458002046FFF7D0FE22689168584B0B439360F3
:101468002368DA685B6903F0020312F0030F01D006
:10147800002B5FD123681A695B6903F0100312F02F
:10148800030F01D0002B5AD1236C2B43236423680C
:1014980098695A6902F48072596901F4004110F0A0
:1014A800010F05D022B119B1226C42F00102226469
:1014B80098695A6902F40072596901F4004110F000
:1014C800020F05D022B119B1226C42F00202226447
:1014D80098695A6902F48062596901F4004110F070
:1014E800040F05D022B119B1226C42F00402226423
:1014F80098695A6902F40062596901F4004110F0D0
:10150800700F32D08AB381B39A6902F07002302A20
:101518002ED019D9502A30D0602A33D0402A20D171
:10152800226C42F0400222641BE000255DE745F48E
:10153800006590E700212046FFF78BFE9AE701211E
:101548002046FFF786FE9FE7102A06D0202A08D1FA
:10155800226C42F01002226403E0226C42F008027E
:1015680022649A6922F070029A61236C7BB970BD7B
:10157800226C42F020022264F3E7226C42F08002DF
:101588002264EEE7226C42F480722264E9E7236861
:1015980004225A60012384F83C302268536923F4FA
:1015A8000F4323F05B0353612046FFF70AFFDEE792
:1015B80000010008010000040000011009050100F5
:1015C800074AD36823F4E0631B041B0C000200F4F1
:1015D800E060184340F0BF6040F40030D0607047CE
:1015E80000ED00E030B4174BDB68C3F30223C3F10E
:1015F8000704042C28BF04241D1D062D18D9033BFD
:101608004FF0FF3505FA04F421EA0401994005FA80
:1016180003F322EA0303194300280BDB0901C9B2CB
:1016280000F1604000F5614080F8001330BC70475D
:101638000023E5E700F00F000901C9B2024B195475
:10164800F4E700BF00ED00E014ED00E000F01F0239
:10165800400901239340024A42F82030704700BFF6
:1016680000E100E00138B0F1807F0AD2064B5860F3
:10167800064AF02182F823100020986007221A6099
:1016880070470120704700BF10E000E000ED00E067
:10169800042805D0054A136823F004031360704733
:1016A800024A136843F004031360704710E000E037
:1016B800704708B5FFF7FCFF08BD0000F0B482B022
:1016C80000263546ABE0002C63D0012C00D1CE6853
:1016D800FF2B72D88446FF2B72D8AC00DCF80020B0
:1016E8000F27A74022EA070206FA04F42243CCF89F
:1016F80000204A6812F0805F00F09080654A946983
:1017080044F001049461926902F001020192019A85
:10171800AC08A71C604A52F827C005F003029700DE
:101728000F22BA402CEA020C5C4A90424ED002F5D5
:101738008062904200F08B8002F58062904200F057
:10174800888002F58062904200F0858002F5806210
:10175800904200F0828002F58062904234D00622E6
:1017680035E04F4FBC4214D00BD94E4FBC4210D07D
:1017780007F58037BC420CD0A7F58017BC42A7D12B
:1017880007E0A7F58017BC4203D007F58037BC42B5
:101798009ED18C687CB1012C08D04261082697E75D
:1017A800CE68083694E7CE680C3691E702610826C1
:1017B8008EE700268CE704268AE700F1040C8AE706
:1017C800A5F10804A40089E7052200E00022BA4038
:1017D80042EA0C020234304F47F824204A6812F4D7
:1017E800803F3CD0304C22681A4322604A6812F489
:1017F800003F3AD02C4C62681A4362604A6812F47F
:10180800801F38D0284CA2681A43A2604A6812F494
:10181800001F36D0244CE2681343E36001350F2DD6
:1018280035D80122AA400B6813409A42F6D14C6879
:10183800122CB8D095D8022CB2D07FF644AF032C26
:10184800B7D0112C7FF444AFCE68043640E70122AC
:10185800BDE70222BBE70322B9E70422B7E7124C2F
:10186800226822EA03022260C0E70F4C626822EA7B
:1018780003026260C2E70C4CA26822EA0302A2607B
:10188800C4E7094CE26822EA0303E360C6E702B052
:10189800F0BC704700100240000001400008014001
:1018A80000002110000031100004014012B90904A1
:1018B800016170470161704703685A6912F4806FCB
:1018C8000DD06FF480625A6104230364002303631C
:1018D800202280F83D2080F83C300120704700200D
:1018E8007047F8B506460C4617461D461EE02DB152
:1018F800FFF796F9069BC01AA84217D9002333634D
:10190800202286F83D2086F83E3086F83C300320B9
:101918001AE033685B6924EA03039BB2B3FA83F3E2
:101928005B099F420FD1B5F1FF3FE0D1C4F30743F4
:10193800012BEED033689B6924EA03039BB2B3FA08
:1019480083F35B09EDE70020F8BDF8B504460D46C2
:1019580016461F4632E01A6842F400721A6023687D
:101968006FF480625A6104232364002323632022D6
:1019780084F83D2084F83C3001202DE026B1FFF7A3
:101988004FF9C01BB04219D900232363202284F8E1
:101998003D2084F83C3003201EE023685B6925EA7B
:1019A80003039BB2003318BF0123A3B123685A690C
:1019B80012F4806FCFD1B6F1FF3FDFD1C5F30743F3
:1019C800012BEAD023689B6925EA03039BB2003305
:1019D80018BF0123E9E70020F8BD0000F0B583B087
:1019E80004460D4616461F46C36A042B0DD0012B2C
:1019F8000BD013F5803F08D0036B122B0AD1026875
:101A0800136843F48073136004E02268136843F496
:101A1800807313600097334600224FF0011120466F
:101A2800FFF75FFF58BB2369B3F5804F10D12368D8
:101A380005F0FE051D613B46324615492046FFF775
:101A480084FF0346E0B1236C042B1ED1012317E069
:101A5800EB11226803F0060343F0F00313613B46E1
:101A680032460C492046FFF770FF20B1236C042B47
:101A780009D1012304E02368EDB21D61DBE70323EC
:101A8800184603B0F0BD0323FAE70323F8E700BFC5
:101A9800020001000800010070B504460D46164614
:101AA80023685B6913F0800F19D12046FFF704FF04
:101AB800B8B9B5F1FF3FF3D025B1FFF7B1F8801BF6
:101AC800A842EDD9236C43F0200323640023236349
:101AD800202284F83D2084F83C30032000E00020D8
:101AE80070BD0120FCE700002DE9F04184B00446F8
:101AF8000E46174698460B9D0268136843F4807398
:101B0800136000950A9B00224FF00111FFF7E9FED0
:101B1800002847D1236806F0FE061E612B460A9A64
:101B280026492046FFF711FF20B1236C042B3ED134
:101B3800012338E00023039323685A6903929B69C1
:101B48000393039B2A460A992046FFF7A5FF0346FD
:101B580048B1236C042B2CD12268136843F400731A
:101B6800136001231FE0B8F1010F13D023683A0A6C
:101B78001A612A460A992046FFF78EFF034668B184
:101B8800236C042B17D12268136843F40073136085
:101B9800012308E02268FFB2176104E02268FFB25F
:101BA800176100E00323184604B0BDE8F081032361
:101BB800F9E70323F7E70323F5E700BF0200010075
:101BC80070B504460D46164623685B6913F0040F8A
:101BD80019D12046FFF770FEB8B9B5F1FF3FF3D031
:101BE80025B1FFF71DF8801BA842EDD9236C43F0FF
:101BF8002003236400232363202284F83D2084F8F3
:101C08003C30032000E0002070BD0120FCE700000C
:101C1800002800F0A28038B5044690F83D30002B2B
:101C28004FD0242384F83D302268136823F0010341
:101C3800136000F025FD62684A4B9A4246D84A4B29
:101C480098428CBF00230123002B40F08880474B2B
:101C5800A3FB00239B0C226853606168414A9142B0
:101C68003AD801332268136261683E4B99423DD8E5
:101C7800431E4900B3FBF1F30133C3F30B03042BF9
:101C880038BF04232268D361E369216A22680B43C1
:101C980013602369E16822680B4393606369A16953
:101CA80022680B43D3602268136843F00103136072
:101CB80000202064202384F83D30206384F83E000F
:101CC80038BD80F83C3002F0CDFBAAE7284B98429B
:101CD8008CBF00230123B7E74FF4967202FB03F38E
:101CE800244AA2FB03239B090133BBE7A368BBB9C2
:101CF800421E01EB4105B2FBF5F20132C2F30B02C1
:101D0800B2FA82F2520932BBC3B9013801EB41037E
:101D1800B0FBF3F30133C3F30B0343F40043B1E720
:101D2800421E01EB810505EB8505B2FBF5F2013298
:101D3800C2F30B02B2FA82F25209E4E7013801EB6E
:101D4800810303EB8303B0FBF3F30133C3F30B030A
:101D580043F4404396E7012394E7012070470120AC
:101D6800AEE700BFA08601007F841E0083DE1B4310
:101D7800FF083D00D34D62102DE9F04184B00446C0
:101D88000E4690461F46FEF74BFF94F83D30DBB2F7
:101D9800202B04D00226304604B0BDE8F081054669
:101DA80000901923012254492046FFF79AFD002884
:101DB80040F0998094F83C30012B00F09680012384
:101DC80084F83C3023681A6812F0010F03D11A68AE
:101DD80042F001021A602268136823F4006313605A
:101DE800212384F83D30102384F83E3000232364F7
:101DF800C4F824806785A3F58033E362638D238567
:101E08002B460A9A31462046FFF7E8FD064660B1A0
:101E1800236C042B04D1002384F83C300126BAE754
:101E2800002384F83C300326B5E700230393236896
:101E38005A6903929B690393039B10E0236C042B5C
:101E480055D12268136843F4007313600126A2E792
:101E58002A460A992046FFF7B3FE00282BD1238D86
:101E6800002B32D02A460A992046FFF715FE002893
:101E7800E4D1636A5A1C626222681B781361638D1D
:101E8800013B9BB26385238D013B9BB2238522686E
:101E9800516911F0040FDBD0002BD9D0636A591CAB
:101EA80061621B781361638D013B9BB26385238D4F
:101EB800013B2385CCE7236C042B1AD122681368D5
:101EC80043F400731360012665E72268136843F43E
:101ED80000731360202384F83D30002384F83E30DB
:101EE80084F83C3057E7022655E7022653E70326D5
:101EF80051E703264FE700BF020010002DE9F0412B
:101F080082B004460E4617469846FEF789FE94F8B6
:101F18003D30DBB2202B04D00223184602B0BDE8C6
:101F2800F081054600901923012251492046FFF708
:101F3800D8FC002840F0938094F83C30012B00F046
:101F48009080012384F83C3023681A6812F0010F4E
:101F580003D11A6842F001021A602268136823F458
:101F680000631360212384F83D30402384F83E3019
:101F780000232364089B6362BDF8243063853D4BCE
:101F8800E362638D238501950A9B009343463A4695
:101F980031462046FFF7A8FDB0B1236C042B04D1CD
:101FA800002384F83C300123B7E7002384F83C3051
:101FB8000323B2E7236C042B55D12268136843F43A
:101FC800007313600123A8E7238D002B28D02A462D
:101FD8000A992046FFF760FD0028EBD1636A5A1C76
:101FE800626222681B781361238D013B9BB22385B3
:101FF800628D013A92B262852268516911F0040F2C
:10200800E2D0002BE0D0636A591C61621B7813612F
:10201800238D013B2385638D013B9BB26385D3E709
:102028002A460A992046FFF7CBFD034648B1236CA0
:10203800042B1AD12268136843F400731360012338
:102048006BE721680A6842F400720A60202284F86B
:102058003D20002284F83E2084F83C205DE70223DE
:102068005BE7022359E7032357E7032355E700BF3C
:10207800020010000000FFFF82B0084B1B68084AEE
:10208800A2FB03235B0A00FB03F0019000BF019B46
:102098005A1E0192002BF9D102B07047440000206B
:1020A800D34D621070B582B00446036813F0010F77
:1020B8002CD0AB4B5B6803F00C03042B1DD0A84B52
:1020C8005B6803F00C03082B12D06368B3F5803FFC
:1020D80041D0002B55D103F1804303F504331A682E
:1020E80022F480321A601A6822F480221A6037E0DB
:1020F8009B4B5B6813F4803FE7D0994B1B6813F444
:10210800003F03D06368002B00F0AE81236813F012
:10211800020F76D0924B5B6813F00C0F5FD0904B98
:102128005B6803F00C03082B54D02369002B00F0E4
:102138008A808C4B01221A60FEF772FD0546884B97
:102148001B6813F0020F75D1FEF76AFD401B0228C9
:10215800F5D903208BE1824A136843F48033136076
:10216800636843B3FEF75CFD05467D4B1B6813F4BB
:10217800003FCBD1FEF754FD401B6428F5D903205E
:1021880075E1B3F5A02F09D0754B1A6822F4803297
:102198001A601A6822F480221A60E1E703F180438A
:1021A800A3F53C331A6842F480221A601A6842F494
:1021B80080321A60D4E7FEF733FD0546684B1B688A
:1021C80013F4003FA2D0FEF72BFD401B6428F5D97D
:1021D80003204CE1624B5B6813F4803FA5D1604B50
:1021E8001B6813F0020F04D02369012B01D00120D2
:1021F8003DE15B4A136823F0F803616943EAC103D0
:102208001360236813F0080F32D0A369002B5BD04A
:10221800554B01221A60FEF703FD0546504B5B6AD9
:1022280013F0020F21D1FEF7FBFC401B0228F5D961
:1022380003201CE14A4A136823F0F803616943EA62
:10224800C1031360DDE7474B00221A60FEF7E8FC84
:102258000546434B1B6813F0020FD2D0FEF7E0FC93
:10226800401B0228F5D9032001E10120FFF704FFF4
:10227800236813F0040F00F09780394BDB6913F0E3
:10228800805F33D1364BDA6942F08052DA61DB691C
:1022980003F080530193019B0125344B1B6813F411
:1022A800807F25D0E368012B36D0002B4CD103F179
:1022B800804303F504331A6A22F001021A621A6A8B
:1022C80022F004021A622CE0274B00221A60FEF763
:1022D800A7FC0546224B5B6A13F0020FC8D0FEF735
:1022E8009FFC401B0228F5D90320C0E00025D4E755
:1022F8001E4A136843F480731360FEF791FC064688
:102308001A4B1B6813F4807FCCD1FEF789FC801B25
:102318006428F5D90320AAE0114A136A43F001039F
:102328001362E36873B3FEF77BFC06460C4B1B6A2B
:1023380013F0020F37D1FEF773FC801B41F288338C
:102348009842F3D9032092E0052B11D0044B1A6A66
:1023580022F001021A621A6A22F004021A62E0E705
:1023680000100240000042428004424200700040D7
:10237800414B1A6A42F004021A621A6A42F00102D8
:102388001A62CEE7FEF74CFC06463B4B1B6A13F07D
:10239800020F08D0FEF744FC801B41F288339842B4
:1023A800F3D9032063E0E5B9E369002B5ED0324A34
:1023B800526802F00C02082A5BD0022B17D02F4B70
:1023C80000221A60FEF72CFC04462B4B1B6813F006
:1023D800007F47D0FEF724FC001B0228F5D9032014
:1023E80045E0254AD36923F08053D361DCE7234BCA
:1023F80000221A60FEF714FC05461F4B1B6813F0F9
:10240800007F06D0FEF70CFC401B0228F5D90320FC
:102418002DE0236AB3F5803F1AD017494B6823F49F
:102428007413226A606A024313434B60134B012200
:102438001A60FEF7F5FB04460F4B1B6813F0007F8C
:102448000ED1FEF7EDFB001B0228F5D903200EE0A4
:10245800094A536823F40033A1680B435360DCE74F
:10246800002004E0002002E0012000E0002002B08B
:1024780070BD0120FBE700BF00100240600042422F
:1024880010B487B0184C94E80F000DF1180C0CE943
:102498000F00238AADF80430144B5B6803F00C027C
:1024A800042A03D0082A05D0114800E0114807B0D3
:1024B80010BC7047C3F3834206A90A4412F8102CD3
:1024C80013F4803F0CD0094B5B68C3F340430B44C3
:1024D80013F8143C074800FB02F0B0FBF3F0E6E702
:1024E800054800FB02F0E2E75078000800100240BF
:1024F80000127A000024F40000093D00594B1B68C3
:1025080003F007038B420CD2564A136823F00703E3
:102518000B431360136803F007038B4201D00120BB
:10252800704770B5036813F0020F06D04E4A53681F
:1025380023F0F0038468234353600C460546036880
:1025480013F0010F52D04368012B23D0022B28D05F
:10255800454A126812F0020F00F0828042494A6828
:1025680022F0030213434B60FEF75AFB06466B68E2
:10257800012B1DD0022B2AD03B4B5B6813F00C0FAC
:1025880034D0FEF74DFB801B41F288339842F3D9D3
:10259800032064E0344A126812F4003FDED10120BF
:1025A8005DE0314A126812F0007FD7D1012056E071
:1025B8002D4B5B6803F00C03042B17D0FEF730FBA0
:1025C800801B41F288339842F2D9032047E0264B1A
:1025D8005B6803F00C03082B08D0FEF721FB801B77
:1025E80041F288339842F2D9032038E01D4B1B682A
:1025F80003F00703A3420CD91A4A136823F0070310
:1026080023431360136803F00703A34201D001209A
:1026180025E02B6813F0040F06D0134A536823F4FF
:10262800E063E9680B4353602B6813F0080F07D089
:102638000D4A536823F46053296943EAC103536080
:10264800FFF71EFF084B5B68C3F30313074AD35C0D
:10265800D840074B18600020FEF79EFA002070BD96
:102668000120FCE70020024000100240D0B1000821
:1026780044000020014B1868704700BF4400002048
:1026880008B5FFF7F7FF044B5B68C3F30223034A5F
:10269800D35CD84008BD00BF00100240E0B100087C
:1026A80008B5FFF7E7FF044B5B68C3F3C223034A8F
:1026B800D35CD84008BD00BF00100240E0B100085C
:1026C800F8B505460F4616461C463BE02CB1FEF70A
:1026D800A7FA069BC01AA04234D32A68536823F08D
:1026E800E00353606B68B3F5827F0BD0AB6AB3F538
:1026F800005F14D0012385F85130002385F850304D
:10270800032027E0AB68B3F5004F02D0B3F5806F24
:10271800ECD12A68136823F040031360E6E72A68BF
:10272800136823F400531B041B0C13602A681368F6
:1027380043F400531360DDE70123B34209D0B4F139
:10274800FF3FC3D12B689B6837EA0303F4D000230B
:10275800F3E70020F8BD10B582B0044600920B469E
:1027680000228021FFF7ACFF034610B9184602B0DB
:1027780010BD636D43F0200363650323F6E72DE97D
:10278800F04184B01E4690F85030012B00F0C8800C
:1027980004460D469046012380F85030FEF740FA73
:1027A800074694F85130DBB2012B0AD002230122EC
:1027B80084F85120002284F85020184604B0BDE85F
:1027C800F081002D00F0A480B8F1000F00F0A28085
:1027D800032384F85130002363652563A4F834800B
:1027E800A4F83680A363A387E38763642364A3689C
:1027F800B3F5004F1BD023681A6812F0400F03D1BD
:102808001A6842F040021A60E368B3F5006F14D00A
:1028180063681BB1E38E9BB2012B3ED1236815F888
:10282800012B1A73E38E013B9BB2E38635E02268E5
:10283800136843F480431360DDE763681BB1E38EDC
:102848009BB2012B0DD1236835F8022BDA60E38E99
:10285800013B9BB2E38604E0002E5DD0B6F1FF3F5A
:102868000FD1E38E9BB27BB323689A6812F0020FF4
:10287800F2D035F8022BDA60E38E013B9BB2E38697
:10288800EFE7FEF7CDF9C01BB042EAD303238EE78A
:10289800002E43D0B6F1FF3F0FD1E38E9BB29BB120
:1028A80023689A6812F0020FF2D015F8012B1A73F8
:1028B800E38E013B9BB2E386EFE7FEF7B1F9C01B5D
:1028C800B042EAD3032372E700973346012202217C
:1028D8002046FFF7F5FE08B1032368E73A4631467C
:1028E8002046FFF738FF034618B12023636501230C
:1028F8005DE7A26832B903922268D16803919268B1
:102908000392039A626D002A3FF451AF01234EE708
:1029180001234CE701234AE7032348E7032346E75B
:1029280002234AE790F85100704700283CD010B5C0
:1029380004460023836290F85130002B31D00223E3
:1029480084F851302268136823F0400313606368E9
:10295800A2681343E268134322691343626913436D
:10296800A26902F400721343E2691343226A134313
:10297800A16A22680B431360638B03F00403616A46
:1029880022680B4353602368E26A1A612268D3699C
:1029980023F40063D36100206065012384F851307B
:1029A80010BD02F0CDFBCAE70120704730B4036ABE
:1029B80023F001030362056A4268846924F0730402
:1029C8000B681C4325F002058B682B43104DA84269
:1029D80003D005F50065A84205D123F00803CD68AA
:1029E8002B4323F004030A4DA84203D005F50065E4
:1029F800A84205D122F440724D6915438A692A43D9
:102A0800426084614A684263036230BC704700BF19
:102A1800002C014030B4036A23F480730362036A14
:102A28004268C46924F073040D682C4323F40073CE
:102A38008D6843EA0523124DA84203D005F50065C9
:102A4800A84206D123F40063CD6843EA052323F4A2
:102A580080630B4DA84203D005F50065A84207D155
:102A680022F440524D6942EA05128D6942EA051284
:102A78004260C4614A68C263036230BC704700BFE9
:102A8800002C014030B4036A23F480530362036AC4
:102A98004468C26922F4E6420D6842EA052223F43A
:102AA80000538D6843EA0533094DA84203D005F564
:102AB8000065A84204D124F480444D6944EA851491
:102AC8004460C2614A680264036230BC704700BF58
:102AD800002C014010B4036A046A24F00104046263
:102AE800846924F0F00444EA021223F00A030B4339
:102AF8008261036210BC704710B4036A23F01003AC
:102B080003628469036A24F4704444EA023223F0BD
:102B1800A00343EA01138261036210BC7047836813
:102B280023F0700341F0070119438160704710B426
:102B3800846824F47F4442EA03230B4323438360DD
:102B480010BC7047704790F83C30012B7DD010B511
:102B58000446012380F83C30022380F83D300268A7
:102B6800936823F47F4323F0770393600B68402B2B
:102B780057D010D9702B3ED01FD8502B47D0602B80
:102B880032D1CA6849680068FFF7B6FF602120683B
:102B9800FFF7C5FF28E0102B4DD008D9202B4FD0C8
:102BA800302B21D130210068FFF7B9FF1CE0DBB9D9
:102BB80000210068FFF7B3FF16E0B3F5805F0ED081
:102BC800B3F5005F10D1CB684A6889680068FFF7E1
:102BD800AEFF2268936843F48043936004E0026880
:102BE800936823F007039360012384F83D300020A5
:102BF80084F83C0010BDCB684A6889680068FFF714
:102C080096FF2268936843F077039360ECE7CA68FD
:102C180049680068FFF75EFF50212068FFF77FFFD3
:102C2800E2E7CA6849680068FFF754FF4021206856
:102C3800FFF775FFD8E710210068FFF770FFD3E7AB
:102C480020210068FFF76BFFCEE7022070470000E5
:102C58000368244A904212D002F5006290420ED0D6
:102C6800B0F1804F0BD0A2F59832904207D002F510
:102C78008062904203D002F58062904203D123F033
:102C880070034A681343174A904212D002F5006253
:102C980090420ED0B0F1804F0BD0A2F598329042FE
:102CA80007D002F58062904203D002F5806290421C
:102CB80003D123F44073CA68134323F080034A699D
:102CC800134303608B68C3620B688362054B9842A9
:102CD80003D003F50063984201D10B690363012314
:102CE80043617047002C0140A8B110B5044690F824
:102CF8003D305BB1022384F83D30211D2068FFF789
:102D0800A7FF012384F83D30002010BD80F83C3037
:102D180002F000FBEEE701207047A8B110B50446A9
:102D280090F83D305BB1022384F83D30211D2068C6
:102D3800FFF78EFF012384F83D30002010BD80F896
:102D48003C30FFF7FFFEEEE70120704730B4036A1E
:102D580023F010030362036A4468826922F4E6429E
:102D68000D6842EA052223F020038D6843EA051323
:102D7800114DA84203D005F50065A84206D123F0FD
:102D88008003CD6843EA051323F040030A4DA842A7
:102D980003D005F50065A84207D124F440644D69C5
:102DA80044EA85048D6944EA8504446082614A687E
:102DB8008263036230BC7047002C014038B590F83C
:102DC8003C30012B66D00D460446012380F83C3088
:102DD800022380F83D300C2A1AD8DFE802F00719E0
:102DE8001919201919193419191947000068FFF71A
:102DF800DDFD2268936943F00803936122689369B3
:102E080023F0040393612268936929690B43936152
:102E1800012384F83D30002084F83C0038BD006868
:102E2800FFF794FF2268936943F400639361226873
:102E3800936923F48063936122689369296943EA5B
:102E480001239361E4E70068FFF7E4FD2268D36992
:102E580043F00803D3612268D36923F00403D361E4
:102E68002268D36929690B43D361D1E70068FFF76A
:102E780009FE2268D36943F40063D3612268D369E9
:102E880023F48063D3612268D369296943EA012363
:102E9800D361BDE70220C1E710B4012303FA01F4AE
:102EA800036A23EA04030362036A8A401343036242
:102EB80010BC704710B5044601220068FFF7ECFF0C
:102EC8002368094A934203D002F50062934203D172
:102ED8005A6C42F400425A642268136843F00103B2
:102EE8001360002010BD00BF002C014090F83C305A
:102EF800012B22D030B4012280F83C20022380F834
:102F08003D300468636823F0700363600468636895
:102F18000D682B4363600468A36823F08003A360F3
:102F28000468A36849680B43A36080F83D20002328
:102F380080F83C30184630BC7047022070470000CB
:102F48002DE9F84305460268136923F44053C16824
:102F58000B43136183680269134342691343016891
:102F6800CA6822F4B05222F00C021343CB60026804
:102F7800536923F4407381690B4353610268594BC9
:102F88009A4257D0FFF77CFB00EB800000EB8000F3
:102F98006C68A400B0FBF4F4534FA7FB0434640935
:102FA8002601FFF76DFB00EB800000EB80006C68EA
:102FB800A400B0FBF4F9FFF763FB00EB800000EB23
:102FC80080006C68A400B0FBF4F4A7FB0434640927
:102FD8004FF0640808FB149424013234A7FB04342E
:102FE800640904F0F0043444FFF74AFB00EB800066
:102FF80000EB80006E68B600B0FBF6F6FFF740FB0A
:1030080000EB800000EB80006B689B00B0FBF3F0E6
:10301800A7FB0030400908FB10684FEA081808F1C0
:103028003208A7FB0837C7F343172B6827449F606C
:10303800BDE8F883FFF734FB00EB800000EB80006D
:103048006C68A400B0FBF4F4274FA7FB04346409B0
:103058002601FFF725FB00EB800000EB80006C6881
:10306800A400B0FBF4F9FFF71BFB00EB800000EBBA
:1030780080006C68A400B0FBF4F4A7FB0434640976
:103088004FF0640808FB149424013234A7FB04347D
:10309800640904F0F0043444FFF702FB00EB8000FD
:1030A80000EB80006E68B600B0FBF6F6FFF7F8FAA2
:1030B80000EB800000EB80006B689B00B0FBF3F036
:1030C800A7FB0030400908FB10684FEA081808F110
:1030D8003208A7FB0837C7F343172B6827449F60BC
:1030E800A6E700BF003801401F85EB512DE9F041EC
:1030F80005460F4616469846069C2B681B6837EA15
:1031080003030CBF01230023B3421DD1B4F1FF3FD9
:10311800F3D02CB1FDF784FDA0EB0800A042ECD958
:103128002A68D36823F4D073D3602A68536923F0DC
:1031380001035361202385F8393085F83A3000239C
:1031480085F83830032000E00020BDE8F08158B34E
:1031580010B5044690F839300BB3242384F839307D
:103168002268D36823F40053D3602046FFF7E8FEB3
:103178002268136923F4904313612268536923F08A
:103188002A0353612268D36843F40053D3600020B4
:10319800E063202384F8393084F83A3010BD80F891
:1031A800383002F099F9D8E7012070472DE9F0414D
:1031B80082B01E4690F83930DBB2202B55D1044638
:1031C8000D469046002955D0002A55D090F8383041
:1031D800012B53D0012380F838300023C363212307
:1031E80080F83930FDF71CFD0746A4F82480A4F8C0
:1031F800268010E000963B46002280212046FFF7FB
:1032080075FF00283CD12B882268C3F3080353605C
:103218002369C3B90235E38C9BB2B3B1E38C013B9C
:103228009BB2E384A368B3F5805FE3D000963B4686
:10323800002280212046FFF759FF18BB2A7823680F
:103248005A600135E7E70135E5E700963B4600227D
:1032580040212046FFF74AFF0346A8B9202284F8F8
:103268003920002284F8382000E00223184602B0F2
:10327800BDE8F0810123F9E70123F7E70223F5E729
:103288000323F3E70323F1E70323EFE708B5034B31
:10329800A3FB0030C008FDF7C9FC08BD1F85EB5132
:1032A80000BF00BF00BF704700BF00BF00BF00BF26
:1032B80000BF00BF7047000000B583B018468DF806
:1032C80007200139062907D8DFE801F0040A1506A6
:1032D8002A393900FFF7E4FF012003B05DF804FB49
:1032E800FFF7E2FF9DF8072004211A48FEF7DEFAEF
:1032F800FFF7DAFFF0E79DF8073053B9FFF7D0FF83
:1033080001224FF480611448FEF7D0FAFFF7C8FF96
:10331800E2E700224FF480610F48FEF7C7FAF5E7AD
:10332800642301220DF107010C48FFF728FA0B4826
:10333800FFF7F8FA0128FAD1FFF7B2FFCCE76423C8
:103348009DF8072001460548FFF719FAFFF7A8FF7F
:10335800C2E700BF00140140001001400C06002025
:1033680010B5ADF57C7D14460139062907D8DFE88C
:1033780001F0040A060615252500FFF791FF012034
:103388000DF57C7D10BDFFF78FFF1CB9174B002290
:103398001A70F4E7154B40221A70F0E7134B1B78AC
:1033A8008DF808308DF8094042F21073009302231B
:1033B80002AA78210E48FEF7DFFCE0E70B4A1278F4
:1033C8008DF80820012204E0187802A988540132F7
:1033D80001339442F8DA42F210730093234602AAAA
:1033E80078210348FEF7C8FCC9E700BF3402002073
:1033F800400400202DE9F04182B080460D46174672
:103408001C46089E0CE016F8013B009300233A4640
:103418002946404600F0E2FB013CE4B20835EDB233
:10342800002CF0D102B0BDE8F0812DE9F04383B063
:103438008146884615461F469DF828400B9EDB00AE
:10344800009403F0F80300F013F860B90DE000965B
:103458003B462A4641464846FFF7CCFF3E440135E5
:10346800EDB2013CE4B2002CF1D103B0BDE8F08329
:1034780070B49DF80C401444E4B2013CE4B290F8F6
:10348800395090F83B60964205D3A54207D9A2422D
:1034980005D800201CE0A54219D8A2421AD90B442D
:1034A800DBB2013BDBB290F8382090F83A00884252
:1034B80005D39A4210D9994210D9012008E09A42BE
:1034C8000ED8994201D8002002E0012000E0002037
:1034D80070BC70470020FBE70120F9E70020F7E700
:1034E8000020F5E710B58C6800230121A04710BD26
:1034F80010B58C6800230321A04710BD10B58C6857
:1035080000231A460421A04710BD10B58C6800237B
:1035180001220421A04710BD10B58C6800230221A8
:10352800A04710BD10B58C6800230521A04710BD29
:1035380010B58C680621A04710BD2DE9F04107465B
:1035480088461546002607E0224641463846FFF7DA
:10355800E9FF002850D001352C781EB9FF2CF3D193
:103568000126F8E7FF2C10D0FE2C46D0EF2C3FD8D0
:10357800DF2C13D8CF2C19D8BF2C1FD8BD2C39D885
:1035880014F0800F2FD00026E5E722464146384642
:10359800FFF7C8FF064680B30026DCE704F00F02F9
:1035A80041463846FFF7B8FF0026D4E704F00F027B
:1035B80041463846FFF79CFF0026CCE7414638468F
:1035C800FFF79CFF2401E4B2023404F0FE04204615
:1035D800FFF75CFE41463846FFF797FF2046FFF7A6
:1035E80055FE0026B7E72046FFF750FE0026B2E753
:1035F8000026B0E70026AEE706463046BDE8F08173
:10360800012070472DE9F84305460C4616461F462B
:10361800A2F10A030B2B0FD8DFE803F0060E0E0EFB
:103628000E0E5F640E0E0E160222FFF75BFF304A85
:1036380021462846FFF781FF3B4632462146284669
:1036480000F0D9FBBDE8F883D1F80480DFF8AC902E
:103658004A46FFF772FF98F80420520062F04F02C2
:1036680002F0FE0221462846FFF75CFF01222146B0
:103678002846FFF751FFD8F8083098F8052021466A
:103688002846FFF755FF002221462846FFF730FF5E
:103698004A4621462846FFF750FF98F80420520072
:1036A800013252B262F04F02D2B221462846FFF7E9
:1036B80039FF012221462846FFF72EFF98F80520FA
:1036C800D8F80830134421462846FFF731FF002276
:1036D80021462846FFF70CFFAEE7064AFFF72DFF05
:1036E8000120AFE7044AFFF728FF0120AAE700BF3F
:1036F80064780008A0780008947800088C7800089E
:103708002DE9F04105460C4616461F46A2F10A036C
:103718000B2B0FD8DFE803F0060E0E0E0E385156AD
:103728000E0E0E180222FFF7DDFE294A2146284612
:10373800FFF703FF3B4632462146284600F009FCC6
:1037480003461846BDE8F081D1F80480214AFFF706
:10375800F4FE98F8042042F0B00221462846FFF70C
:10376800E1FE012221462846FFF7D6FE22462946D9
:10377800404600F0D0FA03460028E2D00022214655
:103788002846FFF7B5FED5E70122FFF7B1FE002274
:1037980021462846FFF7C0FE812221462846FFF72A
:1037A800C1FE3A7821462846FFF7BCFE0022214692
:1037B8002846FFF79DFE0123C3E7074AFFF7BDFE32
:1037C8000123BEE7054AFFF7B8FE0123B9E700BFAA
:1037D800B4780008AC780008EC780008E0780008B5
:1037E800405C70474218435C507800EB032080B27D
:1037F800704708B50021FFF7F3FF08BD08B5FFF7CC
:10380800F8FF18B1022801D0032008BD0620FCE704
:1038180010B50C46FFF7F2FF204410BD38B504463A
:103828000D468068FFF7E5FF98B1022811D02B7884
:1038380003F00F02023AA2771B0963776B7803F053
:103848000F0284F820201B09E377AB781B09237744
:1038580038BD2B78E3776B7884F8203095F90330FE
:10386800237795F90430637795F90530A377EFE767
:1038780000230377C37780F8203043778377704736
:103888000020704708B50621FFF7ACFF08BD08B552
:103898000821FFF7A7FF08BD08B50A21FFF7A0FF19
:1038A80008BD08B50B21FFF79BFF08BD2DE9F047C0
:1038B80082460F4685682846FFF79BFF0446284640
:1038C800FFF79CFF8146012C12D04FF0FF082846D5
:1038D800FFF7E2FF04462846FFF7E3FF06462846BF
:1038E800FFF7D5FF602F06D928B1054461240CE005
:1038F8004FF00F08EBE72846FFF7C4FF402F03D926
:1039080010B10544412400E01135BE4208D3B44249
:1039180010D95046FFF7ACFF00252846BDE8F087D0
:103928005046FFF7A5FF0025F7E70135B442F0D070
:103938000134E4B22B78FF2BF7D0BC4205D0AB782A
:1039480003EA08034B441D44F0E729465046FFF7B5
:1039580065FFE2E72DE9F04F85B080460D46144635
:103968001946FFF7A3FF002848D00146D8F80800F9
:10397800FFF74EFF074698F81F9098F820B098F880
:103988001D102944C9B2039198F81E60A61BF6B20F
:10399800013EF6B2A6EB0B06F6B20136F6B2CDF84A
:1039A80000B04B4632464046FFF762FD30B109F1A0
:1039B8000709C9F3C4094FF0000A17E098F91C0079
:1039C8001DE017F8013B0093002332462946404684
:1039D80000F004F90835EDB20134E4B24C45F0D3F7
:1039E8000136F6B20AF1010A5FFA8AFADA4502D21A
:1039F800039D0024F2E798F91C0000E0002005B0C0
:103A0800BDE8F08F2DE9F04180460C4617461E466A
:103A1800436A98470744FFB200250AE03A46214620
:103A28004046FFF797FFC0B20444E4B20544EDB244
:103A380001363378002BF1D12846BDE8F08100002B
:103A4800014B4362704700BF8938000810B50C6805
:103A5800A04710BD38B504460D46436B0220984771
:103A680000230A2229462046FFF7F0FF0546636B2C
:103A780003209847636B00209847284638BD38B51F
:103A880004460D46436B02209847636B0120984714
:103A98000023142229462046FFF7D8FF04F13803F3
:103AA800172229462046FFF7D1FF636B002098476D
:103AB80038BD70B504460D46436B02209847636BCA
:103AC800012098470023152229462046FFF7BEFF0C
:103AD800064620B9636B00209847304670BD04F154
:103AE8003803172229462046FFF7B0FFF2E700B552
:103AF80083B002AB03F8012D0F22FFF7A7FF03B035
:103B08005DF804FB10B580F82D2080F82E309DF864
:103B1800083080F830309DF80C3080F82F3000F1F4
:103B28002D033B22FFF792FF10BD00B583B00DF1C6
:103B380007034622FFF78AFF9DF8070003B05DF8E8
:103B480004FB00B583B00DF107034722FFF77EFFA2
:103B58009DF8070003B05DF804FB08B50023482270
:103B6800FFF774FF08BD10B504464168FFF7DDFF95
:103B7800207061682046FFF7E4FF607061682046A6
:103B8800FFF7EBFFE07404F1380317226168204661
:103B9800FFF75CFF10BD10B504464168FFF75AFFF8
:103BA800034608B9184610BD2046FFF7DCFF01237D
:103BB800F8E708B54168FFF762FF08BD10B504468D
:103BC800836903B1984761682046FFF772FF10BD0B
:103BD80008B50A464168FFF78AFF08BD30B583B0CB
:103BE80044689DF818500195009313460A462146EB
:103BF800FFF788FF03B030BD80F831107047000030
:103C080070B5044600258560C560457401260674B4
:103C18002223837485613146FFF7EEFF2046FFF7C4
:103C28000FFF84F8286084F8295084F82A5040232C
:103C380084F82B3084F82C50014B636370BD00BFAF
:103C48000B40000870B504460D461646FFF7D8FF2E
:103C58006560AE602046FFF79EFF70BD002282704F
:103C68000378013BC370027170470278837813446C
:103C7800DBB2837041788B420CD203790133037134
:103C8800C3781A44D2B2914201D84A1ED2B2C27045
:103C980001207047002070478368407918445A1CF7
:103CA8000021197013469042F9D1704710B4C378B7
:103CB8008B4234BF002301238478914294BF0021B2
:103CC800012143EA010094428CBF002000F001006A
:103CD8000B40184310BC704700230B7083784B705F
:103CE8004379013B8B70C378CB70704708B54B782C
:103CF800CA78012A03D0032A08D01A4602E003F141
:103D08000802D2B21946FFF7D1FF08BDA3F1080196
:103D18001A46CBB2F6E710B50C46114683684279CD
:103D28002046FFF705FC10BD8368407903EB40008F
:103D38005A1C0021197013469042F9D1704730B4CB
:103D480085688478121BD2B2072A03D940790544C2
:103D580002F00702012000FA02F2D2B22BB96B5C22
:103D680023EA02026A5430BC70476B5C1A436A54F7
:103D7800F9E74A7883789A420DD3C3789A420AD8E9
:103D880010B50C7843799C4200D310BD0B792146BD
:103D9800FFF7D5FFF9E770472DE9F04180460D465A
:103DA8008C78CB78032B03D8DFE803F00E05080BDB
:103DB8000026374615E00126002712E00026FF27D7
:103DC8000FE0FF2600270CE00026012709E02B78EA
:103DD8003B442B706B7833446B70640014F0FF0421
:103DE80007D014F0800FF2D029464046FFF7C1FFF4
:103DF800EDE7BDE8F08138B51D464C68143A332A22
:103E08004ED8DFE802F02D354D3F4D4D4D4D4D4D0F
:103E18004D4D4D4D4D4D4D4D4D4D4D4D4D4D4D4DCA
:103E28004D4D4D4D274D4D4D4D4D4D4D4D1A4D4D13
:103E38004D4D4D4D4D4D4D4D454929462046FFF7B9
:103E480055FF08B901232CE029462046FFF7A4FFB7
:103E5800012326E029462046FFF78BFF012320E0B7
:103E68002046FFF761FF2046FFF7F8FE012318E020
:103E78002046FFF7FAFE034698B12046FFF754FFA5
:103E880001230EE029462046FFF726FF012308E01C
:103E980063792B70012304E063782B70012300E021
:103EA8000123184638BD10B484688078101A00F0D1
:103EB800070001228240D2B22BB9635C23EA0202D6
:103EC800625410BC7047635C1A436254F9E74A783D
:103ED80083789A420DD3C3789A420AD810B50C78E1
:103EE80043799C4200D310BD0B792146FFF7DBFFD5
:103EF800F9E770472DE9F04180460D468C78CB787C
:103F0800032B03D8DFE803F00E05080B002637461D
:103F180015E00126002712E00026FF270FE0FF2604
:103F280000270CE00026012709E02B783B442B7082
:103F38006B7833446B70640014F0FF0407D014F0FE
:103F4800800FF2D029464046FFF7C1FFEDE7BDE8F4
:103F5800F08138B51D464C68143A332A4ED8DFE84C
:103F680002F02D354D3F4D4D4D4D4D4D4D4D4D4D67
:103F78004D4D4D4D4D4D4D4D4D4D4D4D4D4D4D4D69
:103F8800274D4D4D4D4D4D4D4D1A4D4D4D4D4D4DB2
:103F98004D4D4D4D454929462046FFF7A7FE08B926
:103FA80001232CE029462046FFF7A4FF012326E041
:103FB80029462046FFF78BFF012320E02046FFF724
:103FC8006BFE2046FFF74AFE012318E02046FFF764
:103FD8004CFE034698B12046FFF75EFE01230EE033
:103FE80029462046FFF778FE012308E063792B7005
:103FF800012304E063782B70012300E001231846B5
:1040080038BD704770B582B0054602AC1F2304F86E
:10401800013D0F4E4FF0FF33012221463046FEF797
:10402800AEFB05F00F038DF807304FF0FF33012288
:1040380021463046FEF7A3FB2D098DF807504FF0B7
:10404800FF33012221463046FEF799FB02B070BDCE
:10405800B405002070B582B0054602AC5F2304F8B1
:10406800013D0E4E0A23012221463046FEF787FB0A
:1040780005F00F038DF807300A2301222146304648
:10408800FEF77DFB2D098DF807500A2301222146F2
:104098003046FEF774FB02B070BD00BFB4050020C7
:1040A80010B5404C01224FF480512046FDF7FEFB2D
:1040B80000224FF480412046FDF7F8FB8020FFF7EF
:1040C800A1FF2A20FFF79EFF7120FFF79BFFC0206A
:1040D800FFF798FF0020FFF795FF2820FFF792FFD2
:1040E8000820FFF78FFF2A20FFF78CFF7920FFF7C2
:1040F80089FFD520FFF786FF7020FFF783FF782020
:10410800FFF780FF0820FFF77DFF0620FFF77AFF03
:104118007220FFF777FFC020FFF774FF0120FFF739
:1041280071FF2A20FFF76EFF7920FFF76BFFDC2075
:10413800FFF768FF0020FFF765FFDA20FFF762FF4F
:104148001020FFF75FFF8120FFF75CFFD920FFF702
:1041580059FF8F20FFF756FFF120FFF753FFDB20B1
:10416800FFF750FF3020FFF74DFFDC20FFF74AFF35
:104178000320FFF747FF7820FFF744FF2820FFF7C9
:1041880041FF0620FFF73EFF2820FFF73BFF0120F5
:10419800FFF738FF8020FFF735FF0C20FFF732FFCD
:1041A80010BD00BF000C014008B50120FFF72AFF31
:1041B8000220FFF727FF08BD38B50546002404E0B4
:1041C800285DFFF747FF0134E4B22846FCF7C6FC38
:1041D8008442F5D338BD000000B585B002460549D4
:1041E80001A801F029FF01A8FFF7E6FF05B05DF877
:1041F80004FB00BFC8A8000808B501EB801040B256
:1042080060F07F00C0B2FFF7FDFE08BD08B50E489C
:104218000E4B03600823436000238360C3604FF4A0
:10422800302202614FF4800242618361C3610362FC
:1042380043628362C362FCF7A8FD00B908BD472149
:10424800034800F095FEF9E7FC03002000640040F5
:10425800CCA800080268254B9A4200D0704730B5B8
:1042680087B003F5D633DA6942F00072DA61DB69A8
:1042780003F000730193019B4FF400630293002441
:104288000394012304931A4D02A92846FDF716FA50
:104298004FF480530293022303930323059302A947
:1042A8002846FDF70BFA224621461320FDF79AF916
:1042B8001320FDF7CBF9224621461420FDF792F989
:1042C8001420FDF7C3F9224621461520FDF78AF987
:1042D8001520FDF7BBF9224621461620FDF782F985
:1042E8001620FDF7B3F907B030BD00BF00640040E9
:1042F800000801402DE9F04788B0444B9A6942F024
:1043080010029A619A6902F010020092009A9A6962
:1043180042F020029A619A6902F020020192019A01
:104328009A6942F004029A619A6902F004020292C0
:10433800029A9A6942F008029A619B6903F008039D
:104348000393039BDFF8CC9000224FF4A641484624
:10435800FDF7ACFADFF8C08000224FF42041404658
:10436800FDF7A4FA2A4F00224FF4A0513846FDF772
:104378009DFADFF8A8A0002204215046FDF796FA1E
:1043880042F6FF3304930324059404A93846FDF745
:1043980095F944F233130493059404A94046FDF7B4
:1043A8008DF940F616430493059404A94846FDF791
:1043B80085F94FF4A6430493012605960025069532
:1043C8000224079404A94846FDF778F94FF42043DE
:1043D800049305960695079404A94046FDF76EF9DF
:1043E8004FF4A053049305960695079404A93846FC
:1043F800FDF764F90423049305960695079404A928
:104408005046FDF75BF908B0BDE8F08700100240A0
:1044180000100140000C0140000801400014014058
:1044280008B50C480C4B03600C4B436000238360B9
:10443800C3604FF48042026143618361C3610362D8
:10444800FDF7E6FB00B908BD4221054800F090FDE4
:10445800F9E700BF4004002000540040801A06001D
:10446800DCA8000802680E4B9A4200D0704700B5DD
:1044780087B0C0230293122303930323059302A951
:104488000848FDF71BF9084BDA6942F40012DA61B3
:10449800DB6903F400130193019B07B05DF804FB8B
:1044A80000540040000C01400010024070B588B074
:1044B80004460D46002605960696ADF81C60CDE923
:1044C8000045174A0A2105A801F082FD0A23029334
:1044D8000196009601230422E0211248FDF70EFD03
:1044E8001148FFF766FB09E005AB202214210E48AE
:1044F800FFF788FA0C48FFF761FB70B100220B4BFD
:1045080020462946FCF7C4FA0028EDD005AB202246
:104518001F210548FFF776FAECE708B070BD00BF29
:10452800FCAA000840040020780500200000224072
:1045380010B584B004460A22029200230193009326
:104548001346E0212248FDF7D9FC012C18D0022C93
:104558002AD00CB104B010BD1E48FFF72AFB1D4C31
:104568001D4B01934023009310230022114620463F
:10457800FEF75BFF2046FFF721FB0028EFD1E9E7B4
:104588001448FFF716FB134C144B01934023009378
:104598001023002211462046FEF747FF2046FFF76A
:1045A8000DFB0028EFD1D5E70A48FFF702FB094CBD
:1045B8000B4B019340230093102300221146204601
:1045C800FEF733FF2046FFF7F9FA0028EFD1C1E7DD
:1045D8004004002078050020C0AD00081CAB00088E
:1045E800C0AF0008F0B589B004460D46164600274E
:1045F80005970697ADF81C70CDE900451D4A0A21BC
:1046080005A801F0E5FC0A2302930197009701230E
:104618001A46E0211848FDF771FC1848FFF7C9FA57
:1046280014E0174B019340230093102300221146F6
:104638001248FEF7FAFE0BE005AB202214210F48C2
:10464800FFF7E0F90D48FFF7B9FA80B1012EE8D07D
:1046580000220C4B20462946FCF71AFA0028EBD01A
:1046680005AB20221F210548FFF7CCF9EAE709B07E
:10467800F0BD00BFFCAA0008400400207805002017
:10468800FCA8000800002240F0B589B004460D4699
:104698001646CDE90045384A0A2105A801F098FCDC
:1046A8003346364A0A2102A801F092FC3448FFF743
:1046B80080FA20E03248334B836005AB3222482130
:1046C800FFF7A0F91FE02AA3D3E9002320462946D3
:1046D800FCF7F2F9002830D129482B4B83602B4B8B
:1046E8003F226821FFF78EF9002E2FD12448FFF7CB
:1046F80065FA002838D00022254B20462946FCF7C9
:10470800C7F90028D6D10022214B20462946FCF7BC
:10471800D3F90028D7D016A3D3E900232046294689
:10472800FCF7B6F90028CED01548164B836005ABC8
:1047380032222221FFF766F9C5E71148114B836041
:1047480005AB32220121FFF75DF9C5E70C4F114B8C
:104758003F2201213846FFF755F902AB3F221621C7
:104768003846FFF74FF9C1E709B0F0BDAFF3008055
:104778000000000000C0584004AB0008C8A80008AA
:10478800FC0400204C9E0008F87800080CAB0008D8
:104798000000224014AB00082DE9F04784B0012244
:1047A8004FF400413448FDF781F801224FF480515D
:1047B8003248FDF77BF8324C00224FF480712046D6
:1047C800FDF774F800224FF400712046FDF76EF8EB
:1047D8002C4A2D492D48FFF735FADFF8C0904FF0E5
:1047E800FF3ACDF808A000250195009501231A4647
:1047F800E0214846FDF782FB0520FCF717FADFF8B1
:10480800A080234F234C424639462046FFF71AFA28
:10481800214EA6600520FCF709FACDF808A00195FD
:10482800009501230222E0214846FDF767FB052099
:10483800FCF7FCF9424639462046FFF703FAA66022
:104848000520FCF7F3F9CDF808A0019500950123A0
:104858000422E0214846FDF751FB0520FCF7E6F964
:10486800424639462046FFF7EDF9A6606420FCF77A
:10487800DDF904B0BDE8F0870008014000100140F0
:10488800000C0140C132000820000020FC04002078
:10489800080000207805002044800008400400201B
:1048A800693300082DE9F04184B080460146194873
:1048B800FFF78EF9184F4FF0FF3502950024019449
:1048C800009401231A46E0213846FDF717FB134EE2
:1048D80041463046FFF77CF9029501940094012384
:1048E8000222E0213846FDF709FB41463046FFF732
:1048F8006FF902950194009401230422E0213846BF
:10490800FDF7FCFA41463046FFF762F904B0BDE80E
:10491800F08100BFFC04002040040020780500203E
:1049280000B585B0164B1B788DF80430154B1B78F5
:104938008DF80530144B1B788DF80630134B1B7817
:104948008DF80730124B1B788DF80830114B1B7807
:104958008DF80930104B1B788DF80A300F4B1B78F7
:104968008DF80B300E4B1B788DF80C306423092220
:1049780001A90C48FEF71AFC05B05DF804FB00BF5E
:10498800E7030020E8030020E0030020E5030020FF
:10499800E6030020E2030020E3030020E1030020F7
:1049A800E403002064060020024B1870024B1970C3
:1049B800704700BFE2030020E303002008B5FBF7BF
:1049C80081FD0022064BFBF711FF00F001FEFCF70A
:1049D800A5F8C0B2382800D93820024B187008BD95
:1049E80000000440E7030020D0B506460F461446F1
:1049F80082B90022114BFBF7F9FE00F0E9FDFCF744
:104A08008DF8C0B2102800D910200D4B18700D4B2E
:104A180000221A70012C00D0D0BD3046394600F073
:104A2800D7FDFCF77BF8C0B2032800D90320044B5C
:104A38001870044B01221A70EEE700BF0000E83F2F
:104A4800E5030020E603002070B504460D4626A3C2
:104A5800D3E90023FCF71CF850B1002200232046BC
:104A68002946FCF729F808B1012602E0002600E0F3
:104A780000261DA3D3E9002320462946FCF71CF88D
:104A880040B11BA3D3E9002320462946FCF700F8D0
:104A980000B1022616A3D3E9002320462946FCF7D5
:104AA8000BF838B10022144B20462946FBF7F0FFDB
:104AB80000B103260022104B20462946FBF7FCFFD5
:104AC80050B100220D4B20462946FBF78FFE00F01F
:104AD8007FFDFCF723F8C6B2132E00D91326084B26
:104AE8001E7070BDAFF30080A4703D0AD7A31A40B2
:104AF800295C8FC2F5A82A40000034400000154008
:104B0800E0030020014B1870704700BFE10300204C
:104B1800024B58639863D863704700BF0004004095
:104B280010B5074C00212046FEF7C4F904212046A1
:104B3800FEF7C0F908212046FEF7BCF910BD00BFFA
:104B4800BC04002008B5FFF727FEFFF7A9FAFFF716
:104B5800E7FF054B1878FFF7D5FFFFF7E1FE0020C8
:104B6800FFF7D6FF08BD00BF4000002008B5013898
:104B7800062812D8DFE800F00412202E3C4A58001C
:104B8800FFF712FB00BF2F48FFF716FB002101209B
:104B9800FFF732FB2C48FFF70FFB08BDFFF704FBBC
:104BA80000BF2A48FFF708FB00210120FFF724FB7C
:104BB8002748FFF701FBF0E7FFF7F6FA00BF2348A5
:104BC800FFF7FAFA00210120FFF716FB2148FFF74B
:104BD800F3FAE2E7FFF7E8FA00BF1F48FFF7ECFA3D
:104BE80000210120FFF708FB1748FFF7E5FAD4E793
:104BF800FFF7DAFA00BF1948FFF7DEFA00210120B3
:104C0800FFF7FAFA1648FFF7D7FAC6E7FFF7CCFA24
:104C180000BF1448FFF7D0FA00210120FFF7ECFA93
:104C28000F48FFF7C9FAB8E7FFF7BEFA00BF0E480A
:104C3800FFF7C2FA00210120FFF7DEFA0848FFF764
:104C4800BBFAAAE71CAD0008B8AD00082CAD0008F7
:104C58003CAD00084CAD00085CAD00086CAD000828
:104C680078AD000884AD000890AD00080000000091
:104C7800F0B583B0A24A138801331380A14A138880
:104C880001339BB21380032B0BD9134600221A80E1
:104C98009D4C00229D4BD4E90001FBF7C5FAC4E9FD
:104CA800000100229A4B9849D1E90001FBF7E6FE82
:104CB800002840F0AD80974A138801339BB21380D7
:104CC800022B0BD9134600221A80934B1B78002B1A
:104CD80040F0A780914A1378013313708F4B1C78EA
:104CE8008C2C02D98C4B01221A7014B98A4B0022E1
:104CF8001A708B4B00221A70874B1D7855BB894B55
:104D0800D3E900670022884B30463946FBF7ACFEF2
:104D180000BB7C4A138801339BB21380032B0CD948
:104D2800134600221A8072A3D3E90023304639467D
:104D3800FBF77CFA7B4BC3E9000100227A4B7949E7
:104D4800D1E90001FBF7B8FE20B1764B0020764987
:104D5800C3E90001012D69D0744A138801339BB25D
:104D68001380142B0FD9134600221A80704B1B781E
:104D7800002B7BD16F4BC5221A706F4B21221A7002
:104D88006B4B01221A706D4A13780133DBB2137032
:104D9800072B02D9134600221A70694B1D7820464A
:104DA800FBF780FB2A46FFF76FFC634B1978614BD2
:104DB8001878FFF7F9FD594B1878FFF7FFFD584BA6
:104DC8001A78584BD3E90001FFF70EFE4E4BD3E992
:104DD8000001FFF739FEFFF7A3FD584B1B782BB1F5
:104DE800022B03D0042B01D0062B0BD14C4B1A7885
:104DF8004C4BD3E90001FFF7F5FB434BD3E9000126
:104E0800FFF754FB4D4B1B78072B39D003B0F0BD8F
:104E18003D4B00204B49C3E900013F4B00221A706B
:104E280049E73E4A1378013B137057E7354A138820
:104E380001339BB21380032B8ED9134600221A80AC
:104E4800384D2DA3D3E90023D5E90001FBF7ECF990
:104E5800C5E9000100220023FBF710FE00283FF4FB
:104E68007BAF00200021C5E9000175E7314B4522E1
:104E78001A70314B60221A702D4B00221A7082E78B
:104E8800314B1878FFF754FBFF20FFF70BFDFF218C
:104E98000846FFF789FD2D4B187828BBFFF784F9E2
:104EA80000BF2B48FFF788F92A4B1878FFF794F9C9
:104EB8002948FFF781F9294B1878FFF78DF9284B16
:104EC8001B68284A0A21684601F082F8002101205F
:104ED800FFF792F92448FFF76FF96846FFF76CF976
:104EE8002248FFF769F991E7FFF740FE8EE700BF18
:104EF8009A9999999999C93F333333333333D33FC7
:104F0800BC030020BE030020380000200000E03F62
:104F18000000F03FC0030020C4030020D803002095
:104F2800C6030020D003002000002840C203002050
:104F3800C5030020C8030020C9030020CA030020BD
:104F4800C70300200000594041000020D903002079
:104F5800A0AD000842000020A8AD000843000020D2
:104F6800DC030020ACAD0008B4AD0008BCAD0008FF
:104F7800FEE7000000B591B0012206924FF480339D
:104F880007934FF4003108910A9202220D920E9372
:104F98004FF4E0130F9306A8FDF784F808BB0F231E
:104FA800019302210291002303934FF4806204923B
:104FB800059301A8FDF7A2FAB8B9FDF75BFB0D4B05
:104FC800A3FB00308009FCF74DFB0420FCF760FBD5
:104FD800002211464FF0FF30FCF704FB11B05DF8DA
:104FE80004FBCB210448FFF7C3FFD9210248FFF790
:104FF800BFFF00BFD34D6210ECA8000808B5FBF74F
:1050080029FEFBF72FFEFBF735FEFBF7EBFDFFF75D
:10501800B1FFFFF76FF9FFF7F9F8FFF701FA00F0B2
:1050280043F800F067F800F0ABF900F019FA00F067
:1050380035FAFFF787FD194900244C618C61012678
:10504800CE610C604C608C60CC600C610E624C626E
:10505800134D2846FBF716FE124B40F227121A6032
:10506800DC609C6008221A611E75022159750321B3
:1050780099750421D97505211976062159760721D4
:105088009976DA7621462846FCF720F80A21284640
:10509800FBF716FFFFF7ECFDFCE700BF94040020C8
:1050A800FC0300203805002008B50F480F4B0360AB
:1050B8004FF48273436000238360C36003614361DC
:1050C8004FF4007282611822C26180220262436238
:1050D80083620A23C362FDF728FC00B908BD462194
:1050E8000348FFF745FFF9E7B40500200038004002
:1050F800C0B1000808B50F480F4B03604FF4827326
:10510800436000238360C360036143614FF400720E
:1051180082610822C2610362436283620A23C36216
:10512800FDF703FC00B908BD5C210448FFF720FF28
:10513800F9E700BF0C060020003C0040C0B10008A1
:1051480000B587B003681A4A934205D0194A9342BA
:1051580018D007B05DF804FB174BDA6942F48042B7
:10516800DA61DB6903F480430093009B4FF420432A
:105178000293022303930323059302A90F48FCF724
:105188009DFAE6E70C4BDA6942F40042DA61DB6922
:1051980003F400430193019B282302930223039302
:1051A8000323059302A90548FCF788FAD1E700BF55
:1051B80000380040003C004000100240000C014054
:1051C80000B583B0244B9A6942F001029A619A694A
:1051D80002F001020092009ADA6942F08052DA6124
:1051E800DB6903F080530193019B0320FCF7E8F986
:1051F800002211466FF00B00FCF7F4F9002211466B
:105208006FF00A00FCF7EEF9002211466FF0090072
:10521800FCF7E8F9002211466FF00400FCF7E2F908
:10522800002211466FF00300FCF7DCF9002211465A
:105238006FF00100FCF7D6F9002211464FF0FF305D
:10524800FCF7D0F9054A536823F0E06343F0806324
:10525800536003B05DF804FB0010024000000140F9
:105268007047FEE7FEE7FEE7FEE7704770477047C6
:1052780008B5FBF7C9FCFCF71CFA08BD08B50248DD
:10528800FCF7A0F808BD00BFFC03002008B50248E1
:10529800FCF798F808BD00BFFC03002010B5054CCA
:1052A8002046FCF78FF8002184F83D102046FBF7D4
:1052B8000DFF10BDFC03002008B50248FCF782F87A
:1052C80008BD00BFFC0300200F4B1A6842F0010222
:1052D8001A6059680D4A0A405A601A6822F08472A6
:1052E80022F480321A601A6822F480221A605A68FE
:1052F80022F4FE025A604FF41F029A60044B4FF0EA
:1053080000629A60704700BF001002400000FFF87A
:1053180000ED00E00268094B9A4200D0704782B065
:1053280003F50333DA6942F00202DA61DB6903F05C
:1053380002030193019B02B0704700BF00040040C4
:1053480002680C4B9A4200D0704710B584B0C02355
:10535800009302240194039469460748FCF7AEF9C8
:10536800012300930194039469460448FCF7A6F9C5
:1053780004B010BD0004004000080140000C0140CA
:1053880000B58FB03348344B036041F28733436034
:10539800002383606322C26003618361FDF7A4FC7C
:1053A800002834D10EA94FF4805341F8103D294804
:1053B800FDF7C9FB00282FD12648FDF7AEFC0028D1
:1053C8002FD100230893099308A92248FDF78EFDE1
:1053D80060BB60230193002202920392059201A907
:1053E8001C48FDF7EBFC30BB04220DEB0201194809
:1053F800FDF7E4FC20BB082201A91648FDF7DEFCF6
:1054080018BB1448FFF79CFF0FB05DF804FB402160
:105418001248FFF7ADFDC5E746211048FFF7A8FD84
:10542800CAE74B210D48FFF7A3FDCAE752210B48F5
:10543800FFF79EFDCDE75B210848FFF799FDD3E70D
:1054480060210648FFF794FDD5E765210348FFF77B
:105458008FFDD6E7BC04002000040040E8B1000836
:1054680008B50B480B4B03604FF4E133436000234E
:105478008360C36003610C2242618361C361FDF7ED
:1054880066FE00B908BD43210348FFF771FDF9E73F
:105498006406002000380140F8B1000808B50B4840
:1054A8000B4B03604FF41653436000238360C360C3
:1054B80003610C2242618361C361FDF748FE00B9B4
:1054C80008BD56210348FFF753FDF9E7A40600205D
:1054D80000440040F8B1000810B586B00368244ABB
:1054E800934204D0234A934222D006B010BD224BE7
:1054F8009A6942F480429A619B6903F4804300935D
:10550800009B4FF400730293022303930323059334
:105518001A4C02A92046FCF7D1F84FF48063029395
:1055280000230393049302A92046FCF7C7F8DCE79D
:10553800114BDA6942F40032DA61DB6903F40033B3
:105548000193019B042302930223039303230593EE
:105558000A4C02A92046FCF7B1F80823029300235D
:105568000393049302A92046FCF7A8F8BDE700BFFF
:10557800003801400044004000100240000801408B
:10558800002103E00B4B5B58435004310A480B4B96
:1055980042189A42F6D30A4A02E0002342F8043B32
:1055A800084B9A42F9D3FFF78FFE00F095F8FFF702
:1055B80025FD704770B40008000000201802002084
:1055C80018020020E8060020FEE7000000000000A6
:1055D800C1F30A522DE9F843A2F2FF36132E0B4607
:1055E8000D460446884607461DDC002E3DDB384A3A
:1055F80042FA06F901EA0902024319D032A3D3E9B3
:105608000023FAF713FE00220023FBF755FAD0B364
:10561800002D04DA4FF4801343FA06F6B04428EA62
:10562800090500272FE0332E06DDB6F5806F2FD051
:1056380019462046BDE8F8834FF0FF39A2F213421D
:1056480029FA02F919EA000FF2D01FA3D3E90023BF
:10565800FAF7ECFD00220023FBF72EFA98B1002D93
:1056680024DB27EA090745460DE017A3D3E9002301
:10567800FAF7DCFD00220023FBF71EFA18B1002D13
:105688000BDB00273D463C4629462046BDE8F8830B
:105698000246FAF7CBFD0446CBE725F000430D4A56
:1056A8001F43002F18BF15460027ECE7142E08D01B
:1056B8000123C6F1340603FA06F6371928BF9844C1
:1056C800CFE705F10108CCE79C7500883CE4377EFC
:1056D800FFFF0F000000F0BF70B500250C4E0D4C09
:1056E800A41BA410A54209D102F0A0F800250A4E77
:1056F8000A4CA41BA410A54205D170BD56F825304C
:1057080098470135EEE756F8253098470135F2E716
:1057180068B4000868B4000868B400086CB40008ED
:1057280003460244934200D1704703F8011BF9E78E
:10573800002B2DE9F0471E46BBBF03F100431E4670
:1057480000232D2388B0149FDDE9121A27F02007C3
:10575800462F1446109D0B7004D0452F00D10135FB
:10576800022300E0032307AA049206AACDE902A2B5
:10577800CDE900352246334600F00EFD472F80461E
:1057880002D1119BDB0726D5462F08EB050911D15D
:1057980098F80030302B0AD10022002320463146E9
:1057A800FBF762F918B9C5F10105CAF80050DAF833
:1057B800003099440022002320463146FBF754F973
:1057C80038B93022079B4B4505D2591C07911A70EE
:1057D800F8E7CDF81C904046079B159AA3EB080301
:1057E800136008B0BDE8F087F7B50029B4BF2D23D2
:1057F8002B230446B8BF4942092904F8022B4370F9
:1058080021DD0DF107031F460A2691FBF6F506FB7D
:105818001511092D01F1300103F8011C03F1FF32C4
:10582800294609DC3031023B02F8011CBB42224602
:1058380004D3101A03B0F0BD1346E6E713F8012BA2
:1058480004F8012BF2E7302319448370021DC1705C
:10585800EFE700002DE9F04F91B00C461A9F9346F0
:105868001E46054601F04CFA036818460993FBF7F3
:1058780075F900230E933B680A90073323F007035A
:1058880003F1080294F81880D4F800A03A60D3E92C
:105898000023C4E91223D4E9127929F000430B93B9
:1058A8004FF0FF32A64B38460B99FBF75FF968BB00
:1058B8004FF0FF32A24B38460B99FBF7E9F828BBAB
:1058C8000022002338464946FBF7D8F810B12D23AB
:1058D80084F843309B4F9C4BB8F1470F98BF1F4645
:1058E80003234FF0000923612AF004032360009684
:1058F8005B460FAA2146284600F0E2F9013040F045
:1059080090804FF0FF3011B0BDE8F08F3A464B461B
:1059180038464946FBF72AF910B18C4F8C4BDBE728
:1059280063684AF48062591C0DA80EA940D1062369
:1059380063604FF0000C0DF13303CDE90123636878
:105948002260CDE9030800933A464B46CDE9051C91
:105958002846FFF7EDFE08F0DF03472B074609D17D
:105968000D9BD81C02DB6268934247DDA8F1020850
:105978005FFA88F8B8F1650F0D9924D801394246C5
:1059880004F150000D91FFF72FFF0E9A814613186E
:10599800012A236102DC2268D10701D50133236182
:1059A8009DF83330002BA2D02D2384F843309EE796
:1059B800B8F1670F00F06E81B8F1470FB9D1002B2D
:1059C800B7D10123B4E7B8F1660F19D1002963688C
:1059D8000CDD216113B92268D20702D501330B44CB
:1059E80023610D9B4FF00009A365D9E713B922681D
:1059F800D00701D50233F3E70123F1E74FF0670839
:105A0800DDE90D32934205DB22682361D107E8D531
:105A18000133E5E7002BCCBF0123C3F10203134494
:105A2800DEE723685A0507D423693A4659462846CB
:105A3800B047013029D164E7B8F1650F40F2D7804B
:105A4800D4E9120100220023FBF70EF888B30123E2
:105A5800404A59462846B04701303FF452AFDDE985
:105A68000D239A4202DB2368D8070ED5DDE9092306
:105A780059462846B04701303FF443AF002704F1A8
:105A88001A080E9B013BBB4209DC23689F0700F103
:105A9800FD80E0680F9B9842B8BF184633E70123A2
:105AA800424659462846B04701303FF42AAF0137ED
:105AB800E7E70D9B002B2BDC0123264A5946284695
:105AC800B04701303FF41DAF0D9B23B90E9B13B9AE
